{
  "_format": "hh-sol-artifact-1",
  "contractName": "GenerativeArtNFT",
  "sourceName": "contracts/test.sol",
  "abi": [
    {
      "inputs": [
        {
          "internalType": "string",
          "name": "initialCollectionURI",
          "type": "string"
        },
        {
          "internalType": "string",
          "name": "_name",
          "type": "string"
        },
        {
          "internalType": "string",
          "name": "_symbol",
          "type": "string"
        },
        {
          "internalType": "uint256",
          "name": "_totalSupply",
          "type": "uint256"
        },
        {
          "internalType": "uint256",
          "name": "_mintPrice",
          "type": "uint256"
        }
      ],
      "stateMutability": "nonpayable",
      "type": "constructor"
    },
    {
      "inputs": [],
      "name": "ERC721EnumerableForbiddenBatchMint",
      "type": "error"
    },
    {
      "inputs": [
        {
          "internalType": "address",
          "name": "sender",
          "type": "address"
        },
        {
          "internalType": "uint256",
          "name": "tokenId",
          "type": "uint256"
        },
        {
          "internalType": "address",
          "name": "owner",
          "type": "address"
        }
      ],
      "name": "ERC721IncorrectOwner",
      "type": "error"
    },
    {
      "inputs": [
        {
          "internalType": "address",
          "name": "operator",
          "type": "address"
        },
        {
          "internalType": "uint256",
          "name": "tokenId",
          "type": "uint256"
        }
      ],
      "name": "ERC721InsufficientApproval",
      "type": "error"
    },
    {
      "inputs": [
        {
          "internalType": "address",
          "name": "approver",
          "type": "address"
        }
      ],
      "name": "ERC721InvalidApprover",
      "type": "error"
    },
    {
      "inputs": [
        {
          "internalType": "address",
          "name": "operator",
          "type": "address"
        }
      ],
      "name": "ERC721InvalidOperator",
      "type": "error"
    },
    {
      "inputs": [
        {
          "internalType": "address",
          "name": "owner",
          "type": "address"
        }
      ],
      "name": "ERC721InvalidOwner",
      "type": "error"
    },
    {
      "inputs": [
        {
          "internalType": "address",
          "name": "receiver",
          "type": "address"
        }
      ],
      "name": "ERC721InvalidReceiver",
      "type": "error"
    },
    {
      "inputs": [
        {
          "internalType": "address",
          "name": "sender",
          "type": "address"
        }
      ],
      "name": "ERC721InvalidSender",
      "type": "error"
    },
    {
      "inputs": [
        {
          "internalType": "uint256",
          "name": "tokenId",
          "type": "uint256"
        }
      ],
      "name": "ERC721NonexistentToken",
      "type": "error"
    },
    {
      "inputs": [
        {
          "internalType": "address",
          "name": "owner",
          "type": "address"
        },
        {
          "internalType": "uint256",
          "name": "index",
          "type": "uint256"
        }
      ],
      "name": "ERC721OutOfBoundsIndex",
      "type": "error"
    },
    {
      "inputs": [
        {
          "internalType": "address",
          "name": "owner",
          "type": "address"
        }
      ],
      "name": "OwnableInvalidOwner",
      "type": "error"
    },
    {
      "inputs": [
        {
          "internalType": "address",
          "name": "account",
          "type": "address"
        }
      ],
      "name": "OwnableUnauthorizedAccount",
      "type": "error"
    },
    {
      "anonymous": false,
      "inputs": [
        {
          "indexed": true,
          "internalType": "address",
          "name": "owner",
          "type": "address"
        },
        {
          "indexed": true,
          "internalType": "address",
          "name": "approved",
          "type": "address"
        },
        {
          "indexed": true,
          "internalType": "uint256",
          "name": "tokenId",
          "type": "uint256"
        }
      ],
      "name": "Approval",
      "type": "event"
    },
    {
      "anonymous": false,
      "inputs": [
        {
          "indexed": true,
          "internalType": "address",
          "name": "owner",
          "type": "address"
        },
        {
          "indexed": true,
          "internalType": "address",
          "name": "operator",
          "type": "address"
        },
        {
          "indexed": false,
          "internalType": "bool",
          "name": "approved",
          "type": "bool"
        }
      ],
      "name": "ApprovalForAll",
      "type": "event"
    },
    {
      "anonymous": false,
      "inputs": [
        {
          "indexed": true,
          "internalType": "address",
          "name": "previousOwner",
          "type": "address"
        },
        {
          "indexed": true,
          "internalType": "address",
          "name": "newOwner",
          "type": "address"
        }
      ],
      "name": "OwnershipTransferred",
      "type": "event"
    },
    {
      "anonymous": false,
      "inputs": [
        {
          "indexed": true,
          "internalType": "address",
          "name": "from",
          "type": "address"
        },
        {
          "indexed": true,
          "internalType": "address",
          "name": "to",
          "type": "address"
        },
        {
          "indexed": true,
          "internalType": "uint256",
          "name": "tokenId",
          "type": "uint256"
        }
      ],
      "name": "Transfer",
      "type": "event"
    },
    {
      "inputs": [
        {
          "internalType": "address",
          "name": "to",
          "type": "address"
        },
        {
          "internalType": "uint256",
          "name": "tokenId",
          "type": "uint256"
        }
      ],
      "name": "approve",
      "outputs": [],
      "stateMutability": "nonpayable",
      "type": "function"
    },
    {
      "inputs": [
        {
          "internalType": "address",
          "name": "owner",
          "type": "address"
        }
      ],
      "name": "balanceOf",
      "outputs": [
        {
          "internalType": "uint256",
          "name": "",
          "type": "uint256"
        }
      ],
      "stateMutability": "view",
      "type": "function"
    },
    {
      "inputs": [
        {
          "internalType": "uint256",
          "name": "tokenId",
          "type": "uint256"
        }
      ],
      "name": "burn",
      "outputs": [],
      "stateMutability": "nonpayable",
      "type": "function"
    },
    {
      "inputs": [
        {
          "internalType": "address",
          "name": "wallet",
          "type": "address"
        }
      ],
      "name": "burnedCountByWallet",
      "outputs": [
        {
          "internalType": "uint256",
          "name": "",
          "type": "uint256"
        }
      ],
      "stateMutability": "view",
      "type": "function"
    },
    {
      "inputs": [],
      "name": "contractURI",
      "outputs": [
        {
          "internalType": "string",
          "name": "",
          "type": "string"
        }
      ],
      "stateMutability": "view",
      "type": "function"
    },
    {
      "inputs": [
        {
          "internalType": "uint256",
          "name": "tokenId",
          "type": "uint256"
        }
      ],
      "name": "getApproved",
      "outputs": [
        {
          "internalType": "address",
          "name": "",
          "type": "address"
        }
      ],
      "stateMutability": "view",
      "type": "function"
    },
    {
      "inputs": [
        {
          "internalType": "address",
          "name": "owner",
          "type": "address"
        },
        {
          "internalType": "address",
          "name": "operator",
          "type": "address"
        }
      ],
      "name": "isApprovedForAll",
      "outputs": [
        {
          "internalType": "bool",
          "name": "",
          "type": "bool"
        }
      ],
      "stateMutability": "view",
      "type": "function"
    },
    {
      "inputs": [],
      "name": "maxSupply",
      "outputs": [
        {
          "internalType": "uint256",
          "name": "",
          "type": "uint256"
        }
      ],
      "stateMutability": "view",
      "type": "function"
    },
    {
      "inputs": [],
      "name": "mint",
      "outputs": [],
      "stateMutability": "payable",
      "type": "function"
    },
    {
      "inputs": [],
      "name": "mintPrice",
      "outputs": [
        {
          "internalType": "uint256",
          "name": "",
          "type": "uint256"
        }
      ],
      "stateMutability": "view",
      "type": "function"
    },
    {
      "inputs": [],
      "name": "name",
      "outputs": [
        {
          "internalType": "string",
          "name": "",
          "type": "string"
        }
      ],
      "stateMutability": "view",
      "type": "function"
    },
    {
      "inputs": [],
      "name": "owner",
      "outputs": [
        {
          "internalType": "address",
          "name": "",
          "type": "address"
        }
      ],
      "stateMutability": "view",
      "type": "function"
    },
    {
      "inputs": [
        {
          "internalType": "uint256",
          "name": "tokenId",
          "type": "uint256"
        }
      ],
      "name": "ownerOf",
      "outputs": [
        {
          "internalType": "address",
          "name": "",
          "type": "address"
        }
      ],
      "stateMutability": "view",
      "type": "function"
    },
    {
      "inputs": [],
      "name": "renounceOwnership",
      "outputs": [],
      "stateMutability": "nonpayable",
      "type": "function"
    },
    {
      "inputs": [
        {
          "internalType": "address",
          "name": "from",
          "type": "address"
        },
        {
          "internalType": "address",
          "name": "to",
          "type": "address"
        },
        {
          "internalType": "uint256",
          "name": "tokenId",
          "type": "uint256"
        }
      ],
      "name": "safeTransferFrom",
      "outputs": [],
      "stateMutability": "nonpayable",
      "type": "function"
    },
    {
      "inputs": [
        {
          "internalType": "address",
          "name": "from",
          "type": "address"
        },
        {
          "internalType": "address",
          "name": "to",
          "type": "address"
        },
        {
          "internalType": "uint256",
          "name": "tokenId",
          "type": "uint256"
        },
        {
          "internalType": "bytes",
          "name": "data",
          "type": "bytes"
        }
      ],
      "name": "safeTransferFrom",
      "outputs": [],
      "stateMutability": "nonpayable",
      "type": "function"
    },
    {
      "inputs": [
        {
          "internalType": "address",
          "name": "operator",
          "type": "address"
        },
        {
          "internalType": "bool",
          "name": "approved",
          "type": "bool"
        }
      ],
      "name": "setApprovalForAll",
      "outputs": [],
      "stateMutability": "nonpayable",
      "type": "function"
    },
    {
      "inputs": [
        {
          "internalType": "uint256",
          "name": "tokenId",
          "type": "uint256"
        },
        {
          "internalType": "string",
          "name": "name",
          "type": "string"
        },
        {
          "internalType": "string",
          "name": "description",
          "type": "string"
        },
        {
          "internalType": "string",
          "name": "image",
          "type": "string"
        },
        {
          "internalType": "string[]",
          "name": "traitTypes",
          "type": "string[]"
        },
        {
          "internalType": "string[]",
          "name": "traitValues",
          "type": "string[]"
        }
      ],
      "name": "setTokenMetadata",
      "outputs": [],
      "stateMutability": "nonpayable",
      "type": "function"
    },
    {
      "inputs": [
        {
          "internalType": "bytes4",
          "name": "interfaceId",
          "type": "bytes4"
        }
      ],
      "name": "supportsInterface",
      "outputs": [
        {
          "internalType": "bool",
          "name": "",
          "type": "bool"
        }
      ],
      "stateMutability": "view",
      "type": "function"
    },
    {
      "inputs": [],
      "name": "symbol",
      "outputs": [
        {
          "internalType": "string",
          "name": "",
          "type": "string"
        }
      ],
      "stateMutability": "view",
      "type": "function"
    },
    {
      "inputs": [
        {
          "internalType": "uint256",
          "name": "index",
          "type": "uint256"
        }
      ],
      "name": "tokenByIndex",
      "outputs": [
        {
          "internalType": "uint256",
          "name": "",
          "type": "uint256"
        }
      ],
      "stateMutability": "view",
      "type": "function"
    },
    {
      "inputs": [
        {
          "internalType": "address",
          "name": "owner",
          "type": "address"
        },
        {
          "internalType": "uint256",
          "name": "index",
          "type": "uint256"
        }
      ],
      "name": "tokenOfOwnerByIndex",
      "outputs": [
        {
          "internalType": "uint256",
          "name": "",
          "type": "uint256"
        }
      ],
      "stateMutability": "view",
      "type": "function"
    },
    {
      "inputs": [
        {
          "internalType": "uint256",
          "name": "tokenId",
          "type": "uint256"
        }
      ],
      "name": "tokenURI",
      "outputs": [
        {
          "internalType": "string",
          "name": "",
          "type": "string"
        }
      ],
      "stateMutability": "view",
      "type": "function"
    },
    {
      "inputs": [],
      "name": "totalBurned",
      "outputs": [
        {
          "internalType": "uint256",
          "name": "",
          "type": "uint256"
        }
      ],
      "stateMutability": "view",
      "type": "function"
    },
    {
      "inputs": [],
      "name": "totalMinted",
      "outputs": [
        {
          "internalType": "uint256",
          "name": "",
          "type": "uint256"
        }
      ],
      "stateMutability": "view",
      "type": "function"
    },
    {
      "inputs": [],
      "name": "totalSupply",
      "outputs": [
        {
          "internalType": "uint256",
          "name": "",
          "type": "uint256"
        }
      ],
      "stateMutability": "view",
      "type": "function"
    },
    {
      "inputs": [
        {
          "internalType": "address",
          "name": "from",
          "type": "address"
        },
        {
          "internalType": "address",
          "name": "to",
          "type": "address"
        },
        {
          "internalType": "uint256",
          "name": "tokenId",
          "type": "uint256"
        }
      ],
      "name": "transferFrom",
      "outputs": [],
      "stateMutability": "nonpayable",
      "type": "function"
    },
    {
      "inputs": [
        {
          "internalType": "address",
          "name": "newOwner",
          "type": "address"
        }
      ],
      "name": "transferOwnership",
      "outputs": [],
      "stateMutability": "nonpayable",
      "type": "function"
    },
    {
      "inputs": [],
      "name": "withdraw",
      "outputs": [],
      "stateMutability": "nonpayable",
      "type": "function"
    }
  ],
  "bytecode": "0x60a060405234801561001057600080fd5b50604051614c61380380614c61833981810160405281019061003291906103f9565b338484816000908161004491906106df565b50806001908161005491906106df565b505050600073ffffffffffffffffffffffffffffffffffffffff168173ffffffffffffffffffffffffffffffffffffffff16036100c95760006040517f1e4fbdf70000000000000000000000000000000000000000000000000000000081526004016100c091906107f2565b60405180910390fd5b6100d88161018860201b60201c565b506000821161011c576040517f08c379a000000000000000000000000000000000000000000000000000000000815260040161011390610890565b60405180910390fd5b6000811161015f576040517f08c379a000000000000000000000000000000000000000000000000000000000815260040161015690610922565b60405180910390fd5b816080818152505084600d908161017691906106df565b5080600c819055505050505050610942565b6000600a60009054906101000a900473ffffffffffffffffffffffffffffffffffffffff16905081600a60006101000a81548173ffffffffffffffffffffffffffffffffffffffff021916908373ffffffffffffffffffffffffffffffffffffffff1602179055508173ffffffffffffffffffffffffffffffffffffffff168173ffffffffffffffffffffffffffffffffffffffff167f8be0079c531659141344cd1fd0a4f28419497f9722a3daafe3b4186f6b6457e060405160405180910390a35050565b6000604051905090565b600080fd5b600080fd5b600080fd5b600080fd5b6000601f19601f8301169050919050565b7f4e487b7100000000000000000000000000000000000000000000000000000000600052604160045260246000fd5b6102b58261026c565b810181811067ffffffffffffffff821117156102d4576102d361027d565b5b80604052505050565b60006102e761024e565b90506102f382826102ac565b919050565b600067ffffffffffffffff8211156103135761031261027d565b5b61031c8261026c565b9050602081019050919050565b60005b8381101561034757808201518184015260208101905061032c565b60008484015250505050565b6000610366610361846102f8565b6102dd565b90508281526020810184848401111561038257610381610267565b5b61038d848285610329565b509392505050565b600082601f8301126103aa576103a9610262565b5b81516103ba848260208601610353565b91505092915050565b6000819050919050565b6103d6816103c3565b81146103e157600080fd5b50565b6000815190506103f3816103cd565b92915050565b600080600080600060a0868803121561041557610414610258565b5b600086015167ffffffffffffffff8111156104335761043261025d565b5b61043f88828901610395565b955050602086015167ffffffffffffffff8111156104605761045f61025d565b5b61046c88828901610395565b945050604086015167ffffffffffffffff81111561048d5761048c61025d565b5b61049988828901610395565b93505060606104aa888289016103e4565b92505060806104bb888289016103e4565b9150509295509295909350565b600081519050919050565b7f4e487b7100000000000000000000000000000000000000000000000000000000600052602260045260246000fd5b6000600282049050600182168061051a57607f821691505b60208210810361052d5761052c6104d3565b5b50919050565b60008190508160005260206000209050919050565b60006020601f8301049050919050565b600082821b905092915050565b6000600883026105957fffffffffffffffffffffffffffffffffffffffffffffffffffffffffffffffff82610558565b61059f8683610558565b95508019841693508086168417925050509392505050565b6000819050919050565b60006105dc6105d76105d2846103c3565b6105b7565b6103c3565b9050919050565b6000819050919050565b6105f6836105c1565b61060a610602826105e3565b848454610565565b825550505050565b600090565b61061f610612565b61062a8184846105ed565b505050565b5b8181101561064e57610643600082610617565b600181019050610630565b5050565b601f8211156106935761066481610533565b61066d84610548565b8101602085101561067c578190505b61069061068885610548565b83018261062f565b50505b505050565b600082821c905092915050565b60006106b660001984600802610698565b1980831691505092915050565b60006106cf83836106a5565b9150826002028217905092915050565b6106e8826104c8565b67ffffffffffffffff8111156107015761070061027d565b5b61070b8254610502565b610716828285610652565b600060209050601f8311600181146107495760008415610737578287015190505b61074185826106c3565b8655506107a9565b601f19841661075786610533565b60005b8281101561077f5784890151825560018201915060208501945060208101905061075a565b8683101561079c5784890151610798601f8916826106a5565b8355505b6001600288020188555050505b505050505050565b600073ffffffffffffffffffffffffffffffffffffffff82169050919050565b60006107dc826107b1565b9050919050565b6107ec816107d1565b82525050565b600060208201905061080760008301846107e3565b92915050565b600082825260208201905092915050565b7f546f74616c20737570706c79206d75737420626520677265617465722074686160008201527f6e20300000000000000000000000000000000000000000000000000000000000602082015250565b600061087a60238361080d565b91506108858261081e565b604082019050919050565b600060208201905081810360008301526108a98161086d565b9050919050565b7f4d696e74207072696365206d7573742062652067726561746572207468616e2060008201527f3000000000000000000000000000000000000000000000000000000000000000602082015250565b600061090c60218361080d565b9150610917826108b0565b604082019050919050565b6000602082019050818103600083015261093b816108ff565b9050919050565b6080516142fd6109646000396000818161082f015261167701526142fd6000f3fe6080604052600436106101c25760003560e01c80636817c76c116100f7578063a73d1b2811610095578063d89135cd11610064578063d89135cd14610633578063e8a3d4851461065e578063e985e9c514610689578063f2fde38b146106c6576101c2565b8063a73d1b2814610579578063b88d4fde146105a2578063c87b56dd146105cb578063d5abeb0114610608576101c2565b80638da5cb5b116100d15780638da5cb5b146104cf57806395d89b41146104fa578063a22cb46514610525578063a2309ff81461054e576101c2565b80636817c76c1461045057806370a082311461047b578063715018a6146104b8576101c2565b806323b872dd1161016457806342842e0e1161013e57806342842e0e1461038457806342966c68146103ad5780634f6ccce7146103d65780636352211e14610413576101c2565b806323b872dd146103075780632f745c59146103305780633ccfd60b1461036d576101c2565b8063095ea7b3116101a0578063095ea7b31461026c5780631249c58b1461029557806314adc88b1461029f57806318160ddd146102dc576101c2565b806301ffc9a7146101c757806306fdde0314610204578063081812fc1461022f575b600080fd5b3480156101d357600080fd5b506101ee60048036038101906101e99190612d13565b6106ef565b6040516101fb9190612d5b565b60405180910390f35b34801561021057600080fd5b50610219610769565b6040516102269190612e06565b60405180910390f35b34801561023b57600080fd5b5061025660048036038101906102519190612e5e565b6107fb565b6040516102639190612ecc565b60405180910390f35b34801561027857600080fd5b50610293600480360381019061028e9190612f13565b610817565b005b61029d61082d565b005b3480156102ab57600080fd5b506102c660048036038101906102c19190612f53565b61090e565b6040516102d39190612f8f565b60405180910390f35b3480156102e857600080fd5b506102f1610957565b6040516102fe9190612f8f565b60405180910390f35b34801561031357600080fd5b5061032e60048036038101906103299190612faa565b610964565b005b34801561033c57600080fd5b5061035760048036038101906103529190612f13565b610a66565b6040516103649190612f8f565b60405180910390f35b34801561037957600080fd5b50610382610b0f565b005b34801561039057600080fd5b506103ab60048036038101906103a69190612faa565b610bcd565b005b3480156103b957600080fd5b506103d460048036038101906103cf9190612e5e565b610bed565b005b3480156103e257600080fd5b506103fd60048036038101906103f89190612e5e565b610cdc565b60405161040a9190612f8f565b60405180910390f35b34801561041f57600080fd5b5061043a60048036038101906104359190612e5e565b610d52565b6040516104479190612ecc565b60405180910390f35b34801561045c57600080fd5b50610465610d64565b6040516104729190612f8f565b60405180910390f35b34801561048757600080fd5b506104a2600480360381019061049d9190612f53565b610d6a565b6040516104af9190612f8f565b60405180910390f35b3480156104c457600080fd5b506104cd610e24565b005b3480156104db57600080fd5b506104e4610e38565b6040516104f19190612ecc565b60405180910390f35b34801561050657600080fd5b5061050f610e62565b60405161051c9190612e06565b60405180910390f35b34801561053157600080fd5b5061054c60048036038101906105479190613029565b610ef4565b005b34801561055a57600080fd5b50610563610f0a565b6040516105709190612f8f565b60405180910390f35b34801561058557600080fd5b506105a0600480360381019061059b9190613284565b610f10565b005b3480156105ae57600080fd5b506105c960048036038101906105c4919061343e565b6110d3565b005b3480156105d757600080fd5b506105f260048036038101906105ed9190612e5e565b6110f8565b6040516105ff9190612e06565b60405180910390f35b34801561061457600080fd5b5061061d611675565b60405161062a9190612f8f565b60405180910390f35b34801561063f57600080fd5b50610648611699565b6040516106559190612f8f565b60405180910390f35b34801561066a57600080fd5b5061067361169f565b6040516106809190612e06565b60405180910390f35b34801561069557600080fd5b506106b060048036038101906106ab91906134c1565b611731565b6040516106bd9190612d5b565b60405180910390f35b3480156106d257600080fd5b506106ed60048036038101906106e89190612f53565b6117c5565b005b60007f780e9d63000000000000000000000000000000000000000000000000000000007bffffffffffffffffffffffffffffffffffffffffffffffffffffffff1916827bffffffffffffffffffffffffffffffffffffffffffffffffffffffff1916148061076257506107618261184b565b5b9050919050565b60606000805461077890613530565b80601f01602080910402602001604051908101604052809291908181526020018280546107a490613530565b80156107f15780601f106107c6576101008083540402835291602001916107f1565b820191906000526020600020905b8154815290600101906020018083116107d457829003601f168201915b5050505050905090565b60006108068261192d565b50610810826119b5565b9050919050565b61082982826108246119f2565b6119fa565b5050565b7f0000000000000000000000000000000000000000000000000000000000000000600b5410610891576040517f08c379a0000000000000000000000000000000000000000000000000000000008152600401610888906135ad565b60405180910390fd5b600c543410156108d6576040517f08c379a00000000000000000000000000000000000000000000000000000000081526004016108cd90613619565b60405180910390fd5b60006001600b546108e79190613668565b9050600b60008154809291906108fc9061369c565b919050555061090b3382611a0c565b50565b6000600f60008373ffffffffffffffffffffffffffffffffffffffff1673ffffffffffffffffffffffffffffffffffffffff168152602001908152602001600020549050919050565b6000600880549050905090565b600073ffffffffffffffffffffffffffffffffffffffff168273ffffffffffffffffffffffffffffffffffffffff16036109d65760006040517f64a0ae920000000000000000000000000000000000000000000000000000000081526004016109cd9190612ecc565b60405180910390fd5b60006109ea83836109e56119f2565b611a2a565b90508373ffffffffffffffffffffffffffffffffffffffff168173ffffffffffffffffffffffffffffffffffffffff1614610a60578382826040517f64283d7b000000000000000000000000000000000000000000000000000000008152600401610a57939291906136e4565b60405180910390fd5b50505050565b6000610a7183610d6a565b8210610ab65782826040517fa57d13dc000000000000000000000000000000000000000000000000000000008152600401610aad92919061371b565b60405180910390fd5b600660008473ffffffffffffffffffffffffffffffffffffffff1673ffffffffffffffffffffffffffffffffffffffff168152602001908152602001600020600083815260200190815260200160002054905092915050565b610b17611b47565b6000610b21610e38565b73ffffffffffffffffffffffffffffffffffffffff1647604051610b4490613775565b60006040518083038185875af1925050503d8060008114610b81576040519150601f19603f3d011682016040523d82523d6000602084013e610b86565b606091505b5050905080610bca576040517f08c379a0000000000000000000000000000000000000000000000000000000008152600401610bc1906137d6565b60405180910390fd5b50565b610be8838383604051806020016040528060008152506110d3565b505050565b3373ffffffffffffffffffffffffffffffffffffffff16610c0d82611bce565b73ffffffffffffffffffffffffffffffffffffffff1614610c63576040517f08c379a0000000000000000000000000000000000000000000000000000000008152600401610c5a90613842565b60405180910390fd5b600f60003373ffffffffffffffffffffffffffffffffffffffff1673ffffffffffffffffffffffffffffffffffffffff1681526020019081526020016000206000815480929190610cb39061369c565b9190505550600e6000815480929190610ccb9061369c565b9190505550610cd981611c0b565b50565b6000610ce6610957565b8210610d2c576000826040517fa57d13dc000000000000000000000000000000000000000000000000000000008152600401610d2392919061371b565b60405180910390fd5b60088281548110610d4057610d3f613862565b5b90600052602060002001549050919050565b6000610d5d8261192d565b9050919050565b600c5481565b60008073ffffffffffffffffffffffffffffffffffffffff168273ffffffffffffffffffffffffffffffffffffffff1603610ddd5760006040517f89c62b64000000000000000000000000000000000000000000000000000000008152600401610dd49190612ecc565b60405180910390fd5b600360008373ffffffffffffffffffffffffffffffffffffffff1673ffffffffffffffffffffffffffffffffffffffff168152602001908152602001600020549050919050565b610e2c611b47565b610e366000611c91565b565b6000600a60009054906101000a900473ffffffffffffffffffffffffffffffffffffffff16905090565b606060018054610e7190613530565b80601f0160208091040260200160405190810160405280929190818152602001828054610e9d90613530565b8015610eea5780601f10610ebf57610100808354040283529160200191610eea565b820191906000526020600020905b815481529060010190602001808311610ecd57829003601f168201915b5050505050905090565b610f06610eff6119f2565b8383611d57565b5050565b600b5481565b610f1986611ec6565b610f58576040517f08c379a0000000000000000000000000000000000000000000000000000000008152600401610f4f906138dd565b60405180910390fd5b3373ffffffffffffffffffffffffffffffffffffffff16610f7887611bce565b73ffffffffffffffffffffffffffffffffffffffff1614610fce576040517f08c379a0000000000000000000000000000000000000000000000000000000008152600401610fc590613949565b60405180910390fd5b8051825114611012576040517f08c379a0000000000000000000000000000000000000000000000000000000008152600401611009906139b5565b60405180910390fd5b6040518060a00160405280868152602001858152602001848152602001838152602001828152506010600088815260200190815260200160002060008201518160000190816110619190613b81565b5060208201518160010190816110779190613b81565b50604082015181600201908161108d9190613b81565b5060608201518160030190805190602001906110aa929190612bcd565b5060808201518160040190805190602001906110c7929190612bcd565b50905050505050505050565b6110de848484610964565b6110f26110e96119f2565b85858585611ee0565b50505050565b606061110382611ec6565b611142576040517f08c379a0000000000000000000000000000000000000000000000000000000008152600401611139906138dd565b60405180910390fd5b6000601060008481526020019081526020016000206040518060a001604052908160008201805461117290613530565b80601f016020809104026020016040519081016040528092919081815260200182805461119e90613530565b80156111eb5780601f106111c0576101008083540402835291602001916111eb565b820191906000526020600020905b8154815290600101906020018083116111ce57829003601f168201915b5050505050815260200160018201805461120490613530565b80601f016020809104026020016040519081016040528092919081815260200182805461123090613530565b801561127d5780601f106112525761010080835404028352916020019161127d565b820191906000526020600020905b81548152906001019060200180831161126057829003601f168201915b5050505050815260200160028201805461129690613530565b80601f01602080910402602001604051908101604052809291908181526020018280546112c290613530565b801561130f5780601f106112e45761010080835404028352916020019161130f565b820191906000526020600020905b8154815290600101906020018083116112f257829003601f168201915b5050505050815260200160038201805480602002602001604051908101604052809291908181526020016000905b828210156113e957838290600052602060002001805461135c90613530565b80601f016020809104026020016040519081016040528092919081815260200182805461138890613530565b80156113d55780601f106113aa576101008083540402835291602001916113d5565b820191906000526020600020905b8154815290600101906020018083116113b857829003601f168201915b50505050508152602001906001019061133d565b50505050815260200160048201805480602002602001604051908101604052809291908181526020016000905b828210156114c257838290600052602060002001805461143590613530565b80601f016020809104026020016040519081016040528092919081815260200182805461146190613530565b80156114ae5780601f10611483576101008083540402835291602001916114ae565b820191906000526020600020905b81548152906001019060200180831161149157829003601f168201915b505050505081526020019060010190611416565b5050505081525050905060006040518060400160405280600181526020017f5b00000000000000000000000000000000000000000000000000000000000000815250905060005b8260600151518110156115ea57818360600151828151811061152e5761152d613862565b5b60200260200101518460800151838151811061154d5761154c613862565b5b602002602001015160018660600151516115679190613c53565b84146115a8576040518060400160405280600181526020017f2c000000000000000000000000000000000000000000000000000000000000008152506115b9565b604051806020016040528060008152505b6040516020016115cc9493929190613da7565b60405160208183030381529060405291508080600101915050611509565b50806040516020016115fc9190613e52565b60405160208183030381529060405290506000826000015183602001518460400151846040516020016116329493929190613ff0565b604051602081830303815290604052905061164c81612091565b60405160200161165c91906140b1565b6040516020818303038152906040529350505050919050565b7f000000000000000000000000000000000000000000000000000000000000000081565b600e5481565b6060600d80546116ae90613530565b80601f01602080910402602001604051908101604052809291908181526020018280546116da90613530565b80156117275780601f106116fc57610100808354040283529160200191611727565b820191906000526020600020905b81548152906001019060200180831161170a57829003601f168201915b5050505050905090565b6000600560008473ffffffffffffffffffffffffffffffffffffffff1673ffffffffffffffffffffffffffffffffffffffff16815260200190815260200160002060008373ffffffffffffffffffffffffffffffffffffffff1673ffffffffffffffffffffffffffffffffffffffff16815260200190815260200160002060009054906101000a900460ff16905092915050565b6117cd611b47565b600073ffffffffffffffffffffffffffffffffffffffff168173ffffffffffffffffffffffffffffffffffffffff160361183f5760006040517f1e4fbdf70000000000000000000000000000000000000000000000000000000081526004016118369190612ecc565b60405180910390fd5b61184881611c91565b50565b60007f80ac58cd000000000000000000000000000000000000000000000000000000007bffffffffffffffffffffffffffffffffffffffffffffffffffffffff1916827bffffffffffffffffffffffffffffffffffffffffffffffffffffffff1916148061191657507f5b5e139f000000000000000000000000000000000000000000000000000000007bffffffffffffffffffffffffffffffffffffffffffffffffffffffff1916827bffffffffffffffffffffffffffffffffffffffffffffffffffffffff1916145b806119265750611925826120be565b5b9050919050565b60008061193983611bce565b9050600073ffffffffffffffffffffffffffffffffffffffff168173ffffffffffffffffffffffffffffffffffffffff16036119ac57826040517f7e2732890000000000000000000000000000000000000000000000000000000081526004016119a39190612f8f565b60405180910390fd5b80915050919050565b60006004600083815260200190815260200160002060009054906101000a900473ffffffffffffffffffffffffffffffffffffffff169050919050565b600033905090565b611a078383836001612128565b505050565b611a268282604051806020016040528060008152506122ed565b5050565b600080611a38858585612311565b9050600073ffffffffffffffffffffffffffffffffffffffff168173ffffffffffffffffffffffffffffffffffffffff1603611a7c57611a778461252b565b611abb565b8473ffffffffffffffffffffffffffffffffffffffff168173ffffffffffffffffffffffffffffffffffffffff1614611aba57611ab98185612574565b5b5b600073ffffffffffffffffffffffffffffffffffffffff168573ffffffffffffffffffffffffffffffffffffffff1603611afd57611af88461265f565b611b3c565b8473ffffffffffffffffffffffffffffffffffffffff168173ffffffffffffffffffffffffffffffffffffffff1614611b3b57611b3a8585612730565b5b5b809150509392505050565b611b4f6119f2565b73ffffffffffffffffffffffffffffffffffffffff16611b6d610e38565b73ffffffffffffffffffffffffffffffffffffffff1614611bcc57611b906119f2565b6040517f118cdaa7000000000000000000000000000000000000000000000000000000008152600401611bc39190612ecc565b60405180910390fd5b565b60006002600083815260200190815260200160002060009054906101000a900473ffffffffffffffffffffffffffffffffffffffff169050919050565b6000611c1a6000836000611a2a565b9050600073ffffffffffffffffffffffffffffffffffffffff168173ffffffffffffffffffffffffffffffffffffffff1603611c8d57816040517f7e273289000000000000000000000000000000000000000000000000000000008152600401611c849190612f8f565b60405180910390fd5b5050565b6000600a60009054906101000a900473ffffffffffffffffffffffffffffffffffffffff16905081600a60006101000a81548173ffffffffffffffffffffffffffffffffffffffff021916908373ffffffffffffffffffffffffffffffffffffffff1602179055508173ffffffffffffffffffffffffffffffffffffffff168173ffffffffffffffffffffffffffffffffffffffff167f8be0079c531659141344cd1fd0a4f28419497f9722a3daafe3b4186f6b6457e060405160405180910390a35050565b600073ffffffffffffffffffffffffffffffffffffffff168273ffffffffffffffffffffffffffffffffffffffff1603611dc857816040517f5b08ba18000000000000000000000000000000000000000000000000000000008152600401611dbf9190612ecc565b60405180910390fd5b80600560008573ffffffffffffffffffffffffffffffffffffffff1673ffffffffffffffffffffffffffffffffffffffff16815260200190815260200160002060008473ffffffffffffffffffffffffffffffffffffffff1673ffffffffffffffffffffffffffffffffffffffff16815260200190815260200160002060006101000a81548160ff0219169083151502179055508173ffffffffffffffffffffffffffffffffffffffff168373ffffffffffffffffffffffffffffffffffffffff167f17307eab39ab6107e8899845ad3d59bd9653f200f220920489ca2b5937696c3183604051611eb99190612d5b565b60405180910390a3505050565b60008082118015611ed95750600b548211155b9050919050565b60008373ffffffffffffffffffffffffffffffffffffffff163b111561208a578273ffffffffffffffffffffffffffffffffffffffff1663150b7a02868685856040518563ffffffff1660e01b8152600401611f3f9493929190614128565b6020604051808303816000875af1925050508015611f7b57506040513d601f19601f82011682018060405250810190611f789190614189565b60015b611fff573d8060008114611fab576040519150601f19603f3d011682016040523d82523d6000602084013e611fb0565b606091505b506000815103611ff757836040517f64a0ae92000000000000000000000000000000000000000000000000000000008152600401611fee9190612ecc565b60405180910390fd5b805181602001fd5b63150b7a0260e01b7bffffffffffffffffffffffffffffffffffffffffffffffffffffffff1916817bffffffffffffffffffffffffffffffffffffffffffffffffffffffff19161461208857836040517f64a0ae9200000000000000000000000000000000000000000000000000000000815260040161207f9190612ecc565b60405180910390fd5b505b5050505050565b60606120b7826040518060600160405280604081526020016142886040913960016127bb565b9050919050565b60007f01ffc9a7000000000000000000000000000000000000000000000000000000007bffffffffffffffffffffffffffffffffffffffffffffffffffffffff1916827bffffffffffffffffffffffffffffffffffffffffffffffffffffffff1916149050919050565b80806121615750600073ffffffffffffffffffffffffffffffffffffffff168273ffffffffffffffffffffffffffffffffffffffff1614155b156122955760006121718461192d565b9050600073ffffffffffffffffffffffffffffffffffffffff168373ffffffffffffffffffffffffffffffffffffffff16141580156121dc57508273ffffffffffffffffffffffffffffffffffffffff168173ffffffffffffffffffffffffffffffffffffffff1614155b80156121ef57506121ed8184611731565b155b1561223157826040517fa9fbf51f0000000000000000000000000000000000000000000000000000000081526004016122289190612ecc565b60405180910390fd5b811561229357838573ffffffffffffffffffffffffffffffffffffffff168273ffffffffffffffffffffffffffffffffffffffff167f8c5be1e5ebec7d5bd14f71427d1e84f3dd0314c0f7b2291e5b200ac8c7c3b92560405160405180910390a45b505b836004600085815260200190815260200160002060006101000a81548173ffffffffffffffffffffffffffffffffffffffff021916908373ffffffffffffffffffffffffffffffffffffffff16021790555050505050565b6122f7838361294f565b61230c6123026119f2565b6000858585611ee0565b505050565b60008061231d84611bce565b9050600073ffffffffffffffffffffffffffffffffffffffff168373ffffffffffffffffffffffffffffffffffffffff161461235f5761235e818486612a48565b5b600073ffffffffffffffffffffffffffffffffffffffff168173ffffffffffffffffffffffffffffffffffffffff16146123f0576123a1600085600080612128565b6001600360008373ffffffffffffffffffffffffffffffffffffffff1673ffffffffffffffffffffffffffffffffffffffff168152602001908152602001600020600082825403925050819055505b600073ffffffffffffffffffffffffffffffffffffffff168573ffffffffffffffffffffffffffffffffffffffff1614612473576001600360008773ffffffffffffffffffffffffffffffffffffffff1673ffffffffffffffffffffffffffffffffffffffff168152602001908152602001600020600082825401925050819055505b846002600086815260200190815260200160002060006101000a81548173ffffffffffffffffffffffffffffffffffffffff021916908373ffffffffffffffffffffffffffffffffffffffff160217905550838573ffffffffffffffffffffffffffffffffffffffff168273ffffffffffffffffffffffffffffffffffffffff167fddf252ad1be2c89b69c2b068fc378daa952ba7f163c4a11628f55a4df523b3ef60405160405180910390a4809150509392505050565b6008805490506009600083815260200190815260200160002081905550600881908060018154018082558091505060019003906000526020600020016000909190919091505550565b600061257f83610d6a565b90506000600760008481526020019081526020016000205490506000600660008673ffffffffffffffffffffffffffffffffffffffff1673ffffffffffffffffffffffffffffffffffffffff168152602001908152602001600020905082821461262b5760008160008581526020019081526020016000205490508082600085815260200190815260200160002081905550826007600083815260200190815260200160002081905550505b6007600085815260200190815260200160002060009055806000848152602001908152602001600020600090555050505050565b600060016008805490506126739190613c53565b90506000600960008481526020019081526020016000205490506000600883815481106126a3576126a2613862565b5b9060005260206000200154905080600883815481106126c5576126c4613862565b5b906000526020600020018190555081600960008381526020019081526020016000208190555060096000858152602001908152602001600020600090556008805480612714576127136141b6565b5b6001900381819060005260206000200160009055905550505050565b6000600161273d84610d6a565b6127479190613c53565b905081600660008573ffffffffffffffffffffffffffffffffffffffff1673ffffffffffffffffffffffffffffffffffffffff168152602001908152602001600020600083815260200190815260200160002081905550806007600084815260200190815260200160002081905550505050565b606060008451036127dd57604051806020016040528060008152509050612948565b60008261280f5760036002865160046127f691906141e5565b6128009190613668565b61280a9190614256565b612836565b60036002865161281f9190613668565b6128299190614256565b600461283591906141e5565b5b905060008167ffffffffffffffff81111561285457612853613073565b5b6040519080825280601f01601f1916602001820160405280156128865781602001600182028036833780820191505090505b50905060018501602082018788518901602081018051600082525b828410156128fc576003840193508351603f8160121c168701518653600186019550603f81600c1c168701518653600186019550603f8160061c168701518653600186019550603f81168701518653600186019550506128a1565b808252891561293c5760038c51066001811461291f57600281146129325761293a565b603d6001870353603d600287035361293a565b603d60018703535b505b50505050505080925050505b9392505050565b600073ffffffffffffffffffffffffffffffffffffffff168273ffffffffffffffffffffffffffffffffffffffff16036129c15760006040517f64a0ae920000000000000000000000000000000000000000000000000000000081526004016129b89190612ecc565b60405180910390fd5b60006129cf83836000611a2a565b9050600073ffffffffffffffffffffffffffffffffffffffff168173ffffffffffffffffffffffffffffffffffffffff1614612a435760006040517f73c6ac6e000000000000000000000000000000000000000000000000000000008152600401612a3a9190612ecc565b60405180910390fd5b505050565b612a53838383612b0c565b612b0757600073ffffffffffffffffffffffffffffffffffffffff168373ffffffffffffffffffffffffffffffffffffffff1603612ac857806040517f7e273289000000000000000000000000000000000000000000000000000000008152600401612abf9190612f8f565b60405180910390fd5b81816040517f177e802f000000000000000000000000000000000000000000000000000000008152600401612afe92919061371b565b60405180910390fd5b505050565b60008073ffffffffffffffffffffffffffffffffffffffff168373ffffffffffffffffffffffffffffffffffffffff1614158015612bc457508273ffffffffffffffffffffffffffffffffffffffff168473ffffffffffffffffffffffffffffffffffffffff161480612b855750612b848484611731565b5b80612bc357508273ffffffffffffffffffffffffffffffffffffffff16612bab836119b5565b73ffffffffffffffffffffffffffffffffffffffff16145b5b90509392505050565b828054828255906000526020600020908101928215612c15579160200282015b82811115612c14578251829081612c049190613b81565b5091602001919060010190612bed565b5b509050612c229190612c26565b5090565b5b80821115612c465760008181612c3d9190612c4a565b50600101612c27565b5090565b508054612c5690613530565b6000825580601f10612c685750612c87565b601f016020900490600052602060002090810190612c869190612c8a565b5b50565b5b80821115612ca3576000816000905550600101612c8b565b5090565b6000604051905090565b600080fd5b600080fd5b60007fffffffff0000000000000000000000000000000000000000000000000000000082169050919050565b612cf081612cbb565b8114612cfb57600080fd5b50565b600081359050612d0d81612ce7565b92915050565b600060208284031215612d2957612d28612cb1565b5b6000612d3784828501612cfe565b91505092915050565b60008115159050919050565b612d5581612d40565b82525050565b6000602082019050612d706000830184612d4c565b92915050565b600081519050919050565b600082825260208201905092915050565b60005b83811015612db0578082015181840152602081019050612d95565b60008484015250505050565b6000601f19601f8301169050919050565b6000612dd882612d76565b612de28185612d81565b9350612df2818560208601612d92565b612dfb81612dbc565b840191505092915050565b60006020820190508181036000830152612e208184612dcd565b905092915050565b6000819050919050565b612e3b81612e28565b8114612e4657600080fd5b50565b600081359050612e5881612e32565b92915050565b600060208284031215612e7457612e73612cb1565b5b6000612e8284828501612e49565b91505092915050565b600073ffffffffffffffffffffffffffffffffffffffff82169050919050565b6000612eb682612e8b565b9050919050565b612ec681612eab565b82525050565b6000602082019050612ee16000830184612ebd565b92915050565b612ef081612eab565b8114612efb57600080fd5b50565b600081359050612f0d81612ee7565b92915050565b60008060408385031215612f2a57612f29612cb1565b5b6000612f3885828601612efe565b9250506020612f4985828601612e49565b9150509250929050565b600060208284031215612f6957612f68612cb1565b5b6000612f7784828501612efe565b91505092915050565b612f8981612e28565b82525050565b6000602082019050612fa46000830184612f80565b92915050565b600080600060608486031215612fc357612fc2612cb1565b5b6000612fd186828701612efe565b9350506020612fe286828701612efe565b9250506040612ff386828701612e49565b9150509250925092565b61300681612d40565b811461301157600080fd5b50565b60008135905061302381612ffd565b92915050565b600080604083850312156130405761303f612cb1565b5b600061304e85828601612efe565b925050602061305f85828601613014565b9150509250929050565b600080fd5b600080fd5b7f4e487b7100000000000000000000000000000000000000000000000000000000600052604160045260246000fd5b6130ab82612dbc565b810181811067ffffffffffffffff821117156130ca576130c9613073565b5b80604052505050565b60006130dd612ca7565b90506130e982826130a2565b919050565b600067ffffffffffffffff82111561310957613108613073565b5b61311282612dbc565b9050602081019050919050565b82818337600083830152505050565b600061314161313c846130ee565b6130d3565b90508281526020810184848401111561315d5761315c61306e565b5b61316884828561311f565b509392505050565b600082601f83011261318557613184613069565b5b813561319584826020860161312e565b91505092915050565b600067ffffffffffffffff8211156131b9576131b8613073565b5b602082029050602081019050919050565b600080fd5b60006131e26131dd8461319e565b6130d3565b90508083825260208201905060208402830185811115613205576132046131ca565b5b835b8181101561324c57803567ffffffffffffffff81111561322a57613229613069565b5b8086016132378982613170565b85526020850194505050602081019050613207565b5050509392505050565b600082601f83011261326b5761326a613069565b5b813561327b8482602086016131cf565b91505092915050565b60008060008060008060c087890312156132a1576132a0612cb1565b5b60006132af89828a01612e49565b965050602087013567ffffffffffffffff8111156132d0576132cf612cb6565b5b6132dc89828a01613170565b955050604087013567ffffffffffffffff8111156132fd576132fc612cb6565b5b61330989828a01613170565b945050606087013567ffffffffffffffff81111561332a57613329612cb6565b5b61333689828a01613170565b935050608087013567ffffffffffffffff81111561335757613356612cb6565b5b61336389828a01613256565b92505060a087013567ffffffffffffffff81111561338457613383612cb6565b5b61339089828a01613256565b9150509295509295509295565b600067ffffffffffffffff8211156133b8576133b7613073565b5b6133c182612dbc565b9050602081019050919050565b60006133e16133dc8461339d565b6130d3565b9050828152602081018484840111156133fd576133fc61306e565b5b61340884828561311f565b509392505050565b600082601f83011261342557613424613069565b5b81356134358482602086016133ce565b91505092915050565b6000806000806080858703121561345857613457612cb1565b5b600061346687828801612efe565b945050602061347787828801612efe565b935050604061348887828801612e49565b925050606085013567ffffffffffffffff8111156134a9576134a8612cb6565b5b6134b587828801613410565b91505092959194509250565b600080604083850312156134d8576134d7612cb1565b5b60006134e685828601612efe565b92505060206134f785828601612efe565b9150509250929050565b7f4e487b7100000000000000000000000000000000000000000000000000000000600052602260045260246000fd5b6000600282049050600182168061354857607f821691505b60208210810361355b5761355a613501565b5b50919050565b7f4d617820737570706c7920726561636865640000000000000000000000000000600082015250565b6000613597601283612d81565b91506135a282613561565b602082019050919050565b600060208201905081810360008301526135c68161358a565b9050919050565b7f496e73756666696369656e74204554482073656e740000000000000000000000600082015250565b6000613603601583612d81565b915061360e826135cd565b602082019050919050565b60006020820190508181036000830152613632816135f6565b9050919050565b7f4e487b7100000000000000000000000000000000000000000000000000000000600052601160045260246000fd5b600061367382612e28565b915061367e83612e28565b925082820190508082111561369657613695613639565b5b92915050565b60006136a782612e28565b91507fffffffffffffffffffffffffffffffffffffffffffffffffffffffffffffffff82036136d9576136d8613639565b5b600182019050919050565b60006060820190506136f96000830186612ebd565b6137066020830185612f80565b6137136040830184612ebd565b949350505050565b60006040820190506137306000830185612ebd565b61373d6020830184612f80565b9392505050565b600081905092915050565b50565b600061375f600083613744565b915061376a8261374f565b600082019050919050565b600061378082613752565b9150819050919050565b7f5769746864726177206661696c65640000000000000000000000000000000000600082015250565b60006137c0600f83612d81565b91506137cb8261378a565b602082019050919050565b600060208201905081810360008301526137ef816137b3565b9050919050565b7f43616c6c6572206973206e6f74206f776e6572206e6f7220617070726f766564600082015250565b600061382c602083612d81565b9150613837826137f6565b602082019050919050565b6000602082019050818103600083015261385b8161381f565b9050919050565b7f4e487b7100000000000000000000000000000000000000000000000000000000600052603260045260246000fd5b7f546f6b656e20646f6573206e6f74206578697374000000000000000000000000600082015250565b60006138c7601483612d81565b91506138d282613891565b602082019050919050565b600060208201905081810360008301526138f6816138ba565b9050919050565b7f4e6f74206f776e6572206e6f7220617070726f76656400000000000000000000600082015250565b6000613933601683612d81565b915061393e826138fd565b602082019050919050565b6000602082019050818103600083015261396281613926565b9050919050565b7f5472616974206c656e677468206d69736d617463680000000000000000000000600082015250565b600061399f601583612d81565b91506139aa82613969565b602082019050919050565b600060208201905081810360008301526139ce81613992565b9050919050565b60008190508160005260206000209050919050565b60006020601f8301049050919050565b600082821b905092915050565b600060088302613a377fffffffffffffffffffffffffffffffffffffffffffffffffffffffffffffffff826139fa565b613a4186836139fa565b95508019841693508086168417925050509392505050565b6000819050919050565b6000613a7e613a79613a7484612e28565b613a59565b612e28565b9050919050565b6000819050919050565b613a9883613a63565b613aac613aa482613a85565b848454613a07565b825550505050565b600090565b613ac1613ab4565b613acc818484613a8f565b505050565b5b81811015613af057613ae5600082613ab9565b600181019050613ad2565b5050565b601f821115613b3557613b06816139d5565b613b0f846139ea565b81016020851015613b1e578190505b613b32613b2a856139ea565b830182613ad1565b50505b505050565b600082821c905092915050565b6000613b5860001984600802613b3a565b1980831691505092915050565b6000613b718383613b47565b9150826002028217905092915050565b613b8a82612d76565b67ffffffffffffffff811115613ba357613ba2613073565b5b613bad8254613530565b613bb8828285613af4565b600060209050601f831160018114613beb5760008415613bd9578287015190505b613be38582613b65565b865550613c4b565b601f198416613bf9866139d5565b60005b82811015613c2157848901518255600182019150602085019450602081019050613bfc565b86831015613c3e5784890151613c3a601f891682613b47565b8355505b6001600288020188555050505b505050505050565b6000613c5e82612e28565b9150613c6983612e28565b9250828203905081811115613c8157613c80613639565b5b92915050565b600081905092915050565b6000613c9d82612d76565b613ca78185613c87565b9350613cb7818560208601612d92565b80840191505092915050565b7f7b2274726169745f74797065223a220000000000000000000000000000000000600082015250565b6000613cf9600f83613c87565b9150613d0482613cc3565b600f82019050919050565b7f222c2276616c7565223a22000000000000000000000000000000000000000000600082015250565b6000613d45600b83613c87565b9150613d5082613d0f565b600b82019050919050565b7f227d000000000000000000000000000000000000000000000000000000000000600082015250565b6000613d91600283613c87565b9150613d9c82613d5b565b600282019050919050565b6000613db38287613c92565b9150613dbe82613cec565b9150613dca8286613c92565b9150613dd582613d38565b9150613de18285613c92565b9150613dec82613d84565b9150613df88284613c92565b915081905095945050505050565b7f5d00000000000000000000000000000000000000000000000000000000000000600082015250565b6000613e3c600183613c87565b9150613e4782613e06565b600182019050919050565b6000613e5e8284613c92565b9150613e6982613e2f565b915081905092915050565b7f7b226e616d65223a220000000000000000000000000000000000000000000000600082015250565b6000613eaa600983613c87565b9150613eb582613e74565b600982019050919050565b7f222c226465736372697074696f6e223a22000000000000000000000000000000600082015250565b6000613ef6601183613c87565b9150613f0182613ec0565b601182019050919050565b7f222c22696d616765223a22000000000000000000000000000000000000000000600082015250565b6000613f42600b83613c87565b9150613f4d82613f0c565b600b82019050919050565b7f222c2261747472696275746573223a0000000000000000000000000000000000600082015250565b6000613f8e600f83613c87565b9150613f9982613f58565b600f82019050919050565b7f7d00000000000000000000000000000000000000000000000000000000000000600082015250565b6000613fda600183613c87565b9150613fe582613fa4565b600182019050919050565b6000613ffb82613e9d565b91506140078287613c92565b915061401282613ee9565b915061401e8286613c92565b915061402982613f35565b91506140358285613c92565b915061404082613f81565b915061404c8284613c92565b915061405782613fcd565b915081905095945050505050565b7f646174613a6170706c69636174696f6e2f6a736f6e3b6261736536342c000000600082015250565b600061409b601d83613c87565b91506140a682614065565b601d82019050919050565b60006140bc8261408e565b91506140c88284613c92565b915081905092915050565b600081519050919050565b600082825260208201905092915050565b60006140fa826140d3565b61410481856140de565b9350614114818560208601612d92565b61411d81612dbc565b840191505092915050565b600060808201905061413d6000830187612ebd565b61414a6020830186612ebd565b6141576040830185612f80565b818103606083015261416981846140ef565b905095945050505050565b60008151905061418381612ce7565b92915050565b60006020828403121561419f5761419e612cb1565b5b60006141ad84828501614174565b91505092915050565b7f4e487b7100000000000000000000000000000000000000000000000000000000600052603160045260246000fd5b60006141f082612e28565b91506141fb83612e28565b925082820261420981612e28565b915082820484148315176142205761421f613639565b5b5092915050565b7f4e487b7100000000000000000000000000000000000000000000000000000000600052601260045260246000fd5b600061426182612e28565b915061426c83612e28565b92508261427c5761427b614227565b5b82820490509291505056fe4142434445464748494a4b4c4d4e4f505152535455565758595a6162636465666768696a6b6c6d6e6f707172737475767778797a303132333435363738392b2fa264697066735822122037325b9777a7380ea231ce361f9c1ec4306efc3c43255410a9ec98329627f60464736f6c634300081c0033",
  "linkReferences": {},
  "deployedLinkReferences": {}
}