{
  "_format": "hh-sol-artifact-1",
  "contractName": "Collection",
  "sourceName": "contracts/Collection.sol",
  "abi": [
    {
      "inputs": [
        {
          "internalType": "string",
          "name": "name",
          "type": "string"
        },
        {
          "internalType": "string",
          "name": "symbol",
          "type": "string"
        }
      ],
      "stateMutability": "nonpayable",
      "type": "constructor"
    },
    {
      "inputs": [],
      "name": "ERC721EnumerableForbiddenBatchMint",
      "type": "error"
    },
    {
      "inputs": [
        {
          "internalType": "address",
          "name": "sender",
          "type": "address"
        },
        {
          "internalType": "uint256",
          "name": "tokenId",
          "type": "uint256"
        },
        {
          "internalType": "address",
          "name": "owner",
          "type": "address"
        }
      ],
      "name": "ERC721IncorrectOwner",
      "type": "error"
    },
    {
      "inputs": [
        {
          "internalType": "address",
          "name": "operator",
          "type": "address"
        },
        {
          "internalType": "uint256",
          "name": "tokenId",
          "type": "uint256"
        }
      ],
      "name": "ERC721InsufficientApproval",
      "type": "error"
    },
    {
      "inputs": [
        {
          "internalType": "address",
          "name": "approver",
          "type": "address"
        }
      ],
      "name": "ERC721InvalidApprover",
      "type": "error"
    },
    {
      "inputs": [
        {
          "internalType": "address",
          "name": "operator",
          "type": "address"
        }
      ],
      "name": "ERC721InvalidOperator",
      "type": "error"
    },
    {
      "inputs": [
        {
          "internalType": "address",
          "name": "owner",
          "type": "address"
        }
      ],
      "name": "ERC721InvalidOwner",
      "type": "error"
    },
    {
      "inputs": [
        {
          "internalType": "address",
          "name": "receiver",
          "type": "address"
        }
      ],
      "name": "ERC721InvalidReceiver",
      "type": "error"
    },
    {
      "inputs": [
        {
          "internalType": "address",
          "name": "sender",
          "type": "address"
        }
      ],
      "name": "ERC721InvalidSender",
      "type": "error"
    },
    {
      "inputs": [
        {
          "internalType": "uint256",
          "name": "tokenId",
          "type": "uint256"
        }
      ],
      "name": "ERC721NonexistentToken",
      "type": "error"
    },
    {
      "inputs": [
        {
          "internalType": "address",
          "name": "owner",
          "type": "address"
        },
        {
          "internalType": "uint256",
          "name": "index",
          "type": "uint256"
        }
      ],
      "name": "ERC721OutOfBoundsIndex",
      "type": "error"
    },
    {
      "inputs": [
        {
          "internalType": "address",
          "name": "owner",
          "type": "address"
        }
      ],
      "name": "OwnableInvalidOwner",
      "type": "error"
    },
    {
      "inputs": [
        {
          "internalType": "address",
          "name": "account",
          "type": "address"
        }
      ],
      "name": "OwnableUnauthorizedAccount",
      "type": "error"
    },
    {
      "anonymous": false,
      "inputs": [
        {
          "indexed": true,
          "internalType": "address",
          "name": "owner",
          "type": "address"
        },
        {
          "indexed": true,
          "internalType": "address",
          "name": "approved",
          "type": "address"
        },
        {
          "indexed": true,
          "internalType": "uint256",
          "name": "tokenId",
          "type": "uint256"
        }
      ],
      "name": "Approval",
      "type": "event"
    },
    {
      "anonymous": false,
      "inputs": [
        {
          "indexed": true,
          "internalType": "address",
          "name": "owner",
          "type": "address"
        },
        {
          "indexed": true,
          "internalType": "address",
          "name": "operator",
          "type": "address"
        },
        {
          "indexed": false,
          "internalType": "bool",
          "name": "approved",
          "type": "bool"
        }
      ],
      "name": "ApprovalForAll",
      "type": "event"
    },
    {
      "anonymous": false,
      "inputs": [
        {
          "indexed": true,
          "internalType": "address",
          "name": "previousOwner",
          "type": "address"
        },
        {
          "indexed": true,
          "internalType": "address",
          "name": "newOwner",
          "type": "address"
        }
      ],
      "name": "OwnershipTransferred",
      "type": "event"
    },
    {
      "anonymous": false,
      "inputs": [
        {
          "indexed": true,
          "internalType": "address",
          "name": "from",
          "type": "address"
        },
        {
          "indexed": true,
          "internalType": "address",
          "name": "to",
          "type": "address"
        },
        {
          "indexed": true,
          "internalType": "uint256",
          "name": "tokenId",
          "type": "uint256"
        }
      ],
      "name": "Transfer",
      "type": "event"
    },
    {
      "inputs": [
        {
          "internalType": "address",
          "name": "to",
          "type": "address"
        },
        {
          "internalType": "uint256",
          "name": "tokenId",
          "type": "uint256"
        }
      ],
      "name": "approve",
      "outputs": [],
      "stateMutability": "nonpayable",
      "type": "function"
    },
    {
      "inputs": [
        {
          "internalType": "address",
          "name": "owner",
          "type": "address"
        }
      ],
      "name": "balanceOf",
      "outputs": [
        {
          "internalType": "uint256",
          "name": "",
          "type": "uint256"
        }
      ],
      "stateMutability": "view",
      "type": "function"
    },
    {
      "inputs": [
        {
          "internalType": "uint256",
          "name": "tokenId",
          "type": "uint256"
        }
      ],
      "name": "getApproved",
      "outputs": [
        {
          "internalType": "address",
          "name": "",
          "type": "address"
        }
      ],
      "stateMutability": "view",
      "type": "function"
    },
    {
      "inputs": [
        {
          "internalType": "uint256",
          "name": "tokenId",
          "type": "uint256"
        }
      ],
      "name": "getMetadata",
      "outputs": [
        {
          "internalType": "string",
          "name": "",
          "type": "string"
        },
        {
          "internalType": "string",
          "name": "",
          "type": "string"
        },
        {
          "internalType": "string",
          "name": "",
          "type": "string"
        }
      ],
      "stateMutability": "view",
      "type": "function"
    },
    {
      "inputs": [
        {
          "internalType": "address",
          "name": "owner",
          "type": "address"
        },
        {
          "internalType": "address",
          "name": "operator",
          "type": "address"
        }
      ],
      "name": "isApprovedForAll",
      "outputs": [
        {
          "internalType": "bool",
          "name": "",
          "type": "bool"
        }
      ],
      "stateMutability": "view",
      "type": "function"
    },
    {
      "inputs": [
        {
          "internalType": "string",
          "name": "name",
          "type": "string"
        },
        {
          "internalType": "string",
          "name": "description",
          "type": "string"
        },
        {
          "internalType": "string",
          "name": "attributes",
          "type": "string"
        }
      ],
      "name": "mint",
      "outputs": [],
      "stateMutability": "nonpayable",
      "type": "function"
    },
    {
      "inputs": [],
      "name": "name",
      "outputs": [
        {
          "internalType": "string",
          "name": "",
          "type": "string"
        }
      ],
      "stateMutability": "view",
      "type": "function"
    },
    {
      "inputs": [],
      "name": "owner",
      "outputs": [
        {
          "internalType": "address",
          "name": "",
          "type": "address"
        }
      ],
      "stateMutability": "view",
      "type": "function"
    },
    {
      "inputs": [
        {
          "internalType": "uint256",
          "name": "tokenId",
          "type": "uint256"
        }
      ],
      "name": "ownerOf",
      "outputs": [
        {
          "internalType": "address",
          "name": "",
          "type": "address"
        }
      ],
      "stateMutability": "view",
      "type": "function"
    },
    {
      "inputs": [],
      "name": "renounceOwnership",
      "outputs": [],
      "stateMutability": "nonpayable",
      "type": "function"
    },
    {
      "inputs": [
        {
          "internalType": "address",
          "name": "from",
          "type": "address"
        },
        {
          "internalType": "address",
          "name": "to",
          "type": "address"
        },
        {
          "internalType": "uint256",
          "name": "tokenId",
          "type": "uint256"
        }
      ],
      "name": "safeTransferFrom",
      "outputs": [],
      "stateMutability": "nonpayable",
      "type": "function"
    },
    {
      "inputs": [
        {
          "internalType": "address",
          "name": "from",
          "type": "address"
        },
        {
          "internalType": "address",
          "name": "to",
          "type": "address"
        },
        {
          "internalType": "uint256",
          "name": "tokenId",
          "type": "uint256"
        },
        {
          "internalType": "bytes",
          "name": "data",
          "type": "bytes"
        }
      ],
      "name": "safeTransferFrom",
      "outputs": [],
      "stateMutability": "nonpayable",
      "type": "function"
    },
    {
      "inputs": [
        {
          "internalType": "address",
          "name": "operator",
          "type": "address"
        },
        {
          "internalType": "bool",
          "name": "approved",
          "type": "bool"
        }
      ],
      "name": "setApprovalForAll",
      "outputs": [],
      "stateMutability": "nonpayable",
      "type": "function"
    },
    {
      "inputs": [
        {
          "internalType": "bytes4",
          "name": "interfaceId",
          "type": "bytes4"
        }
      ],
      "name": "supportsInterface",
      "outputs": [
        {
          "internalType": "bool",
          "name": "",
          "type": "bool"
        }
      ],
      "stateMutability": "view",
      "type": "function"
    },
    {
      "inputs": [],
      "name": "symbol",
      "outputs": [
        {
          "internalType": "string",
          "name": "",
          "type": "string"
        }
      ],
      "stateMutability": "view",
      "type": "function"
    },
    {
      "inputs": [
        {
          "internalType": "uint256",
          "name": "index",
          "type": "uint256"
        }
      ],
      "name": "tokenByIndex",
      "outputs": [
        {
          "internalType": "uint256",
          "name": "",
          "type": "uint256"
        }
      ],
      "stateMutability": "view",
      "type": "function"
    },
    {
      "inputs": [
        {
          "internalType": "address",
          "name": "owner",
          "type": "address"
        },
        {
          "internalType": "uint256",
          "name": "index",
          "type": "uint256"
        }
      ],
      "name": "tokenOfOwnerByIndex",
      "outputs": [
        {
          "internalType": "uint256",
          "name": "",
          "type": "uint256"
        }
      ],
      "stateMutability": "view",
      "type": "function"
    },
    {
      "inputs": [
        {
          "internalType": "uint256",
          "name": "tokenId",
          "type": "uint256"
        }
      ],
      "name": "tokenURI",
      "outputs": [
        {
          "internalType": "string",
          "name": "",
          "type": "string"
        }
      ],
      "stateMutability": "view",
      "type": "function"
    },
    {
      "inputs": [],
      "name": "totalSupply",
      "outputs": [
        {
          "internalType": "uint256",
          "name": "",
          "type": "uint256"
        }
      ],
      "stateMutability": "view",
      "type": "function"
    },
    {
      "inputs": [
        {
          "internalType": "address",
          "name": "from",
          "type": "address"
        },
        {
          "internalType": "address",
          "name": "to",
          "type": "address"
        },
        {
          "internalType": "uint256",
          "name": "tokenId",
          "type": "uint256"
        }
      ],
      "name": "transferFrom",
      "outputs": [],
      "stateMutability": "nonpayable",
      "type": "function"
    },
    {
      "inputs": [
        {
          "internalType": "address",
          "name": "newOwner",
          "type": "address"
        }
      ],
      "name": "transferOwnership",
      "outputs": [],
      "stateMutability": "nonpayable",
      "type": "function"
    }
  ],
  "bytecode": "0x608060405234801561001057600080fd5b5060405161360f38038061360f8339818101604052810190610032919061031b565b338282816000908161004491906105b4565b50806001908161005491906105b4565b505050600073ffffffffffffffffffffffffffffffffffffffff168173ffffffffffffffffffffffffffffffffffffffff16036100c95760006040517f1e4fbdf70000000000000000000000000000000000000000000000000000000081526004016100c091906106c7565b60405180910390fd5b6100d8816100e060201b60201c565b5050506106e2565b6000600a60009054906101000a900473ffffffffffffffffffffffffffffffffffffffff16905081600a60006101000a81548173ffffffffffffffffffffffffffffffffffffffff021916908373ffffffffffffffffffffffffffffffffffffffff1602179055508173ffffffffffffffffffffffffffffffffffffffff168173ffffffffffffffffffffffffffffffffffffffff167f8be0079c531659141344cd1fd0a4f28419497f9722a3daafe3b4186f6b6457e060405160405180910390a35050565b6000604051905090565b600080fd5b600080fd5b600080fd5b600080fd5b6000601f19601f8301169050919050565b7f4e487b7100000000000000000000000000000000000000000000000000000000600052604160045260246000fd5b61020d826101c4565b810181811067ffffffffffffffff8211171561022c5761022b6101d5565b5b80604052505050565b600061023f6101a6565b905061024b8282610204565b919050565b600067ffffffffffffffff82111561026b5761026a6101d5565b5b610274826101c4565b9050602081019050919050565b60005b8381101561029f578082015181840152602081019050610284565b60008484015250505050565b60006102be6102b984610250565b610235565b9050828152602081018484840111156102da576102d96101bf565b5b6102e5848285610281565b509392505050565b600082601f830112610302576103016101ba565b5b81516103128482602086016102ab565b91505092915050565b60008060408385031215610332576103316101b0565b5b600083015167ffffffffffffffff8111156103505761034f6101b5565b5b61035c858286016102ed565b925050602083015167ffffffffffffffff81111561037d5761037c6101b5565b5b610389858286016102ed565b9150509250929050565b600081519050919050565b7f4e487b7100000000000000000000000000000000000000000000000000000000600052602260045260246000fd5b600060028204905060018216806103e557607f821691505b6020821081036103f8576103f761039e565b5b50919050565b60008190508160005260206000209050919050565b60006020601f8301049050919050565b600082821b905092915050565b6000600883026104607fffffffffffffffffffffffffffffffffffffffffffffffffffffffffffffffff82610423565b61046a8683610423565b95508019841693508086168417925050509392505050565b6000819050919050565b6000819050919050565b60006104b16104ac6104a784610482565b61048c565b610482565b9050919050565b6000819050919050565b6104cb83610496565b6104df6104d7826104b8565b848454610430565b825550505050565b600090565b6104f46104e7565b6104ff8184846104c2565b505050565b5b81811015610523576105186000826104ec565b600181019050610505565b5050565b601f82111561056857610539816103fe565b61054284610413565b81016020851015610551578190505b61056561055d85610413565b830182610504565b50505b505050565b600082821c905092915050565b600061058b6000198460080261056d565b1980831691505092915050565b60006105a4838361057a565b9150826002028217905092915050565b6105bd82610393565b67ffffffffffffffff8111156105d6576105d56101d5565b5b6105e082546103cd565b6105eb828285610527565b600060209050601f83116001811461061e576000841561060c578287015190505b6106168582610598565b86555061067e565b601f19841661062c866103fe565b60005b828110156106545784890151825560018201915060208501945060208101905061062f565b86831015610671578489015161066d601f89168261057a565b8355505b6001600288020188555050505b505050505050565b600073ffffffffffffffffffffffffffffffffffffffff82169050919050565b60006106b182610686565b9050919050565b6106c1816106a6565b82525050565b60006020820190506106dc60008301846106b8565b92915050565b612f1e806106f16000396000f3fe608060405234801561001057600080fd5b50600436106101375760003560e01c806370a08231116100b8578063a574cea41161007c578063a574cea41461034e578063b88d4fde14610380578063c87b56dd1461039c578063d645ddf6146103cc578063e985e9c5146103e8578063f2fde38b1461041857610137565b806370a08231146102bc578063715018a6146102ec5780638da5cb5b146102f657806395d89b4114610314578063a22cb4651461033257610137565b806323b872dd116100ff57806323b872dd146101f45780632f745c591461021057806342842e0e146102405780634f6ccce71461025c5780636352211e1461028c57610137565b806301ffc9a71461013c57806306fdde031461016c578063081812fc1461018a578063095ea7b3146101ba57806318160ddd146101d6575b600080fd5b610156600480360381019061015191906121e1565b610434565b6040516101639190612229565b60405180910390f35b6101746104ae565b60405161018191906122d4565b60405180910390f35b6101a4600480360381019061019f919061232c565b610540565b6040516101b1919061239a565b60405180910390f35b6101d460048036038101906101cf91906123e1565b61055c565b005b6101de610572565b6040516101eb9190612430565b60405180910390f35b61020e6004803603810190610209919061244b565b61057f565b005b61022a600480360381019061022591906123e1565b610681565b6040516102379190612430565b60405180910390f35b61025a6004803603810190610255919061244b565b61072a565b005b6102766004803603810190610271919061232c565b61074a565b6040516102839190612430565b60405180910390f35b6102a660048036038101906102a1919061232c565b6107c0565b6040516102b3919061239a565b60405180910390f35b6102d660048036038101906102d1919061249e565b6107d2565b6040516102e39190612430565b60405180910390f35b6102f461088c565b005b6102fe6108a0565b60405161030b919061239a565b60405180910390f35b61031c6108ca565b60405161032991906122d4565b60405180910390f35b61034c600480360381019061034791906124f7565b61095c565b005b6103686004803603810190610363919061232c565b610972565b60405161037793929190612537565b60405180910390f35b61039a600480360381019061039591906126b8565b610bb4565b005b6103b660048036038101906103b1919061232c565b610bd9565b6040516103c391906122d4565b60405180910390f35b6103e660048036038101906103e191906127dc565b610c42565b005b61040260048036038101906103fd9190612883565b610ce8565b60405161040f9190612229565b60405180910390f35b610432600480360381019061042d919061249e565b610d7c565b005b60007f780e9d63000000000000000000000000000000000000000000000000000000007bffffffffffffffffffffffffffffffffffffffffffffffffffffffff1916827bffffffffffffffffffffffffffffffffffffffffffffffffffffffff191614806104a757506104a682610e02565b5b9050919050565b6060600080546104bd906128f2565b80601f01602080910402602001604051908101604052809291908181526020018280546104e9906128f2565b80156105365780601f1061050b57610100808354040283529160200191610536565b820191906000526020600020905b81548152906001019060200180831161051957829003601f168201915b5050505050905090565b600061054b82610ee4565b5061055582610f6c565b9050919050565b61056e8282610569610fa9565b610fb1565b5050565b6000600880549050905090565b600073ffffffffffffffffffffffffffffffffffffffff168273ffffffffffffffffffffffffffffffffffffffff16036105f15760006040517f64a0ae920000000000000000000000000000000000000000000000000000000081526004016105e8919061239a565b60405180910390fd5b60006106058383610600610fa9565b610fc3565b90508373ffffffffffffffffffffffffffffffffffffffff168173ffffffffffffffffffffffffffffffffffffffff161461067b578382826040517f64283d7b00000000000000000000000000000000000000000000000000000000815260040161067293929190612923565b60405180910390fd5b50505050565b600061068c836107d2565b82106106d15782826040517fa57d13dc0000000000000000000000000000000000000000000000000000000081526004016106c892919061295a565b60405180910390fd5b600660008473ffffffffffffffffffffffffffffffffffffffff1673ffffffffffffffffffffffffffffffffffffffff168152602001908152602001600020600083815260200190815260200160002054905092915050565b61074583838360405180602001604052806000815250610bb4565b505050565b6000610754610572565b821061079a576000826040517fa57d13dc00000000000000000000000000000000000000000000000000000000815260040161079192919061295a565b60405180910390fd5b600882815481106107ae576107ad612983565b5b90600052602060002001549050919050565b60006107cb82610ee4565b9050919050565b60008073ffffffffffffffffffffffffffffffffffffffff168273ffffffffffffffffffffffffffffffffffffffff16036108455760006040517f89c62b6400000000000000000000000000000000000000000000000000000000815260040161083c919061239a565b60405180910390fd5b600360008373ffffffffffffffffffffffffffffffffffffffff1673ffffffffffffffffffffffffffffffffffffffff168152602001908152602001600020549050919050565b6108946110e0565b61089e6000611167565b565b6000600a60009054906101000a900473ffffffffffffffffffffffffffffffffffffffff16905090565b6060600180546108d9906128f2565b80601f0160208091040260200160405190810160405280929190818152602001828054610905906128f2565b80156109525780601f1061092757610100808354040283529160200191610952565b820191906000526020600020905b81548152906001019060200180831161093557829003601f168201915b5050505050905090565b61096e610967610fa9565b838361122d565b5050565b60608060606109808461139c565b6109bf576040517f08c379a00000000000000000000000000000000000000000000000000000000081526004016109b6906129fe565b60405180910390fd5b6000600b60008681526020019081526020016000206040518060600160405290816000820180546109ef906128f2565b80601f0160208091040260200160405190810160405280929190818152602001828054610a1b906128f2565b8015610a685780601f10610a3d57610100808354040283529160200191610a68565b820191906000526020600020905b815481529060010190602001808311610a4b57829003601f168201915b50505050508152602001600182018054610a81906128f2565b80601f0160208091040260200160405190810160405280929190818152602001828054610aad906128f2565b8015610afa5780601f10610acf57610100808354040283529160200191610afa565b820191906000526020600020905b815481529060010190602001808311610add57829003601f168201915b50505050508152602001600282018054610b13906128f2565b80601f0160208091040260200160405190810160405280929190818152602001828054610b3f906128f2565b8015610b8c5780601f10610b6157610100808354040283529160200191610b8c565b820191906000526020600020905b815481529060010190602001808311610b6f57829003601f168201915b5050505050815250509050806000015181602001518260400151935093509350509193909250565b610bbf84848461057f565b610bd3610bca610fa9565b858585856113b6565b50505050565b6060610be482610ee4565b506000610bef611567565b90506000815111610c0f5760405180602001604052806000815250610c3a565b80610c198461157e565b604051602001610c2a929190612a5a565b6040516020818303038152906040525b915050919050565b610c4a6110e0565b6000600c6000815480929190610c5f90612aad565b919050559050610c6f338261164c565b604051806060016040528085815260200184815260200183815250600b60008381526020019081526020016000206000820151816000019081610cb29190612ca1565b506020820151816001019081610cc89190612ca1565b506040820151816002019081610cde9190612ca1565b5090505050505050565b6000600560008473ffffffffffffffffffffffffffffffffffffffff1673ffffffffffffffffffffffffffffffffffffffff16815260200190815260200160002060008373ffffffffffffffffffffffffffffffffffffffff1673ffffffffffffffffffffffffffffffffffffffff16815260200190815260200160002060009054906101000a900460ff16905092915050565b610d846110e0565b600073ffffffffffffffffffffffffffffffffffffffff168173ffffffffffffffffffffffffffffffffffffffff1603610df65760006040517f1e4fbdf7000000000000000000000000000000000000000000000000000000008152600401610ded919061239a565b60405180910390fd5b610dff81611167565b50565b60007f80ac58cd000000000000000000000000000000000000000000000000000000007bffffffffffffffffffffffffffffffffffffffffffffffffffffffff1916827bffffffffffffffffffffffffffffffffffffffffffffffffffffffff19161480610ecd57507f5b5e139f000000000000000000000000000000000000000000000000000000007bffffffffffffffffffffffffffffffffffffffffffffffffffffffff1916827bffffffffffffffffffffffffffffffffffffffffffffffffffffffff1916145b80610edd5750610edc8261166a565b5b9050919050565b600080610ef0836116d4565b9050600073ffffffffffffffffffffffffffffffffffffffff168173ffffffffffffffffffffffffffffffffffffffff1603610f6357826040517f7e273289000000000000000000000000000000000000000000000000000000008152600401610f5a9190612430565b60405180910390fd5b80915050919050565b60006004600083815260200190815260200160002060009054906101000a900473ffffffffffffffffffffffffffffffffffffffff169050919050565b600033905090565b610fbe8383836001611711565b505050565b600080610fd18585856118d6565b9050600073ffffffffffffffffffffffffffffffffffffffff168173ffffffffffffffffffffffffffffffffffffffff16036110155761101084611af0565b611054565b8473ffffffffffffffffffffffffffffffffffffffff168173ffffffffffffffffffffffffffffffffffffffff1614611053576110528185611b39565b5b5b600073ffffffffffffffffffffffffffffffffffffffff168573ffffffffffffffffffffffffffffffffffffffff16036110965761109184611c24565b6110d5565b8473ffffffffffffffffffffffffffffffffffffffff168173ffffffffffffffffffffffffffffffffffffffff16146110d4576110d38585611cf5565b5b5b809150509392505050565b6110e8610fa9565b73ffffffffffffffffffffffffffffffffffffffff166111066108a0565b73ffffffffffffffffffffffffffffffffffffffff161461116557611129610fa9565b6040517f118cdaa700000000000000000000000000000000000000000000000000000000815260040161115c919061239a565b60405180910390fd5b565b6000600a60009054906101000a900473ffffffffffffffffffffffffffffffffffffffff16905081600a60006101000a81548173ffffffffffffffffffffffffffffffffffffffff021916908373ffffffffffffffffffffffffffffffffffffffff1602179055508173ffffffffffffffffffffffffffffffffffffffff168173ffffffffffffffffffffffffffffffffffffffff167f8be0079c531659141344cd1fd0a4f28419497f9722a3daafe3b4186f6b6457e060405160405180910390a35050565b600073ffffffffffffffffffffffffffffffffffffffff168273ffffffffffffffffffffffffffffffffffffffff160361129e57816040517f5b08ba18000000000000000000000000000000000000000000000000000000008152600401611295919061239a565b60405180910390fd5b80600560008573ffffffffffffffffffffffffffffffffffffffff1673ffffffffffffffffffffffffffffffffffffffff16815260200190815260200160002060008473ffffffffffffffffffffffffffffffffffffffff1673ffffffffffffffffffffffffffffffffffffffff16815260200190815260200160002060006101000a81548160ff0219169083151502179055508173ffffffffffffffffffffffffffffffffffffffff168373ffffffffffffffffffffffffffffffffffffffff167f17307eab39ab6107e8899845ad3d59bd9653f200f220920489ca2b5937696c318360405161138f9190612229565b60405180910390a3505050565b600080821180156113af5750600c548211155b9050919050565b60008373ffffffffffffffffffffffffffffffffffffffff163b1115611560578273ffffffffffffffffffffffffffffffffffffffff1663150b7a02868685856040518563ffffffff1660e01b81526004016114159493929190612dc8565b6020604051808303816000875af192505050801561145157506040513d601f19601f8201168201806040525081019061144e9190612e29565b60015b6114d5573d8060008114611481576040519150601f19603f3d011682016040523d82523d6000602084013e611486565b606091505b5060008151036114cd57836040517f64a0ae920000000000000000000000000000000000000000000000000000000081526004016114c4919061239a565b60405180910390fd5b805181602001fd5b63150b7a0260e01b7bffffffffffffffffffffffffffffffffffffffffffffffffffffffff1916817bffffffffffffffffffffffffffffffffffffffffffffffffffffffff19161461155e57836040517f64a0ae92000000000000000000000000000000000000000000000000000000008152600401611555919061239a565b60405180910390fd5b505b5050505050565b606060405180602001604052806000815250905090565b60606000600161158d84611d80565b01905060008167ffffffffffffffff8111156115ac576115ab61258d565b5b6040519080825280601f01601f1916602001820160405280156115de5781602001600182028036833780820191505090505b509050600082602001820190505b600115611641578080600190039150507f3031323334353637383961626364656600000000000000000000000000000000600a86061a8153600a858161163557611634612e56565b5b049450600085036115ec575b819350505050919050565b611666828260405180602001604052806000815250611ed3565b5050565b60007f01ffc9a7000000000000000000000000000000000000000000000000000000007bffffffffffffffffffffffffffffffffffffffffffffffffffffffff1916827bffffffffffffffffffffffffffffffffffffffffffffffffffffffff1916149050919050565b60006002600083815260200190815260200160002060009054906101000a900473ffffffffffffffffffffffffffffffffffffffff169050919050565b808061174a5750600073ffffffffffffffffffffffffffffffffffffffff168273ffffffffffffffffffffffffffffffffffffffff1614155b1561187e57600061175a84610ee4565b9050600073ffffffffffffffffffffffffffffffffffffffff168373ffffffffffffffffffffffffffffffffffffffff16141580156117c557508273ffffffffffffffffffffffffffffffffffffffff168173ffffffffffffffffffffffffffffffffffffffff1614155b80156117d857506117d68184610ce8565b155b1561181a57826040517fa9fbf51f000000000000000000000000000000000000000000000000000000008152600401611811919061239a565b60405180910390fd5b811561187c57838573ffffffffffffffffffffffffffffffffffffffff168273ffffffffffffffffffffffffffffffffffffffff167f8c5be1e5ebec7d5bd14f71427d1e84f3dd0314c0f7b2291e5b200ac8c7c3b92560405160405180910390a45b505b836004600085815260200190815260200160002060006101000a81548173ffffffffffffffffffffffffffffffffffffffff021916908373ffffffffffffffffffffffffffffffffffffffff16021790555050505050565b6000806118e2846116d4565b9050600073ffffffffffffffffffffffffffffffffffffffff168373ffffffffffffffffffffffffffffffffffffffff161461192457611923818486611ef7565b5b600073ffffffffffffffffffffffffffffffffffffffff168173ffffffffffffffffffffffffffffffffffffffff16146119b557611966600085600080611711565b6001600360008373ffffffffffffffffffffffffffffffffffffffff1673ffffffffffffffffffffffffffffffffffffffff168152602001908152602001600020600082825403925050819055505b600073ffffffffffffffffffffffffffffffffffffffff168573ffffffffffffffffffffffffffffffffffffffff1614611a38576001600360008773ffffffffffffffffffffffffffffffffffffffff1673ffffffffffffffffffffffffffffffffffffffff168152602001908152602001600020600082825401925050819055505b846002600086815260200190815260200160002060006101000a81548173ffffffffffffffffffffffffffffffffffffffff021916908373ffffffffffffffffffffffffffffffffffffffff160217905550838573ffffffffffffffffffffffffffffffffffffffff168273ffffffffffffffffffffffffffffffffffffffff167fddf252ad1be2c89b69c2b068fc378daa952ba7f163c4a11628f55a4df523b3ef60405160405180910390a4809150509392505050565b6008805490506009600083815260200190815260200160002081905550600881908060018154018082558091505060019003906000526020600020016000909190919091505550565b6000611b44836107d2565b90506000600760008481526020019081526020016000205490506000600660008673ffffffffffffffffffffffffffffffffffffffff1673ffffffffffffffffffffffffffffffffffffffff1681526020019081526020016000209050828214611bf05760008160008581526020019081526020016000205490508082600085815260200190815260200160002081905550826007600083815260200190815260200160002081905550505b6007600085815260200190815260200160002060009055806000848152602001908152602001600020600090555050505050565b60006001600880549050611c389190612e85565b9050600060096000848152602001908152602001600020549050600060088381548110611c6857611c67612983565b5b906000526020600020015490508060088381548110611c8a57611c89612983565b5b906000526020600020018190555081600960008381526020019081526020016000208190555060096000858152602001908152602001600020600090556008805480611cd957611cd8612eb9565b5b6001900381819060005260206000200160009055905550505050565b60006001611d02846107d2565b611d0c9190612e85565b905081600660008573ffffffffffffffffffffffffffffffffffffffff1673ffffffffffffffffffffffffffffffffffffffff168152602001908152602001600020600083815260200190815260200160002081905550806007600084815260200190815260200160002081905550505050565b600080600090507a184f03e93ff9f4daa797ed6e38ed64bf6a1f0100000000000000008310611dde577a184f03e93ff9f4daa797ed6e38ed64bf6a1f0100000000000000008381611dd457611dd3612e56565b5b0492506040810190505b6d04ee2d6d415b85acef81000000008310611e1b576d04ee2d6d415b85acef81000000008381611e1157611e10612e56565b5b0492506020810190505b662386f26fc100008310611e4a57662386f26fc100008381611e4057611e3f612e56565b5b0492506010810190505b6305f5e1008310611e73576305f5e1008381611e6957611e68612e56565b5b0492506008810190505b6127108310611e98576127108381611e8e57611e8d612e56565b5b0492506004810190505b60648310611ebb5760648381611eb157611eb0612e56565b5b0492506002810190505b600a8310611eca576001810190505b80915050919050565b611edd8383611fbb565b611ef2611ee8610fa9565b60008585856113b6565b505050565b611f028383836120b4565b611fb657600073ffffffffffffffffffffffffffffffffffffffff168373ffffffffffffffffffffffffffffffffffffffff1603611f7757806040517f7e273289000000000000000000000000000000000000000000000000000000008152600401611f6e9190612430565b60405180910390fd5b81816040517f177e802f000000000000000000000000000000000000000000000000000000008152600401611fad92919061295a565b60405180910390fd5b505050565b600073ffffffffffffffffffffffffffffffffffffffff168273ffffffffffffffffffffffffffffffffffffffff160361202d5760006040517f64a0ae92000000000000000000000000000000000000000000000000000000008152600401612024919061239a565b60405180910390fd5b600061203b83836000610fc3565b9050600073ffffffffffffffffffffffffffffffffffffffff168173ffffffffffffffffffffffffffffffffffffffff16146120af5760006040517f73c6ac6e0000000000000000000000000000000000000000000000000000000081526004016120a6919061239a565b60405180910390fd5b505050565b60008073ffffffffffffffffffffffffffffffffffffffff168373ffffffffffffffffffffffffffffffffffffffff161415801561216c57508273ffffffffffffffffffffffffffffffffffffffff168473ffffffffffffffffffffffffffffffffffffffff16148061212d575061212c8484610ce8565b5b8061216b57508273ffffffffffffffffffffffffffffffffffffffff1661215383610f6c565b73ffffffffffffffffffffffffffffffffffffffff16145b5b90509392505050565b6000604051905090565b600080fd5b600080fd5b60007fffffffff0000000000000000000000000000000000000000000000000000000082169050919050565b6121be81612189565b81146121c957600080fd5b50565b6000813590506121db816121b5565b92915050565b6000602082840312156121f7576121f661217f565b5b6000612205848285016121cc565b91505092915050565b60008115159050919050565b6122238161220e565b82525050565b600060208201905061223e600083018461221a565b92915050565b600081519050919050565b600082825260208201905092915050565b60005b8381101561227e578082015181840152602081019050612263565b60008484015250505050565b6000601f19601f8301169050919050565b60006122a682612244565b6122b0818561224f565b93506122c0818560208601612260565b6122c98161228a565b840191505092915050565b600060208201905081810360008301526122ee818461229b565b905092915050565b6000819050919050565b612309816122f6565b811461231457600080fd5b50565b60008135905061232681612300565b92915050565b6000602082840312156123425761234161217f565b5b600061235084828501612317565b91505092915050565b600073ffffffffffffffffffffffffffffffffffffffff82169050919050565b600061238482612359565b9050919050565b61239481612379565b82525050565b60006020820190506123af600083018461238b565b92915050565b6123be81612379565b81146123c957600080fd5b50565b6000813590506123db816123b5565b92915050565b600080604083850312156123f8576123f761217f565b5b6000612406858286016123cc565b925050602061241785828601612317565b9150509250929050565b61242a816122f6565b82525050565b60006020820190506124456000830184612421565b92915050565b6000806000606084860312156124645761246361217f565b5b6000612472868287016123cc565b9350506020612483868287016123cc565b925050604061249486828701612317565b9150509250925092565b6000602082840312156124b4576124b361217f565b5b60006124c2848285016123cc565b91505092915050565b6124d48161220e565b81146124df57600080fd5b50565b6000813590506124f1816124cb565b92915050565b6000806040838503121561250e5761250d61217f565b5b600061251c858286016123cc565b925050602061252d858286016124e2565b9150509250929050565b60006060820190508181036000830152612551818661229b565b90508181036020830152612565818561229b565b90508181036040830152612579818461229b565b9050949350505050565b600080fd5b600080fd5b7f4e487b7100000000000000000000000000000000000000000000000000000000600052604160045260246000fd5b6125c58261228a565b810181811067ffffffffffffffff821117156125e4576125e361258d565b5b80604052505050565b60006125f7612175565b905061260382826125bc565b919050565b600067ffffffffffffffff8211156126235761262261258d565b5b61262c8261228a565b9050602081019050919050565b82818337600083830152505050565b600061265b61265684612608565b6125ed565b90508281526020810184848401111561267757612676612588565b5b612682848285612639565b509392505050565b600082601f83011261269f5761269e612583565b5b81356126af848260208601612648565b91505092915050565b600080600080608085870312156126d2576126d161217f565b5b60006126e0878288016123cc565b94505060206126f1878288016123cc565b935050604061270287828801612317565b925050606085013567ffffffffffffffff81111561272357612722612184565b5b61272f8782880161268a565b91505092959194509250565b600067ffffffffffffffff8211156127565761275561258d565b5b61275f8261228a565b9050602081019050919050565b600061277f61277a8461273b565b6125ed565b90508281526020810184848401111561279b5761279a612588565b5b6127a6848285612639565b509392505050565b600082601f8301126127c3576127c2612583565b5b81356127d384826020860161276c565b91505092915050565b6000806000606084860312156127f5576127f461217f565b5b600084013567ffffffffffffffff81111561281357612812612184565b5b61281f868287016127ae565b935050602084013567ffffffffffffffff8111156128405761283f612184565b5b61284c868287016127ae565b925050604084013567ffffffffffffffff81111561286d5761286c612184565b5b612879868287016127ae565b9150509250925092565b6000806040838503121561289a5761289961217f565b5b60006128a8858286016123cc565b92505060206128b9858286016123cc565b9150509250929050565b7f4e487b7100000000000000000000000000000000000000000000000000000000600052602260045260246000fd5b6000600282049050600182168061290a57607f821691505b60208210810361291d5761291c6128c3565b5b50919050565b6000606082019050612938600083018661238b565b6129456020830185612421565b612952604083018461238b565b949350505050565b600060408201905061296f600083018561238b565b61297c6020830184612421565b9392505050565b7f4e487b7100000000000000000000000000000000000000000000000000000000600052603260045260246000fd5b7f546f6b656e20646f6573206e6f74206578697374000000000000000000000000600082015250565b60006129e860148361224f565b91506129f3826129b2565b602082019050919050565b60006020820190508181036000830152612a17816129db565b9050919050565b600081905092915050565b6000612a3482612244565b612a3e8185612a1e565b9350612a4e818560208601612260565b80840191505092915050565b6000612a668285612a29565b9150612a728284612a29565b91508190509392505050565b7f4e487b7100000000000000000000000000000000000000000000000000000000600052601160045260246000fd5b6000612ab8826122f6565b91507fffffffffffffffffffffffffffffffffffffffffffffffffffffffffffffffff8203612aea57612ae9612a7e565b5b600182019050919050565b60008190508160005260206000209050919050565b60006020601f8301049050919050565b600082821b905092915050565b600060088302612b577fffffffffffffffffffffffffffffffffffffffffffffffffffffffffffffffff82612b1a565b612b618683612b1a565b95508019841693508086168417925050509392505050565b6000819050919050565b6000612b9e612b99612b94846122f6565b612b79565b6122f6565b9050919050565b6000819050919050565b612bb883612b83565b612bcc612bc482612ba5565b848454612b27565b825550505050565b600090565b612be1612bd4565b612bec818484612baf565b505050565b5b81811015612c1057612c05600082612bd9565b600181019050612bf2565b5050565b601f821115612c5557612c2681612af5565b612c2f84612b0a565b81016020851015612c3e578190505b612c52612c4a85612b0a565b830182612bf1565b50505b505050565b600082821c905092915050565b6000612c7860001984600802612c5a565b1980831691505092915050565b6000612c918383612c67565b9150826002028217905092915050565b612caa82612244565b67ffffffffffffffff811115612cc357612cc261258d565b5b612ccd82546128f2565b612cd8828285612c14565b600060209050601f831160018114612d0b5760008415612cf9578287015190505b612d038582612c85565b865550612d6b565b601f198416612d1986612af5565b60005b82811015612d4157848901518255600182019150602085019450602081019050612d1c565b86831015612d5e5784890151612d5a601f891682612c67565b8355505b6001600288020188555050505b505050505050565b600081519050919050565b600082825260208201905092915050565b6000612d9a82612d73565b612da48185612d7e565b9350612db4818560208601612260565b612dbd8161228a565b840191505092915050565b6000608082019050612ddd600083018761238b565b612dea602083018661238b565b612df76040830185612421565b8181036060830152612e098184612d8f565b905095945050505050565b600081519050612e23816121b5565b92915050565b600060208284031215612e3f57612e3e61217f565b5b6000612e4d84828501612e14565b91505092915050565b7f4e487b7100000000000000000000000000000000000000000000000000000000600052601260045260246000fd5b6000612e90826122f6565b9150612e9b836122f6565b9250828203905081811115612eb357612eb2612a7e565b5b92915050565b7f4e487b7100000000000000000000000000000000000000000000000000000000600052603160045260246000fdfea26469706673582212207ef2d0d5e71410da11534a76e8dfcc089396f77ab7f9f19342d497d44f970dc264736f6c634300081c0033",
  "linkReferences": {},
  "deployedLinkReferences": {}
}