{
  "_format": "hh-sol-artifact-1",
  "contractName": "DropCollection",
  "sourceName": "contracts/DropCollection.sol",
  "abi": [
    {
      "inputs": [
        {
          "internalType": "string",
          "name": "name",
          "type": "string"
        },
        {
          "internalType": "string",
          "name": "symbol",
          "type": "string"
        },
        {
          "internalType": "string",
          "name": "description",
          "type": "string"
        },
        {
          "internalType": "string",
          "name": "baseTokenURI",
          "type": "string"
        },
        {
          "internalType": "uint256",
          "name": "tokenSupply",
          "type": "uint256"
        },
        {
          "internalType": "uint256",
          "name": "mintPrice",
          "type": "uint256"
        },
        {
          "internalType": "uint256",
          "name": "maxPerWallet",
          "type": "uint256"
        },
        {
          "internalType": "address",
          "name": "initialOwner",
          "type": "address"
        }
      ],
      "stateMutability": "nonpayable",
      "type": "constructor"
    },
    {
      "inputs": [
        {
          "internalType": "address",
          "name": "sender",
          "type": "address"
        },
        {
          "internalType": "uint256",
          "name": "tokenId",
          "type": "uint256"
        },
        {
          "internalType": "address",
          "name": "owner",
          "type": "address"
        }
      ],
      "name": "ERC721IncorrectOwner",
      "type": "error"
    },
    {
      "inputs": [
        {
          "internalType": "address",
          "name": "operator",
          "type": "address"
        },
        {
          "internalType": "uint256",
          "name": "tokenId",
          "type": "uint256"
        }
      ],
      "name": "ERC721InsufficientApproval",
      "type": "error"
    },
    {
      "inputs": [
        {
          "internalType": "address",
          "name": "approver",
          "type": "address"
        }
      ],
      "name": "ERC721InvalidApprover",
      "type": "error"
    },
    {
      "inputs": [
        {
          "internalType": "address",
          "name": "operator",
          "type": "address"
        }
      ],
      "name": "ERC721InvalidOperator",
      "type": "error"
    },
    {
      "inputs": [
        {
          "internalType": "address",
          "name": "owner",
          "type": "address"
        }
      ],
      "name": "ERC721InvalidOwner",
      "type": "error"
    },
    {
      "inputs": [
        {
          "internalType": "address",
          "name": "receiver",
          "type": "address"
        }
      ],
      "name": "ERC721InvalidReceiver",
      "type": "error"
    },
    {
      "inputs": [
        {
          "internalType": "address",
          "name": "sender",
          "type": "address"
        }
      ],
      "name": "ERC721InvalidSender",
      "type": "error"
    },
    {
      "inputs": [
        {
          "internalType": "uint256",
          "name": "tokenId",
          "type": "uint256"
        }
      ],
      "name": "ERC721NonexistentToken",
      "type": "error"
    },
    {
      "inputs": [
        {
          "internalType": "address",
          "name": "owner",
          "type": "address"
        }
      ],
      "name": "OwnableInvalidOwner",
      "type": "error"
    },
    {
      "inputs": [
        {
          "internalType": "address",
          "name": "account",
          "type": "address"
        }
      ],
      "name": "OwnableUnauthorizedAccount",
      "type": "error"
    },
    {
      "anonymous": false,
      "inputs": [
        {
          "indexed": true,
          "internalType": "address",
          "name": "owner",
          "type": "address"
        },
        {
          "indexed": true,
          "internalType": "address",
          "name": "approved",
          "type": "address"
        },
        {
          "indexed": true,
          "internalType": "uint256",
          "name": "tokenId",
          "type": "uint256"
        }
      ],
      "name": "Approval",
      "type": "event"
    },
    {
      "anonymous": false,
      "inputs": [
        {
          "indexed": true,
          "internalType": "address",
          "name": "owner",
          "type": "address"
        },
        {
          "indexed": true,
          "internalType": "address",
          "name": "operator",
          "type": "address"
        },
        {
          "indexed": false,
          "internalType": "bool",
          "name": "approved",
          "type": "bool"
        }
      ],
      "name": "ApprovalForAll",
      "type": "event"
    },
    {
      "anonymous": false,
      "inputs": [
        {
          "indexed": false,
          "internalType": "string",
          "name": "newBaseURI",
          "type": "string"
        }
      ],
      "name": "BaseURIChanged",
      "type": "event"
    },
    {
      "anonymous": false,
      "inputs": [
        {
          "indexed": false,
          "internalType": "uint256",
          "name": "newLimit",
          "type": "uint256"
        }
      ],
      "name": "MaxNFTPerWalletChanged",
      "type": "event"
    },
    {
      "anonymous": false,
      "inputs": [
        {
          "indexed": true,
          "internalType": "address",
          "name": "to",
          "type": "address"
        },
        {
          "indexed": true,
          "internalType": "uint256",
          "name": "tokenId",
          "type": "uint256"
        }
      ],
      "name": "Minted",
      "type": "event"
    },
    {
      "anonymous": false,
      "inputs": [
        {
          "indexed": true,
          "internalType": "address",
          "name": "previousOwner",
          "type": "address"
        },
        {
          "indexed": true,
          "internalType": "address",
          "name": "newOwner",
          "type": "address"
        }
      ],
      "name": "OwnershipTransferred",
      "type": "event"
    },
    {
      "anonymous": false,
      "inputs": [
        {
          "indexed": false,
          "internalType": "uint256",
          "name": "newPrice",
          "type": "uint256"
        }
      ],
      "name": "PriceChanged",
      "type": "event"
    },
    {
      "anonymous": false,
      "inputs": [
        {
          "indexed": true,
          "internalType": "address",
          "name": "from",
          "type": "address"
        },
        {
          "indexed": true,
          "internalType": "address",
          "name": "to",
          "type": "address"
        },
        {
          "indexed": true,
          "internalType": "uint256",
          "name": "tokenId",
          "type": "uint256"
        }
      ],
      "name": "Transfer",
      "type": "event"
    },
    {
      "inputs": [],
      "name": "_description",
      "outputs": [
        {
          "internalType": "string",
          "name": "",
          "type": "string"
        }
      ],
      "stateMutability": "view",
      "type": "function"
    },
    {
      "inputs": [],
      "name": "_mintPrice",
      "outputs": [
        {
          "internalType": "uint256",
          "name": "",
          "type": "uint256"
        }
      ],
      "stateMutability": "view",
      "type": "function"
    },
    {
      "inputs": [],
      "name": "_tokenSupply",
      "outputs": [
        {
          "internalType": "uint256",
          "name": "",
          "type": "uint256"
        }
      ],
      "stateMutability": "view",
      "type": "function"
    },
    {
      "inputs": [
        {
          "internalType": "address",
          "name": "to",
          "type": "address"
        },
        {
          "internalType": "uint256",
          "name": "tokenId",
          "type": "uint256"
        }
      ],
      "name": "approve",
      "outputs": [],
      "stateMutability": "nonpayable",
      "type": "function"
    },
    {
      "inputs": [
        {
          "internalType": "address",
          "name": "owner",
          "type": "address"
        }
      ],
      "name": "balanceOf",
      "outputs": [
        {
          "internalType": "uint256",
          "name": "",
          "type": "uint256"
        }
      ],
      "stateMutability": "view",
      "type": "function"
    },
    {
      "inputs": [
        {
          "internalType": "uint256",
          "name": "tokenId",
          "type": "uint256"
        }
      ],
      "name": "getApproved",
      "outputs": [
        {
          "internalType": "address",
          "name": "",
          "type": "address"
        }
      ],
      "stateMutability": "view",
      "type": "function"
    },
    {
      "inputs": [
        {
          "internalType": "uint256",
          "name": "tokenId",
          "type": "uint256"
        }
      ],
      "name": "getNFTDetails",
      "outputs": [
        {
          "internalType": "string",
          "name": "",
          "type": "string"
        }
      ],
      "stateMutability": "view",
      "type": "function"
    },
    {
      "inputs": [
        {
          "internalType": "address",
          "name": "owner",
          "type": "address"
        },
        {
          "internalType": "address",
          "name": "operator",
          "type": "address"
        }
      ],
      "name": "isApprovedForAll",
      "outputs": [
        {
          "internalType": "bool",
          "name": "",
          "type": "bool"
        }
      ],
      "stateMutability": "view",
      "type": "function"
    },
    {
      "inputs": [],
      "name": "maxNFTPerWallet",
      "outputs": [
        {
          "internalType": "uint256",
          "name": "",
          "type": "uint256"
        }
      ],
      "stateMutability": "view",
      "type": "function"
    },
    {
      "inputs": [],
      "name": "mintNFT",
      "outputs": [],
      "stateMutability": "payable",
      "type": "function"
    },
    {
      "inputs": [],
      "name": "name",
      "outputs": [
        {
          "internalType": "string",
          "name": "",
          "type": "string"
        }
      ],
      "stateMutability": "view",
      "type": "function"
    },
    {
      "inputs": [],
      "name": "owner",
      "outputs": [
        {
          "internalType": "address",
          "name": "",
          "type": "address"
        }
      ],
      "stateMutability": "view",
      "type": "function"
    },
    {
      "inputs": [
        {
          "internalType": "uint256",
          "name": "tokenId",
          "type": "uint256"
        }
      ],
      "name": "ownerOf",
      "outputs": [
        {
          "internalType": "address",
          "name": "",
          "type": "address"
        }
      ],
      "stateMutability": "view",
      "type": "function"
    },
    {
      "inputs": [],
      "name": "pause",
      "outputs": [],
      "stateMutability": "nonpayable",
      "type": "function"
    },
    {
      "inputs": [],
      "name": "paused",
      "outputs": [
        {
          "internalType": "bool",
          "name": "",
          "type": "bool"
        }
      ],
      "stateMutability": "view",
      "type": "function"
    },
    {
      "inputs": [],
      "name": "renounceOwnership",
      "outputs": [],
      "stateMutability": "nonpayable",
      "type": "function"
    },
    {
      "inputs": [
        {
          "internalType": "address",
          "name": "from",
          "type": "address"
        },
        {
          "internalType": "address",
          "name": "to",
          "type": "address"
        },
        {
          "internalType": "uint256",
          "name": "tokenId",
          "type": "uint256"
        }
      ],
      "name": "safeTransferFrom",
      "outputs": [],
      "stateMutability": "nonpayable",
      "type": "function"
    },
    {
      "inputs": [
        {
          "internalType": "address",
          "name": "from",
          "type": "address"
        },
        {
          "internalType": "address",
          "name": "to",
          "type": "address"
        },
        {
          "internalType": "uint256",
          "name": "tokenId",
          "type": "uint256"
        },
        {
          "internalType": "bytes",
          "name": "data",
          "type": "bytes"
        }
      ],
      "name": "safeTransferFrom",
      "outputs": [],
      "stateMutability": "nonpayable",
      "type": "function"
    },
    {
      "inputs": [
        {
          "internalType": "address",
          "name": "operator",
          "type": "address"
        },
        {
          "internalType": "bool",
          "name": "approved",
          "type": "bool"
        }
      ],
      "name": "setApprovalForAll",
      "outputs": [],
      "stateMutability": "nonpayable",
      "type": "function"
    },
    {
      "inputs": [
        {
          "internalType": "string",
          "name": "baseTokenURI",
          "type": "string"
        }
      ],
      "name": "setBaseURI",
      "outputs": [],
      "stateMutability": "nonpayable",
      "type": "function"
    },
    {
      "inputs": [
        {
          "internalType": "uint256",
          "name": "newLimit",
          "type": "uint256"
        }
      ],
      "name": "setMaxNFTPerWallet",
      "outputs": [],
      "stateMutability": "nonpayable",
      "type": "function"
    },
    {
      "inputs": [
        {
          "internalType": "uint256",
          "name": "newPrice",
          "type": "uint256"
        }
      ],
      "name": "setMintPrice",
      "outputs": [],
      "stateMutability": "nonpayable",
      "type": "function"
    },
    {
      "inputs": [
        {
          "internalType": "bytes4",
          "name": "interfaceId",
          "type": "bytes4"
        }
      ],
      "name": "supportsInterface",
      "outputs": [
        {
          "internalType": "bool",
          "name": "",
          "type": "bool"
        }
      ],
      "stateMutability": "view",
      "type": "function"
    },
    {
      "inputs": [],
      "name": "symbol",
      "outputs": [
        {
          "internalType": "string",
          "name": "",
          "type": "string"
        }
      ],
      "stateMutability": "view",
      "type": "function"
    },
    {
      "inputs": [
        {
          "internalType": "uint256",
          "name": "tokenId",
          "type": "uint256"
        }
      ],
      "name": "tokenURI",
      "outputs": [
        {
          "internalType": "string",
          "name": "",
          "type": "string"
        }
      ],
      "stateMutability": "view",
      "type": "function"
    },
    {
      "inputs": [],
      "name": "totalSupply",
      "outputs": [
        {
          "internalType": "uint256",
          "name": "",
          "type": "uint256"
        }
      ],
      "stateMutability": "view",
      "type": "function"
    },
    {
      "inputs": [
        {
          "internalType": "address",
          "name": "from",
          "type": "address"
        },
        {
          "internalType": "address",
          "name": "to",
          "type": "address"
        },
        {
          "internalType": "uint256",
          "name": "tokenId",
          "type": "uint256"
        }
      ],
      "name": "transferFrom",
      "outputs": [],
      "stateMutability": "nonpayable",
      "type": "function"
    },
    {
      "inputs": [
        {
          "internalType": "address",
          "name": "newOwner",
          "type": "address"
        }
      ],
      "name": "transferOwnership",
      "outputs": [],
      "stateMutability": "nonpayable",
      "type": "function"
    },
    {
      "inputs": [],
      "name": "unpause",
      "outputs": [],
      "stateMutability": "nonpayable",
      "type": "function"
    },
    {
      "inputs": [],
      "name": "withdraw",
      "outputs": [],
      "stateMutability": "nonpayable",
      "type": "function"
    }
  ],
  "bytecode": "0x60806040526000600c60006101000a81548160ff02191690831515021790555034801561002b57600080fd5b50604051613843380380613843833981810160405281019061004d9190610405565b808888816000908161005f9190610742565b50806001908161006f9190610742565b505050600073ffffffffffffffffffffffffffffffffffffffff168173ffffffffffffffffffffffffffffffffffffffff16036100e45760006040517f1e4fbdf70000000000000000000000000000000000000000000000000000000081526004016100db9190610823565b60405180910390fd5b6100f38161013660201b60201c565b5085600990816101039190610742565b5084600890816101139190610742565b5083600b8190555082600a8190555081600d81905550505050505050505061083e565b6000600660009054906101000a900473ffffffffffffffffffffffffffffffffffffffff16905081600660006101000a81548173ffffffffffffffffffffffffffffffffffffffff021916908373ffffffffffffffffffffffffffffffffffffffff1602179055508173ffffffffffffffffffffffffffffffffffffffff168173ffffffffffffffffffffffffffffffffffffffff167f8be0079c531659141344cd1fd0a4f28419497f9722a3daafe3b4186f6b6457e060405160405180910390a35050565b6000604051905090565b600080fd5b600080fd5b600080fd5b600080fd5b6000601f19601f8301169050919050565b7f4e487b7100000000000000000000000000000000000000000000000000000000600052604160045260246000fd5b6102638261021a565b810181811067ffffffffffffffff821117156102825761028161022b565b5b80604052505050565b60006102956101fc565b90506102a1828261025a565b919050565b600067ffffffffffffffff8211156102c1576102c061022b565b5b6102ca8261021a565b9050602081019050919050565b60005b838110156102f55780820151818401526020810190506102da565b60008484015250505050565b600061031461030f846102a6565b61028b565b9050828152602081018484840111156103305761032f610215565b5b61033b8482856102d7565b509392505050565b600082601f83011261035857610357610210565b5b8151610368848260208601610301565b91505092915050565b6000819050919050565b61038481610371565b811461038f57600080fd5b50565b6000815190506103a18161037b565b92915050565b600073ffffffffffffffffffffffffffffffffffffffff82169050919050565b60006103d2826103a7565b9050919050565b6103e2816103c7565b81146103ed57600080fd5b50565b6000815190506103ff816103d9565b92915050565b600080600080600080600080610100898b03121561042657610425610206565b5b600089015167ffffffffffffffff8111156104445761044361020b565b5b6104508b828c01610343565b985050602089015167ffffffffffffffff8111156104715761047061020b565b5b61047d8b828c01610343565b975050604089015167ffffffffffffffff81111561049e5761049d61020b565b5b6104aa8b828c01610343565b965050606089015167ffffffffffffffff8111156104cb576104ca61020b565b5b6104d78b828c01610343565b95505060806104e88b828c01610392565b94505060a06104f98b828c01610392565b93505060c061050a8b828c01610392565b92505060e061051b8b828c016103f0565b9150509295985092959890939650565b600081519050919050565b7f4e487b7100000000000000000000000000000000000000000000000000000000600052602260045260246000fd5b6000600282049050600182168061057d57607f821691505b6020821081036105905761058f610536565b5b50919050565b60008190508160005260206000209050919050565b60006020601f8301049050919050565b600082821b905092915050565b6000600883026105f87fffffffffffffffffffffffffffffffffffffffffffffffffffffffffffffffff826105bb565b61060286836105bb565b95508019841693508086168417925050509392505050565b6000819050919050565b600061063f61063a61063584610371565b61061a565b610371565b9050919050565b6000819050919050565b61065983610624565b61066d61066582610646565b8484546105c8565b825550505050565b600090565b610682610675565b61068d818484610650565b505050565b5b818110156106b1576106a660008261067a565b600181019050610693565b5050565b601f8211156106f6576106c781610596565b6106d0846105ab565b810160208510156106df578190505b6106f36106eb856105ab565b830182610692565b50505b505050565b600082821c905092915050565b6000610719600019846008026106fb565b1980831691505092915050565b60006107328383610708565b9150826002028217905092915050565b61074b8261052b565b67ffffffffffffffff8111156107645761076361022b565b5b61076e8254610565565b6107798282856106b5565b600060209050601f8311600181146107ac576000841561079a578287015190505b6107a48582610726565b86555061080c565b601f1984166107ba86610596565b60005b828110156107e2578489015182556001820191506020850194506020810190506107bd565b868310156107ff57848901516107fb601f891682610708565b8355505b6001600288020188555050505b505050505050565b61081d816103c7565b82525050565b60006020820190506108386000830184610814565b92915050565b612ff68061084d6000396000f3fe6080604052600436106101cd5760003560e01c806370a08231116100f7578063b5a3726011610095578063cfa84dfe11610064578063cfa84dfe1461061d578063e985e9c514610648578063f2fde38b14610685578063f4a0a528146106ae576101cd565b8063b5a3726014610563578063b88d4fde1461058c578063c7c5a8c0146105b5578063c87b56dd146105e0576101cd565b80638456cb59116100d15780638456cb59146104cd5780638da5cb5b146104e457806395d89b411461050f578063a22cb4651461053a576101cd565b806370a082311461043c578063715018a61461047957806382260f3514610490576101cd565b806323b872dd1161016f57806355f804b31161013e57806355f804b3146103805780635c975abb146103a9578063629b05f0146103d45780636352211e146103ff576101cd565b806323b872dd146103005780633ccfd60b146103295780633f4ba83a1461034057806342842e0e14610357576101cd565b8063081812fc116101ab578063081812fc14610265578063095ea7b3146102a257806314f710fe146102cb57806318160ddd146102d5576101cd565b806301ffc9a7146101d25780630387da421461020f57806306fdde031461023a575b600080fd5b3480156101de57600080fd5b506101f960048036038101906101f491906121a5565b6106d7565b60405161020691906121ed565b60405180910390f35b34801561021b57600080fd5b506102246106e9565b6040516102319190612221565b60405180910390f35b34801561024657600080fd5b5061024f6106ef565b60405161025c91906122cc565b60405180910390f35b34801561027157600080fd5b5061028c6004803603810190610287919061231a565b610781565b6040516102999190612388565b60405180910390f35b3480156102ae57600080fd5b506102c960048036038101906102c491906123cf565b61079d565b005b6102d36107b3565b005b3480156102e157600080fd5b506102ea6109e5565b6040516102f79190612221565b60405180910390f35b34801561030c57600080fd5b506103276004803603810190610322919061240f565b6109ef565b005b34801561033557600080fd5b5061033e610af1565b005b34801561034c57600080fd5b50610355610b92565b005b34801561036357600080fd5b5061037e6004803603810190610379919061240f565b610bb7565b005b34801561038c57600080fd5b506103a760048036038101906103a29190612597565b610bd7565b005b3480156103b557600080fd5b506103be610c29565b6040516103cb91906121ed565b60405180910390f35b3480156103e057600080fd5b506103e9610c3c565b6040516103f69190612221565b60405180910390f35b34801561040b57600080fd5b506104266004803603810190610421919061231a565b610c42565b6040516104339190612388565b60405180910390f35b34801561044857600080fd5b50610463600480360381019061045e91906125e0565b610c54565b6040516104709190612221565b60405180910390f35b34801561048557600080fd5b5061048e610c9d565b005b34801561049c57600080fd5b506104b760048036038101906104b2919061231a565b610cb1565b6040516104c491906122cc565b60405180910390f35b3480156104d957600080fd5b506104e2610d33565b005b3480156104f057600080fd5b506104f9610d58565b6040516105069190612388565b60405180910390f35b34801561051b57600080fd5b50610524610d82565b60405161053191906122cc565b60405180910390f35b34801561054657600080fd5b50610561600480360381019061055c9190612639565b610e14565b005b34801561056f57600080fd5b5061058a6004803603810190610585919061231a565b610e2a565b005b34801561059857600080fd5b506105b360048036038101906105ae919061271a565b610e73565b005b3480156105c157600080fd5b506105ca610e98565b6040516105d79190612221565b60405180910390f35b3480156105ec57600080fd5b506106076004803603810190610602919061231a565b610e9e565b60405161061491906122cc565b60405180910390f35b34801561062957600080fd5b50610632610f07565b60405161063f91906122cc565b60405180910390f35b34801561065457600080fd5b5061066f600480360381019061066a919061279d565b610f95565b60405161067c91906121ed565b60405180910390f35b34801561069157600080fd5b506106ac60048036038101906106a791906125e0565b611029565b005b3480156106ba57600080fd5b506106d560048036038101906106d0919061231a565b6110af565b005b60006106e2826110f8565b9050919050565b600a5481565b6060600080546106fe9061280c565b80601f016020809104026020016040519081016040528092919081815260200182805461072a9061280c565b80156107775780601f1061074c57610100808354040283529160200191610777565b820191906000526020600020905b81548152906001019060200180831161075a57829003601f168201915b5050505050905090565b600061078c826111da565b5061079682611262565b9050919050565b6107af82826107aa61129f565b6112a7565b5050565b600c60009054906101000a900460ff1615610803576040517f08c379a00000000000000000000000000000000000000000000000000000000081526004016107fa90612889565b60405180910390fd5b600a54341015610848576040517f08c379a000000000000000000000000000000000000000000000000000000000815260040161083f906128f5565b60405180910390fd5b600b546007541061088e576040517f08c379a000000000000000000000000000000000000000000000000000000000815260040161088590612961565b60405180910390fd5b6000600d5414806108df5750600d54600e60003373ffffffffffffffffffffffffffffffffffffffff1673ffffffffffffffffffffffffffffffffffffffff16815260200190815260200160002054105b61091e576040517f08c379a0000000000000000000000000000000000000000000000000000000008152600401610915906129cd565b60405180910390fd5b6007600081548092919061093190612a1c565b91905055506000600754905061094733826112b9565b6001600e60003373ffffffffffffffffffffffffffffffffffffffff1673ffffffffffffffffffffffffffffffffffffffff16815260200190815260200160002060008282546109979190612a64565b92505081905550803373ffffffffffffffffffffffffffffffffffffffff167f30385c845b448a36257a6a1716e6ad2e1bc2cbe333cde1e69fe849ad6511adfe60405160405180910390a350565b6000600754905090565b600073ffffffffffffffffffffffffffffffffffffffff168273ffffffffffffffffffffffffffffffffffffffff1603610a615760006040517f64a0ae92000000000000000000000000000000000000000000000000000000008152600401610a589190612388565b60405180910390fd5b6000610a758383610a7061129f565b6112d7565b90508373ffffffffffffffffffffffffffffffffffffffff168173ffffffffffffffffffffffffffffffffffffffff1614610aeb578382826040517f64283d7b000000000000000000000000000000000000000000000000000000008152600401610ae293929190612a98565b60405180910390fd5b50505050565b610af96114f1565b600047905060008111610b41576040517f08c379a0000000000000000000000000000000000000000000000000000000008152600401610b3890612b1b565b60405180910390fd5b610b49610d58565b73ffffffffffffffffffffffffffffffffffffffff166108fc829081150290604051600060405180830381858888f19350505050158015610b8e573d6000803e3d6000fd5b5050565b610b9a6114f1565b6000600c60006101000a81548160ff021916908315150217905550565b610bd283838360405180602001604052806000815250610e73565b505050565b610bdf6114f1565b8060089081610bee9190612ce7565b507f5411e8ebf1636d9e83d5fc4900bf80cbac82e8790da2a4c94db4895e889eedf681604051610c1e91906122cc565b60405180910390a150565b600c60009054906101000a900460ff1681565b600b5481565b6000610c4d826111da565b9050919050565b6000600e60008373ffffffffffffffffffffffffffffffffffffffff1673ffffffffffffffffffffffffffffffffffffffff168152602001908152602001600020549050919050565b610ca56114f1565b610caf6000611578565b565b6060610cbc8261163e565b610cfb576040517f08c379a0000000000000000000000000000000000000000000000000000000008152600401610cf290612e05565b60405180910390fd5b610d03611658565b610d0c836116ea565b604051602001610d1d929190612e61565b6040516020818303038152906040529050919050565b610d3b6114f1565b6001600c60006101000a81548160ff021916908315150217905550565b6000600660009054906101000a900473ffffffffffffffffffffffffffffffffffffffff16905090565b606060018054610d919061280c565b80601f0160208091040260200160405190810160405280929190818152602001828054610dbd9061280c565b8015610e0a5780601f10610ddf57610100808354040283529160200191610e0a565b820191906000526020600020905b815481529060010190602001808311610ded57829003601f168201915b5050505050905090565b610e26610e1f61129f565b83836117b8565b5050565b610e326114f1565b80600d819055507f582df0e3f3b089efed6670eb9de2162d71af4e6fb0666ef20599e99f2f3c7d5b81604051610e689190612221565b60405180910390a150565b610e7e8484846109ef565b610e92610e8961129f565b85858585611927565b50505050565b600d5481565b6060610ea9826111da565b506000610eb4611658565b90506000815111610ed45760405180602001604052806000815250610eff565b80610ede846116ea565b604051602001610eef929190612e61565b6040516020818303038152906040525b915050919050565b60098054610f149061280c565b80601f0160208091040260200160405190810160405280929190818152602001828054610f409061280c565b8015610f8d5780601f10610f6257610100808354040283529160200191610f8d565b820191906000526020600020905b815481529060010190602001808311610f7057829003601f168201915b505050505081565b6000600560008473ffffffffffffffffffffffffffffffffffffffff1673ffffffffffffffffffffffffffffffffffffffff16815260200190815260200160002060008373ffffffffffffffffffffffffffffffffffffffff1673ffffffffffffffffffffffffffffffffffffffff16815260200190815260200160002060009054906101000a900460ff16905092915050565b6110316114f1565b600073ffffffffffffffffffffffffffffffffffffffff168173ffffffffffffffffffffffffffffffffffffffff16036110a35760006040517f1e4fbdf700000000000000000000000000000000000000000000000000000000815260040161109a9190612388565b60405180910390fd5b6110ac81611578565b50565b6110b76114f1565b80600a819055507fa6dc15bdb68da224c66db4b3838d9a2b205138e8cff6774e57d0af91e196d622816040516110ed9190612221565b60405180910390a150565b60007f80ac58cd000000000000000000000000000000000000000000000000000000007bffffffffffffffffffffffffffffffffffffffffffffffffffffffff1916827bffffffffffffffffffffffffffffffffffffffffffffffffffffffff191614806111c357507f5b5e139f000000000000000000000000000000000000000000000000000000007bffffffffffffffffffffffffffffffffffffffffffffffffffffffff1916827bffffffffffffffffffffffffffffffffffffffffffffffffffffffff1916145b806111d357506111d282611ad8565b5b9050919050565b6000806111e683611b42565b9050600073ffffffffffffffffffffffffffffffffffffffff168173ffffffffffffffffffffffffffffffffffffffff160361125957826040517f7e2732890000000000000000000000000000000000000000000000000000000081526004016112509190612221565b60405180910390fd5b80915050919050565b60006004600083815260200190815260200160002060009054906101000a900473ffffffffffffffffffffffffffffffffffffffff169050919050565b600033905090565b6112b48383836001611b7f565b505050565b6112d3828260405180602001604052806000815250611d44565b5050565b6000806112e384611b42565b9050600073ffffffffffffffffffffffffffffffffffffffff168373ffffffffffffffffffffffffffffffffffffffff161461132557611324818486611d68565b5b600073ffffffffffffffffffffffffffffffffffffffff168173ffffffffffffffffffffffffffffffffffffffff16146113b657611367600085600080611b7f565b6001600360008373ffffffffffffffffffffffffffffffffffffffff1673ffffffffffffffffffffffffffffffffffffffff168152602001908152602001600020600082825403925050819055505b600073ffffffffffffffffffffffffffffffffffffffff168573ffffffffffffffffffffffffffffffffffffffff1614611439576001600360008773ffffffffffffffffffffffffffffffffffffffff1673ffffffffffffffffffffffffffffffffffffffff168152602001908152602001600020600082825401925050819055505b846002600086815260200190815260200160002060006101000a81548173ffffffffffffffffffffffffffffffffffffffff021916908373ffffffffffffffffffffffffffffffffffffffff160217905550838573ffffffffffffffffffffffffffffffffffffffff168273ffffffffffffffffffffffffffffffffffffffff167fddf252ad1be2c89b69c2b068fc378daa952ba7f163c4a11628f55a4df523b3ef60405160405180910390a4809150509392505050565b6114f961129f565b73ffffffffffffffffffffffffffffffffffffffff16611517610d58565b73ffffffffffffffffffffffffffffffffffffffff16146115765761153a61129f565b6040517f118cdaa700000000000000000000000000000000000000000000000000000000815260040161156d9190612388565b60405180910390fd5b565b6000600660009054906101000a900473ffffffffffffffffffffffffffffffffffffffff16905081600660006101000a81548173ffffffffffffffffffffffffffffffffffffffff021916908373ffffffffffffffffffffffffffffffffffffffff1602179055508173ffffffffffffffffffffffffffffffffffffffff168173ffffffffffffffffffffffffffffffffffffffff167f8be0079c531659141344cd1fd0a4f28419497f9722a3daafe3b4186f6b6457e060405160405180910390a35050565b6000808211801561165157506007548211155b9050919050565b6060600880546116679061280c565b80601f01602080910402602001604051908101604052809291908181526020018280546116939061280c565b80156116e05780601f106116b5576101008083540402835291602001916116e0565b820191906000526020600020905b8154815290600101906020018083116116c357829003601f168201915b5050505050905090565b6060600060016116f984611e2c565b01905060008167ffffffffffffffff8111156117185761171761246c565b5b6040519080825280601f01601f19166020018201604052801561174a5781602001600182028036833780820191505090505b509050600082602001820190505b6001156117ad578080600190039150507f3031323334353637383961626364656600000000000000000000000000000000600a86061a8153600a85816117a1576117a0612e85565b5b04945060008503611758575b819350505050919050565b600073ffffffffffffffffffffffffffffffffffffffff168273ffffffffffffffffffffffffffffffffffffffff160361182957816040517f5b08ba180000000000000000000000000000000000000000000000000000000081526004016118209190612388565b60405180910390fd5b80600560008573ffffffffffffffffffffffffffffffffffffffff1673ffffffffffffffffffffffffffffffffffffffff16815260200190815260200160002060008473ffffffffffffffffffffffffffffffffffffffff1673ffffffffffffffffffffffffffffffffffffffff16815260200190815260200160002060006101000a81548160ff0219169083151502179055508173ffffffffffffffffffffffffffffffffffffffff168373ffffffffffffffffffffffffffffffffffffffff167f17307eab39ab6107e8899845ad3d59bd9653f200f220920489ca2b5937696c318360405161191a91906121ed565b60405180910390a3505050565b60008373ffffffffffffffffffffffffffffffffffffffff163b1115611ad1578273ffffffffffffffffffffffffffffffffffffffff1663150b7a02868685856040518563ffffffff1660e01b81526004016119869493929190612f09565b6020604051808303816000875af19250505080156119c257506040513d601f19601f820116820180604052508101906119bf9190612f6a565b60015b611a46573d80600081146119f2576040519150601f19603f3d011682016040523d82523d6000602084013e6119f7565b606091505b506000815103611a3e57836040517f64a0ae92000000000000000000000000000000000000000000000000000000008152600401611a359190612388565b60405180910390fd5b805181602001fd5b63150b7a0260e01b7bffffffffffffffffffffffffffffffffffffffffffffffffffffffff1916817bffffffffffffffffffffffffffffffffffffffffffffffffffffffff191614611acf57836040517f64a0ae92000000000000000000000000000000000000000000000000000000008152600401611ac69190612388565b60405180910390fd5b505b5050505050565b60007f01ffc9a7000000000000000000000000000000000000000000000000000000007bffffffffffffffffffffffffffffffffffffffffffffffffffffffff1916827bffffffffffffffffffffffffffffffffffffffffffffffffffffffff1916149050919050565b60006002600083815260200190815260200160002060009054906101000a900473ffffffffffffffffffffffffffffffffffffffff169050919050565b8080611bb85750600073ffffffffffffffffffffffffffffffffffffffff168273ffffffffffffffffffffffffffffffffffffffff1614155b15611cec576000611bc8846111da565b9050600073ffffffffffffffffffffffffffffffffffffffff168373ffffffffffffffffffffffffffffffffffffffff1614158015611c3357508273ffffffffffffffffffffffffffffffffffffffff168173ffffffffffffffffffffffffffffffffffffffff1614155b8015611c465750611c448184610f95565b155b15611c8857826040517fa9fbf51f000000000000000000000000000000000000000000000000000000008152600401611c7f9190612388565b60405180910390fd5b8115611cea57838573ffffffffffffffffffffffffffffffffffffffff168273ffffffffffffffffffffffffffffffffffffffff167f8c5be1e5ebec7d5bd14f71427d1e84f3dd0314c0f7b2291e5b200ac8c7c3b92560405160405180910390a45b505b836004600085815260200190815260200160002060006101000a81548173ffffffffffffffffffffffffffffffffffffffff021916908373ffffffffffffffffffffffffffffffffffffffff16021790555050505050565b611d4e8383611f7f565b611d63611d5961129f565b6000858585611927565b505050565b611d73838383612078565b611e2757600073ffffffffffffffffffffffffffffffffffffffff168373ffffffffffffffffffffffffffffffffffffffff1603611de857806040517f7e273289000000000000000000000000000000000000000000000000000000008152600401611ddf9190612221565b60405180910390fd5b81816040517f177e802f000000000000000000000000000000000000000000000000000000008152600401611e1e929190612f97565b60405180910390fd5b505050565b600080600090507a184f03e93ff9f4daa797ed6e38ed64bf6a1f0100000000000000008310611e8a577a184f03e93ff9f4daa797ed6e38ed64bf6a1f0100000000000000008381611e8057611e7f612e85565b5b0492506040810190505b6d04ee2d6d415b85acef81000000008310611ec7576d04ee2d6d415b85acef81000000008381611ebd57611ebc612e85565b5b0492506020810190505b662386f26fc100008310611ef657662386f26fc100008381611eec57611eeb612e85565b5b0492506010810190505b6305f5e1008310611f1f576305f5e1008381611f1557611f14612e85565b5b0492506008810190505b6127108310611f44576127108381611f3a57611f39612e85565b5b0492506004810190505b60648310611f675760648381611f5d57611f5c612e85565b5b0492506002810190505b600a8310611f76576001810190505b80915050919050565b600073ffffffffffffffffffffffffffffffffffffffff168273ffffffffffffffffffffffffffffffffffffffff1603611ff15760006040517f64a0ae92000000000000000000000000000000000000000000000000000000008152600401611fe89190612388565b60405180910390fd5b6000611fff838360006112d7565b9050600073ffffffffffffffffffffffffffffffffffffffff168173ffffffffffffffffffffffffffffffffffffffff16146120735760006040517f73c6ac6e00000000000000000000000000000000000000000000000000000000815260040161206a9190612388565b60405180910390fd5b505050565b60008073ffffffffffffffffffffffffffffffffffffffff168373ffffffffffffffffffffffffffffffffffffffff161415801561213057508273ffffffffffffffffffffffffffffffffffffffff168473ffffffffffffffffffffffffffffffffffffffff1614806120f157506120f08484610f95565b5b8061212f57508273ffffffffffffffffffffffffffffffffffffffff1661211783611262565b73ffffffffffffffffffffffffffffffffffffffff16145b5b90509392505050565b6000604051905090565b600080fd5b600080fd5b60007fffffffff0000000000000000000000000000000000000000000000000000000082169050919050565b6121828161214d565b811461218d57600080fd5b50565b60008135905061219f81612179565b92915050565b6000602082840312156121bb576121ba612143565b5b60006121c984828501612190565b91505092915050565b60008115159050919050565b6121e7816121d2565b82525050565b600060208201905061220260008301846121de565b92915050565b6000819050919050565b61221b81612208565b82525050565b60006020820190506122366000830184612212565b92915050565b600081519050919050565b600082825260208201905092915050565b60005b8381101561227657808201518184015260208101905061225b565b60008484015250505050565b6000601f19601f8301169050919050565b600061229e8261223c565b6122a88185612247565b93506122b8818560208601612258565b6122c181612282565b840191505092915050565b600060208201905081810360008301526122e68184612293565b905092915050565b6122f781612208565b811461230257600080fd5b50565b600081359050612314816122ee565b92915050565b6000602082840312156123305761232f612143565b5b600061233e84828501612305565b91505092915050565b600073ffffffffffffffffffffffffffffffffffffffff82169050919050565b600061237282612347565b9050919050565b61238281612367565b82525050565b600060208201905061239d6000830184612379565b92915050565b6123ac81612367565b81146123b757600080fd5b50565b6000813590506123c9816123a3565b92915050565b600080604083850312156123e6576123e5612143565b5b60006123f4858286016123ba565b925050602061240585828601612305565b9150509250929050565b60008060006060848603121561242857612427612143565b5b6000612436868287016123ba565b9350506020612447868287016123ba565b925050604061245886828701612305565b9150509250925092565b600080fd5b600080fd5b7f4e487b7100000000000000000000000000000000000000000000000000000000600052604160045260246000fd5b6124a482612282565b810181811067ffffffffffffffff821117156124c3576124c261246c565b5b80604052505050565b60006124d6612139565b90506124e2828261249b565b919050565b600067ffffffffffffffff8211156125025761250161246c565b5b61250b82612282565b9050602081019050919050565b82818337600083830152505050565b600061253a612535846124e7565b6124cc565b90508281526020810184848401111561255657612555612467565b5b612561848285612518565b509392505050565b600082601f83011261257e5761257d612462565b5b813561258e848260208601612527565b91505092915050565b6000602082840312156125ad576125ac612143565b5b600082013567ffffffffffffffff8111156125cb576125ca612148565b5b6125d784828501612569565b91505092915050565b6000602082840312156125f6576125f5612143565b5b6000612604848285016123ba565b91505092915050565b612616816121d2565b811461262157600080fd5b50565b6000813590506126338161260d565b92915050565b600080604083850312156126505761264f612143565b5b600061265e858286016123ba565b925050602061266f85828601612624565b9150509250929050565b600067ffffffffffffffff8211156126945761269361246c565b5b61269d82612282565b9050602081019050919050565b60006126bd6126b884612679565b6124cc565b9050828152602081018484840111156126d9576126d8612467565b5b6126e4848285612518565b509392505050565b600082601f83011261270157612700612462565b5b81356127118482602086016126aa565b91505092915050565b6000806000806080858703121561273457612733612143565b5b6000612742878288016123ba565b9450506020612753878288016123ba565b935050604061276487828801612305565b925050606085013567ffffffffffffffff81111561278557612784612148565b5b612791878288016126ec565b91505092959194509250565b600080604083850312156127b4576127b3612143565b5b60006127c2858286016123ba565b92505060206127d3858286016123ba565b9150509250929050565b7f4e487b7100000000000000000000000000000000000000000000000000000000600052602260045260246000fd5b6000600282049050600182168061282457607f821691505b602082108103612837576128366127dd565b5b50919050565b7f436f6e7472616374206973207061757365640000000000000000000000000000600082015250565b6000612873601283612247565b915061287e8261283d565b602082019050919050565b600060208201905081810360008301526128a281612866565b9050919050565b7f4e6f7420656e6f7567682045544820746f206d696e7400000000000000000000600082015250565b60006128df601683612247565b91506128ea826128a9565b602082019050919050565b6000602082019050818103600083015261290e816128d2565b9050919050565b7f4d617820737570706c7920726561636865640000000000000000000000000000600082015250565b600061294b601283612247565b915061295682612915565b602082019050919050565b6000602082019050818103600083015261297a8161293e565b9050919050565b7f4d6178204e465473207065722077616c6c657420726561636865640000000000600082015250565b60006129b7601b83612247565b91506129c282612981565b602082019050919050565b600060208201905081810360008301526129e6816129aa565b9050919050565b7f4e487b7100000000000000000000000000000000000000000000000000000000600052601160045260246000fd5b6000612a2782612208565b91507fffffffffffffffffffffffffffffffffffffffffffffffffffffffffffffffff8203612a5957612a586129ed565b5b600182019050919050565b6000612a6f82612208565b9150612a7a83612208565b9250828201905080821115612a9257612a916129ed565b5b92915050565b6000606082019050612aad6000830186612379565b612aba6020830185612212565b612ac76040830184612379565b949350505050565b7f4e6f2045544820746f2077697468647261770000000000000000000000000000600082015250565b6000612b05601283612247565b9150612b1082612acf565b602082019050919050565b60006020820190508181036000830152612b3481612af8565b9050919050565b60008190508160005260206000209050919050565b60006020601f8301049050919050565b600082821b905092915050565b600060088302612b9d7fffffffffffffffffffffffffffffffffffffffffffffffffffffffffffffffff82612b60565b612ba78683612b60565b95508019841693508086168417925050509392505050565b6000819050919050565b6000612be4612bdf612bda84612208565b612bbf565b612208565b9050919050565b6000819050919050565b612bfe83612bc9565b612c12612c0a82612beb565b848454612b6d565b825550505050565b600090565b612c27612c1a565b612c32818484612bf5565b505050565b5b81811015612c5657612c4b600082612c1f565b600181019050612c38565b5050565b601f821115612c9b57612c6c81612b3b565b612c7584612b50565b81016020851015612c84578190505b612c98612c9085612b50565b830182612c37565b50505b505050565b600082821c905092915050565b6000612cbe60001984600802612ca0565b1980831691505092915050565b6000612cd78383612cad565b9150826002028217905092915050565b612cf08261223c565b67ffffffffffffffff811115612d0957612d0861246c565b5b612d13825461280c565b612d1e828285612c5a565b600060209050601f831160018114612d515760008415612d3f578287015190505b612d498582612ccb565b865550612db1565b601f198416612d5f86612b3b565b60005b82811015612d8757848901518255600182019150602085019450602081019050612d62565b86831015612da45784890151612da0601f891682612cad565b8355505b6001600288020188555050505b505050505050565b7f546f6b656e20646f6573206e6f74206578697374000000000000000000000000600082015250565b6000612def601483612247565b9150612dfa82612db9565b602082019050919050565b60006020820190508181036000830152612e1e81612de2565b9050919050565b600081905092915050565b6000612e3b8261223c565b612e458185612e25565b9350612e55818560208601612258565b80840191505092915050565b6000612e6d8285612e30565b9150612e798284612e30565b91508190509392505050565b7f4e487b7100000000000000000000000000000000000000000000000000000000600052601260045260246000fd5b600081519050919050565b600082825260208201905092915050565b6000612edb82612eb4565b612ee58185612ebf565b9350612ef5818560208601612258565b612efe81612282565b840191505092915050565b6000608082019050612f1e6000830187612379565b612f2b6020830186612379565b612f386040830185612212565b8181036060830152612f4a8184612ed0565b905095945050505050565b600081519050612f6481612179565b92915050565b600060208284031215612f8057612f7f612143565b5b6000612f8e84828501612f55565b91505092915050565b6000604082019050612fac6000830185612379565b612fb96020830184612212565b939250505056fea26469706673582212209f151ba2005593aa40b498668b7bc26af7f548be9d9ce8802624bba3ed87706064736f6c634300081c0033",
  "linkReferences": {},
  "deployedLinkReferences": {}
}