{
  "_format": "hh-sol-artifact-1",
  "contractName": "NFTDropPlatform",
  "sourceName": "contracts/NFTDropPlatform.sol",
  "abi": [
    {
      "inputs": [],
      "stateMutability": "nonpayable",
      "type": "constructor"
    },
    {
      "anonymous": false,
      "inputs": [
        {
          "indexed": true,
          "internalType": "address",
          "name": "owner",
          "type": "address"
        },
        {
          "indexed": true,
          "internalType": "address",
          "name": "approved",
          "type": "address"
        },
        {
          "indexed": true,
          "internalType": "uint256",
          "name": "tokenId",
          "type": "uint256"
        }
      ],
      "name": "Approval",
      "type": "event"
    },
    {
      "anonymous": false,
      "inputs": [
        {
          "indexed": true,
          "internalType": "address",
          "name": "owner",
          "type": "address"
        },
        {
          "indexed": true,
          "internalType": "address",
          "name": "operator",
          "type": "address"
        },
        {
          "indexed": false,
          "internalType": "bool",
          "name": "approved",
          "type": "bool"
        }
      ],
      "name": "ApprovalForAll",
      "type": "event"
    },
    {
      "anonymous": false,
      "inputs": [
        {
          "indexed": true,
          "internalType": "uint256",
          "name": "dropId",
          "type": "uint256"
        },
        {
          "indexed": true,
          "internalType": "address",
          "name": "creator",
          "type": "address"
        },
        {
          "indexed": false,
          "internalType": "uint256",
          "name": "maxSupply",
          "type": "uint256"
        },
        {
          "indexed": false,
          "internalType": "uint256",
          "name": "price",
          "type": "uint256"
        },
        {
          "indexed": false,
          "internalType": "uint256",
          "name": "maxPerWallet",
          "type": "uint256"
        },
        {
          "indexed": false,
          "internalType": "string",
          "name": "baseURI",
          "type": "string"
        }
      ],
      "name": "DropCreated",
      "type": "event"
    },
    {
      "anonymous": false,
      "inputs": [
        {
          "indexed": true,
          "internalType": "uint256",
          "name": "dropId",
          "type": "uint256"
        },
        {
          "indexed": true,
          "internalType": "uint256",
          "name": "tokenId",
          "type": "uint256"
        },
        {
          "indexed": true,
          "internalType": "address",
          "name": "minter",
          "type": "address"
        }
      ],
      "name": "NFTMinted",
      "type": "event"
    },
    {
      "anonymous": false,
      "inputs": [
        {
          "indexed": true,
          "internalType": "address",
          "name": "previousOwner",
          "type": "address"
        },
        {
          "indexed": true,
          "internalType": "address",
          "name": "newOwner",
          "type": "address"
        }
      ],
      "name": "OwnershipTransferred",
      "type": "event"
    },
    {
      "anonymous": false,
      "inputs": [
        {
          "indexed": false,
          "internalType": "address",
          "name": "account",
          "type": "address"
        }
      ],
      "name": "Paused",
      "type": "event"
    },
    {
      "anonymous": false,
      "inputs": [
        {
          "indexed": true,
          "internalType": "address",
          "name": "from",
          "type": "address"
        },
        {
          "indexed": true,
          "internalType": "address",
          "name": "to",
          "type": "address"
        },
        {
          "indexed": true,
          "internalType": "uint256",
          "name": "tokenId",
          "type": "uint256"
        }
      ],
      "name": "Transfer",
      "type": "event"
    },
    {
      "anonymous": false,
      "inputs": [
        {
          "indexed": false,
          "internalType": "address",
          "name": "account",
          "type": "address"
        }
      ],
      "name": "Unpaused",
      "type": "event"
    },
    {
      "inputs": [
        {
          "internalType": "address",
          "name": "to",
          "type": "address"
        },
        {
          "internalType": "uint256",
          "name": "tokenId",
          "type": "uint256"
        }
      ],
      "name": "approve",
      "outputs": [],
      "stateMutability": "nonpayable",
      "type": "function"
    },
    {
      "inputs": [
        {
          "internalType": "address",
          "name": "owner",
          "type": "address"
        }
      ],
      "name": "balanceOf",
      "outputs": [
        {
          "internalType": "uint256",
          "name": "",
          "type": "uint256"
        }
      ],
      "stateMutability": "view",
      "type": "function"
    },
    {
      "inputs": [
        {
          "internalType": "uint256",
          "name": "maxSupply",
          "type": "uint256"
        },
        {
          "internalType": "uint256",
          "name": "price",
          "type": "uint256"
        },
        {
          "internalType": "uint256",
          "name": "maxPerWallet",
          "type": "uint256"
        },
        {
          "internalType": "string",
          "name": "baseURI",
          "type": "string"
        }
      ],
      "name": "createDrop",
      "outputs": [],
      "stateMutability": "nonpayable",
      "type": "function"
    },
    {
      "inputs": [
        {
          "internalType": "uint256",
          "name": "",
          "type": "uint256"
        }
      ],
      "name": "dropBalances",
      "outputs": [
        {
          "internalType": "uint256",
          "name": "",
          "type": "uint256"
        }
      ],
      "stateMutability": "view",
      "type": "function"
    },
    {
      "inputs": [
        {
          "internalType": "uint256",
          "name": "",
          "type": "uint256"
        }
      ],
      "name": "drops",
      "outputs": [
        {
          "internalType": "uint256",
          "name": "dropId",
          "type": "uint256"
        },
        {
          "internalType": "address",
          "name": "creator",
          "type": "address"
        },
        {
          "internalType": "uint256",
          "name": "maxSupply",
          "type": "uint256"
        },
        {
          "internalType": "uint256",
          "name": "price",
          "type": "uint256"
        },
        {
          "internalType": "uint256",
          "name": "maxPerWallet",
          "type": "uint256"
        },
        {
          "internalType": "string",
          "name": "baseURI",
          "type": "string"
        },
        {
          "internalType": "uint256",
          "name": "totalMinted",
          "type": "uint256"
        }
      ],
      "stateMutability": "view",
      "type": "function"
    },
    {
      "inputs": [
        {
          "internalType": "uint256",
          "name": "tokenId",
          "type": "uint256"
        }
      ],
      "name": "getApproved",
      "outputs": [
        {
          "internalType": "address",
          "name": "",
          "type": "address"
        }
      ],
      "stateMutability": "view",
      "type": "function"
    },
    {
      "inputs": [
        {
          "internalType": "uint256",
          "name": "dropId",
          "type": "uint256"
        }
      ],
      "name": "getDropBaseURI",
      "outputs": [
        {
          "internalType": "string",
          "name": "",
          "type": "string"
        }
      ],
      "stateMutability": "view",
      "type": "function"
    },
    {
      "inputs": [
        {
          "internalType": "uint256",
          "name": "tokenId",
          "type": "uint256"
        }
      ],
      "name": "getDropIdByTokenId",
      "outputs": [
        {
          "internalType": "uint256",
          "name": "",
          "type": "uint256"
        }
      ],
      "stateMutability": "view",
      "type": "function"
    },
    {
      "inputs": [],
      "name": "getDropIdCounter",
      "outputs": [
        {
          "internalType": "uint256",
          "name": "",
          "type": "uint256"
        }
      ],
      "stateMutability": "view",
      "type": "function"
    },
    {
      "inputs": [
        {
          "internalType": "uint256",
          "name": "dropId",
          "type": "uint256"
        }
      ],
      "name": "getDropTotalMinted",
      "outputs": [
        {
          "internalType": "uint256",
          "name": "",
          "type": "uint256"
        }
      ],
      "stateMutability": "view",
      "type": "function"
    },
    {
      "inputs": [
        {
          "internalType": "address",
          "name": "owner",
          "type": "address"
        }
      ],
      "name": "getTokensOfOwner",
      "outputs": [
        {
          "internalType": "uint256[]",
          "name": "",
          "type": "uint256[]"
        }
      ],
      "stateMutability": "view",
      "type": "function"
    },
    {
      "inputs": [
        {
          "internalType": "address",
          "name": "user",
          "type": "address"
        }
      ],
      "name": "getUserDrops",
      "outputs": [
        {
          "internalType": "uint256[]",
          "name": "",
          "type": "uint256[]"
        }
      ],
      "stateMutability": "view",
      "type": "function"
    },
    {
      "inputs": [
        {
          "internalType": "address",
          "name": "owner",
          "type": "address"
        },
        {
          "internalType": "address",
          "name": "operator",
          "type": "address"
        }
      ],
      "name": "isApprovedForAll",
      "outputs": [
        {
          "internalType": "bool",
          "name": "",
          "type": "bool"
        }
      ],
      "stateMutability": "view",
      "type": "function"
    },
    {
      "inputs": [
        {
          "internalType": "uint256",
          "name": "dropId",
          "type": "uint256"
        },
        {
          "internalType": "uint256",
          "name": "quantity",
          "type": "uint256"
        }
      ],
      "name": "mintFromDrop",
      "outputs": [],
      "stateMutability": "payable",
      "type": "function"
    },
    {
      "inputs": [],
      "name": "name",
      "outputs": [
        {
          "internalType": "string",
          "name": "",
          "type": "string"
        }
      ],
      "stateMutability": "view",
      "type": "function"
    },
    {
      "inputs": [],
      "name": "owner",
      "outputs": [
        {
          "internalType": "address",
          "name": "",
          "type": "address"
        }
      ],
      "stateMutability": "view",
      "type": "function"
    },
    {
      "inputs": [
        {
          "internalType": "uint256",
          "name": "tokenId",
          "type": "uint256"
        }
      ],
      "name": "ownerOf",
      "outputs": [
        {
          "internalType": "address",
          "name": "",
          "type": "address"
        }
      ],
      "stateMutability": "view",
      "type": "function"
    },
    {
      "inputs": [],
      "name": "paused",
      "outputs": [
        {
          "internalType": "bool",
          "name": "",
          "type": "bool"
        }
      ],
      "stateMutability": "view",
      "type": "function"
    },
    {
      "inputs": [],
      "name": "renounceOwnership",
      "outputs": [],
      "stateMutability": "nonpayable",
      "type": "function"
    },
    {
      "inputs": [
        {
          "internalType": "address",
          "name": "from",
          "type": "address"
        },
        {
          "internalType": "address",
          "name": "to",
          "type": "address"
        },
        {
          "internalType": "uint256",
          "name": "tokenId",
          "type": "uint256"
        }
      ],
      "name": "safeTransferFrom",
      "outputs": [],
      "stateMutability": "nonpayable",
      "type": "function"
    },
    {
      "inputs": [
        {
          "internalType": "address",
          "name": "from",
          "type": "address"
        },
        {
          "internalType": "address",
          "name": "to",
          "type": "address"
        },
        {
          "internalType": "uint256",
          "name": "tokenId",
          "type": "uint256"
        },
        {
          "internalType": "bytes",
          "name": "_data",
          "type": "bytes"
        }
      ],
      "name": "safeTransferFrom",
      "outputs": [],
      "stateMutability": "nonpayable",
      "type": "function"
    },
    {
      "inputs": [
        {
          "internalType": "address",
          "name": "operator",
          "type": "address"
        },
        {
          "internalType": "bool",
          "name": "approved",
          "type": "bool"
        }
      ],
      "name": "setApprovalForAll",
      "outputs": [],
      "stateMutability": "nonpayable",
      "type": "function"
    },
    {
      "inputs": [
        {
          "internalType": "bool",
          "name": "paused",
          "type": "bool"
        }
      ],
      "name": "setPaused",
      "outputs": [],
      "stateMutability": "nonpayable",
      "type": "function"
    },
    {
      "inputs": [
        {
          "internalType": "bytes4",
          "name": "interfaceId",
          "type": "bytes4"
        }
      ],
      "name": "supportsInterface",
      "outputs": [
        {
          "internalType": "bool",
          "name": "",
          "type": "bool"
        }
      ],
      "stateMutability": "view",
      "type": "function"
    },
    {
      "inputs": [],
      "name": "symbol",
      "outputs": [
        {
          "internalType": "string",
          "name": "",
          "type": "string"
        }
      ],
      "stateMutability": "view",
      "type": "function"
    },
    {
      "inputs": [
        {
          "internalType": "uint256",
          "name": "index",
          "type": "uint256"
        }
      ],
      "name": "tokenByIndex",
      "outputs": [
        {
          "internalType": "uint256",
          "name": "",
          "type": "uint256"
        }
      ],
      "stateMutability": "view",
      "type": "function"
    },
    {
      "inputs": [
        {
          "internalType": "address",
          "name": "owner",
          "type": "address"
        },
        {
          "internalType": "uint256",
          "name": "index",
          "type": "uint256"
        }
      ],
      "name": "tokenOfOwnerByIndex",
      "outputs": [
        {
          "internalType": "uint256",
          "name": "",
          "type": "uint256"
        }
      ],
      "stateMutability": "view",
      "type": "function"
    },
    {
      "inputs": [
        {
          "internalType": "uint256",
          "name": "tokenId",
          "type": "uint256"
        }
      ],
      "name": "tokenURI",
      "outputs": [
        {
          "internalType": "string",
          "name": "",
          "type": "string"
        }
      ],
      "stateMutability": "view",
      "type": "function"
    },
    {
      "inputs": [],
      "name": "totalSupply",
      "outputs": [
        {
          "internalType": "uint256",
          "name": "",
          "type": "uint256"
        }
      ],
      "stateMutability": "view",
      "type": "function"
    },
    {
      "inputs": [
        {
          "internalType": "address",
          "name": "from",
          "type": "address"
        },
        {
          "internalType": "address",
          "name": "to",
          "type": "address"
        },
        {
          "internalType": "uint256",
          "name": "tokenId",
          "type": "uint256"
        }
      ],
      "name": "transferFrom",
      "outputs": [],
      "stateMutability": "nonpayable",
      "type": "function"
    },
    {
      "inputs": [
        {
          "internalType": "address",
          "name": "newOwner",
          "type": "address"
        }
      ],
      "name": "transferOwnership",
      "outputs": [],
      "stateMutability": "nonpayable",
      "type": "function"
    },
    {
      "inputs": [
        {
          "internalType": "address",
          "name": "",
          "type": "address"
        },
        {
          "internalType": "uint256",
          "name": "",
          "type": "uint256"
        }
      ],
      "name": "userDrops",
      "outputs": [
        {
          "internalType": "uint256",
          "name": "",
          "type": "uint256"
        }
      ],
      "stateMutability": "view",
      "type": "function"
    },
    {
      "inputs": [
        {
          "internalType": "uint256",
          "name": "dropId",
          "type": "uint256"
        }
      ],
      "name": "withdrawFromDrop",
      "outputs": [],
      "stateMutability": "nonpayable",
      "type": "function"
    }
  ],
  "bytecode": "0x608060405234801561001057600080fd5b506040518060400160405280600f81526020017f4e465444726f70506c6174666f726d00000000000000000000000000000000008152506040518060400160405280600481526020017f4e46545000000000000000000000000000000000000000000000000000000000815250816000908161008c91906103f9565b50806001908161009c91906103f9565b5050506100bb6100b06100db60201b60201c565b6100e360201b60201c565b6000600a60146101000a81548160ff0219169083151502179055506104cb565b600033905090565b6000600a60009054906101000a900473ffffffffffffffffffffffffffffffffffffffff16905081600a60006101000a81548173ffffffffffffffffffffffffffffffffffffffff021916908373ffffffffffffffffffffffffffffffffffffffff1602179055508173ffffffffffffffffffffffffffffffffffffffff168173ffffffffffffffffffffffffffffffffffffffff167f8be0079c531659141344cd1fd0a4f28419497f9722a3daafe3b4186f6b6457e060405160405180910390a35050565b600081519050919050565b7f4e487b7100000000000000000000000000000000000000000000000000000000600052604160045260246000fd5b7f4e487b7100000000000000000000000000000000000000000000000000000000600052602260045260246000fd5b6000600282049050600182168061022a57607f821691505b60208210810361023d5761023c6101e3565b5b50919050565b60008190508160005260206000209050919050565b60006020601f8301049050919050565b600082821b905092915050565b6000600883026102a57fffffffffffffffffffffffffffffffffffffffffffffffffffffffffffffffff82610268565b6102af8683610268565b95508019841693508086168417925050509392505050565b6000819050919050565b6000819050919050565b60006102f66102f16102ec846102c7565b6102d1565b6102c7565b9050919050565b6000819050919050565b610310836102db565b61032461031c826102fd565b848454610275565b825550505050565b600090565b61033961032c565b610344818484610307565b505050565b5b818110156103685761035d600082610331565b60018101905061034a565b5050565b601f8211156103ad5761037e81610243565b61038784610258565b81016020851015610396578190505b6103aa6103a285610258565b830182610349565b50505b505050565b600082821c905092915050565b60006103d0600019846008026103b2565b1980831691505092915050565b60006103e983836103bf565b9150826002028217905092915050565b610402826101a9565b67ffffffffffffffff81111561041b5761041a6101b4565b5b6104258254610212565b61043082828561036c565b600060209050601f8311600181146104635760008415610451578287015190505b61045b85826103dd565b8655506104c3565b601f19841661047186610243565b60005b8281101561049957848901518255600182019150602085019450602081019050610474565b868310156104b657848901516104b2601f8916826103bf565b8355505b6001600288020188555050505b505050505050565b614edf806104da6000396000f3fe6080604052600436106101ee5760003560e01c80635de6dc551161010d578063a22cb465116100a0578063d980d4fd1161006f578063d980d4fd14610766578063e4684e89146107a3578063e709756e146107cc578063e985e9c514610809578063f2fde38b14610846576101ee565b8063a22cb4651461069a578063b88d4fde146106c3578063c87b56dd146106ec578063cd3a7fb914610729576101ee565b806370a08231116100dc57806370a08231146105f0578063715018a61461062d5780638da5cb5b1461064457806395d89b411461066f576101ee565b80635de6dc55146104f65780635eb39968146105335780635f47ea5a146105765780636352211e146105b3576101ee565b806323b872dd116101855780634f6ccce7116101545780634f6ccce7146104495780635170a2621461048657806351968a55146104af5780635c975abb146104cb576101ee565b806323b872dd1461037d5780632f745c59146103a657806339a5c51d146103e357806342842e0e14610420576101ee565b8063095ea7b3116101c1578063095ea7b3146102c35780631233ebed146102ec57806316c38b3c1461032957806318160ddd14610352576101ee565b806301ffc9a7146101f357806306fdde0314610230578063081812fc1461025b57806308d9ad9c14610298575b600080fd5b3480156101ff57600080fd5b5061021a600480360381019061021591906130fe565b61086f565b6040516102279190613146565b60405180910390f35b34801561023c57600080fd5b506102456108e9565b60405161025291906131f1565b60405180910390f35b34801561026757600080fd5b50610282600480360381019061027d9190613249565b61097b565b60405161028f91906132b7565b60405180910390f35b3480156102a457600080fd5b506102ad610a00565b6040516102ba91906132e1565b60405180910390f35b3480156102cf57600080fd5b506102ea60048036038101906102e59190613328565b610a11565b005b3480156102f857600080fd5b50610313600480360381019061030e9190613368565b610b28565b6040516103209190613453565b60405180910390f35b34801561033557600080fd5b50610350600480360381019061034b91906134a1565b610bbf565b005b34801561035e57600080fd5b50610367610c5a565b60405161037491906132e1565b60405180910390f35b34801561038957600080fd5b506103a4600480360381019061039f91906134ce565b610c67565b005b3480156103b257600080fd5b506103cd60048036038101906103c89190613328565b610cc7565b6040516103da91906132e1565b60405180910390f35b3480156103ef57600080fd5b5061040a60048036038101906104059190613328565b610d6c565b60405161041791906132e1565b60405180910390f35b34801561042c57600080fd5b50610447600480360381019061044291906134ce565b610d9d565b005b34801561045557600080fd5b50610470600480360381019061046b9190613249565b610dbd565b60405161047d91906132e1565b60405180910390f35b34801561049257600080fd5b506104ad60048036038101906104a89190613656565b610e2e565b005b6104c960048036038101906104c491906136d9565b61106c565b005b3480156104d757600080fd5b506104e06113d2565b6040516104ed9190613146565b60405180910390f35b34801561050257600080fd5b5061051d60048036038101906105189190613368565b6113e9565b60405161052a9190613453565b60405180910390f35b34801561053f57600080fd5b5061055a60048036038101906105559190613249565b611491565b60405161056d9796959493929190613719565b60405180910390f35b34801561058257600080fd5b5061059d60048036038101906105989190613249565b61157b565b6040516105aa91906132e1565b60405180910390f35b3480156105bf57600080fd5b506105da60048036038101906105d59190613249565b611598565b6040516105e791906132b7565b60405180910390f35b3480156105fc57600080fd5b5061061760048036038101906106129190613368565b611649565b60405161062491906132e1565b60405180910390f35b34801561063957600080fd5b50610642611700565b005b34801561065057600080fd5b50610659611788565b60405161066691906132b7565b60405180910390f35b34801561067b57600080fd5b506106846117b2565b60405161069191906131f1565b60405180910390f35b3480156106a657600080fd5b506106c160048036038101906106bc919061378f565b611844565b005b3480156106cf57600080fd5b506106ea60048036038101906106e59190613870565b61185a565b005b3480156106f857600080fd5b50610713600480360381019061070e9190613249565b6118bc565b60405161072091906131f1565b60405180910390f35b34801561073557600080fd5b50610750600480360381019061074b9190613249565b611994565b60405161075d91906132e1565b60405180910390f35b34801561077257600080fd5b5061078d60048036038101906107889190613249565b6119ac565b60405161079a91906131f1565b60405180910390f35b3480156107af57600080fd5b506107ca60048036038101906107c59190613249565b611a54565b005b3480156107d857600080fd5b506107f360048036038101906107ee9190613249565b611be1565b60405161080091906132e1565b60405180910390f35b34801561081557600080fd5b50610830600480360381019061082b91906138f3565b611c01565b60405161083d9190613146565b60405180910390f35b34801561085257600080fd5b5061086d60048036038101906108689190613368565b611c95565b005b60007f780e9d63000000000000000000000000000000000000000000000000000000007bffffffffffffffffffffffffffffffffffffffffffffffffffffffff1916827bffffffffffffffffffffffffffffffffffffffffffffffffffffffff191614806108e257506108e182611d8c565b5b9050919050565b6060600080546108f890613962565b80601f016020809104026020016040519081016040528092919081815260200182805461092490613962565b80156109715780601f1061094657610100808354040283529160200191610971565b820191906000526020600020905b81548152906001019060200180831161095457829003601f168201915b5050505050905090565b600061098682611e6e565b6109c5576040517f08c379a00000000000000000000000000000000000000000000000000000000081526004016109bc90613a05565b60405180910390fd5b6004600083815260200190815260200160002060009054906101000a900473ffffffffffffffffffffffffffffffffffffffff169050919050565b6000610a0c600b611eda565b905090565b6000610a1c82611598565b90508073ffffffffffffffffffffffffffffffffffffffff168373ffffffffffffffffffffffffffffffffffffffff1603610a8c576040517f08c379a0000000000000000000000000000000000000000000000000000000008152600401610a8390613a97565b60405180910390fd5b8073ffffffffffffffffffffffffffffffffffffffff16610aab611ee8565b73ffffffffffffffffffffffffffffffffffffffff161480610ada5750610ad981610ad4611ee8565b611c01565b5b610b19576040517f08c379a0000000000000000000000000000000000000000000000000000000008152600401610b1090613b29565b60405180910390fd5b610b238383611ef0565b505050565b6060600e60008373ffffffffffffffffffffffffffffffffffffffff1673ffffffffffffffffffffffffffffffffffffffff168152602001908152602001600020805480602002602001604051908101604052809291908181526020018280548015610bb357602002820191906000526020600020905b815481526020019060010190808311610b9f575b50505050509050919050565b610bc7611ee8565b73ffffffffffffffffffffffffffffffffffffffff16610be5611788565b73ffffffffffffffffffffffffffffffffffffffff1614610c3b576040517f08c379a0000000000000000000000000000000000000000000000000000000008152600401610c3290613b95565b60405180910390fd5b8015610c4e57610c49611fa9565b610c57565b610c5661204c565b5b50565b6000600880549050905090565b610c78610c72611ee8565b826120ee565b610cb7576040517f08c379a0000000000000000000000000000000000000000000000000000000008152600401610cae90613c27565b60405180910390fd5b610cc28383836121cc565b505050565b6000610cd283611649565b8210610d13576040517f08c379a0000000000000000000000000000000000000000000000000000000008152600401610d0a90613cb9565b60405180910390fd5b600660008473ffffffffffffffffffffffffffffffffffffffff1673ffffffffffffffffffffffffffffffffffffffff168152602001908152602001600020600083815260200190815260200160002054905092915050565b600e6020528160005260406000208181548110610d8857600080fd5b90600052602060002001600091509150505481565b610db88383836040518060200160405280600081525061185a565b505050565b6000610dc7610c5a565b8210610e08576040517f08c379a0000000000000000000000000000000000000000000000000000000008152600401610dff90613d4b565b60405180910390fd5b60088281548110610e1c57610e1b613d6b565b5b90600052602060002001549050919050565b60008411610e71576040517f08c379a0000000000000000000000000000000000000000000000000000000008152600401610e6890613e0c565b60405180910390fd5b60008311610eb4576040517f08c379a0000000000000000000000000000000000000000000000000000000008152600401610eab90613e78565b60405180910390fd5b60008211610ef7576040517f08c379a0000000000000000000000000000000000000000000000000000000008152600401610eee90613f0a565b60405180910390fd5b610f01600b612427565b6000610f0d600b611eda565b90506000600d60008381526020019081526020016000209050818160000181905550338160010160006101000a81548173ffffffffffffffffffffffffffffffffffffffff021916908373ffffffffffffffffffffffffffffffffffffffff16021790555085816002018190555084816003018190555083816004018190555082816005019081610f9e91906140d6565b5060008160060181905550600e60003373ffffffffffffffffffffffffffffffffffffffff1673ffffffffffffffffffffffffffffffffffffffff1681526020019081526020016000208290806001815401808255809150506001900390600052602060002001600090919091909150553373ffffffffffffffffffffffffffffffffffffffff16827fcaebe77b7359fee2735c5f800392a0fddb049f007b541572fadfc3f57eedaab68888888860405161105c94939291906141a8565b60405180910390a3505050505050565b6110746113d2565b156110b4576040517f08c379a00000000000000000000000000000000000000000000000000000000081526004016110ab90614240565b60405180910390fd5b6000600d60008481526020019081526020016000209050600073ffffffffffffffffffffffffffffffffffffffff168160010160009054906101000a900473ffffffffffffffffffffffffffffffffffffffff1673ffffffffffffffffffffffffffffffffffffffff160361115e576040517f08c379a0000000000000000000000000000000000000000000000000000000008152600401611155906142ac565b60405180910390fd5b806002015482826006015461117391906142fb565b11156111b4576040517f08c379a00000000000000000000000000000000000000000000000000000000081526004016111ab9061437b565b60405180910390fd5b8060040154828260070160003373ffffffffffffffffffffffffffffffffffffffff1673ffffffffffffffffffffffffffffffffffffffff1681526020019081526020016000205461120691906142fb565b1115611247576040517f08c379a000000000000000000000000000000000000000000000000000000000815260040161123e906143e7565b60405180910390fd5b8181600301546112579190614407565b341015611299576040517f08c379a000000000000000000000000000000000000000000000000000000000815260040161129090614495565b60405180910390fd5b346010600085815260200190815260200160002060008282546112bc91906142fb565b9250508190555060005b828110156113cc576112d8600c612427565b60006112e4600c611eda565b90506112f0338261243d565b826006016000815480929190611305906144b5565b91905055508260070160003373ffffffffffffffffffffffffffffffffffffffff1673ffffffffffffffffffffffffffffffffffffffff168152602001908152602001600020600081548092919061135c906144b5565b919050555084600f6000838152602001908152602001600020819055503373ffffffffffffffffffffffffffffffffffffffff1681867ffca9437e237ca408a74cca23e3078fd1f6c700960dac7f09f8c6cf5177aefe1a60405160405180910390a45080806001019150506112c6565b50505050565b6000600a60149054906101000a900460ff16905090565b606060006113f683611649565b905060008167ffffffffffffffff8111156114145761141361352b565b5b6040519080825280602002602001820160405280156114425781602001602082028036833780820191505090505b50905060005b828110156114865761145a8582610cc7565b82828151811061146d5761146c613d6b565b5b6020026020010181815250508080600101915050611448565b508092505050919050565b600d6020528060005260406000206000915090508060000154908060010160009054906101000a900473ffffffffffffffffffffffffffffffffffffffff16908060020154908060030154908060040154908060050180546114f290613962565b80601f016020809104026020016040519081016040528092919081815260200182805461151e90613962565b801561156b5780601f106115405761010080835404028352916020019161156b565b820191906000526020600020905b81548152906001019060200180831161154e57829003601f168201915b5050505050908060060154905087565b6000600f6000838152602001908152602001600020549050919050565b6000806002600084815260200190815260200160002060009054906101000a900473ffffffffffffffffffffffffffffffffffffffff169050600073ffffffffffffffffffffffffffffffffffffffff168173ffffffffffffffffffffffffffffffffffffffff1603611640576040517f08c379a00000000000000000000000000000000000000000000000000000000081526004016116379061456f565b60405180910390fd5b80915050919050565b60008073ffffffffffffffffffffffffffffffffffffffff168273ffffffffffffffffffffffffffffffffffffffff16036116b9576040517f08c379a00000000000000000000000000000000000000000000000000000000081526004016116b090614601565b60405180910390fd5b600360008373ffffffffffffffffffffffffffffffffffffffff1673ffffffffffffffffffffffffffffffffffffffff168152602001908152602001600020549050919050565b611708611ee8565b73ffffffffffffffffffffffffffffffffffffffff16611726611788565b73ffffffffffffffffffffffffffffffffffffffff161461177c576040517f08c379a000000000000000000000000000000000000000000000000000000000815260040161177390613b95565b60405180910390fd5b611786600061245b565b565b6000600a60009054906101000a900473ffffffffffffffffffffffffffffffffffffffff16905090565b6060600180546117c190613962565b80601f01602080910402602001604051908101604052809291908181526020018280546117ed90613962565b801561183a5780601f1061180f5761010080835404028352916020019161183a565b820191906000526020600020905b81548152906001019060200180831161181d57829003601f168201915b5050505050905090565b61185661184f611ee8565b8383612521565b5050565b61186b611865611ee8565b836120ee565b6118aa576040517f08c379a00000000000000000000000000000000000000000000000000000000081526004016118a190613c27565b60405180910390fd5b6118b68484848461268d565b50505050565b6060600073ffffffffffffffffffffffffffffffffffffffff166118df83611598565b73ffffffffffffffffffffffffffffffffffffffff1603611935576040517f08c379a000000000000000000000000000000000000000000000000000000000815260040161192c9061466d565b60405180910390fd5b6000600f6000848152602001908152602001600020549050600d600082815260200190815260200160002060050161196c846126e9565b60405160200161197d92919061474c565b604051602081830303815290604052915050919050565b60106020528060005260406000206000915090505481565b6060600d600083815260200190815260200160002060050180546119cf90613962565b80601f01602080910402602001604051908101604052809291908181526020018280546119fb90613962565b8015611a485780601f10611a1d57610100808354040283529160200191611a48565b820191906000526020600020905b815481529060010190602001808311611a2b57829003601f168201915b50505050509050919050565b6000600d600083815260200190815260200160002090503373ffffffffffffffffffffffffffffffffffffffff168160010160009054906101000a900473ffffffffffffffffffffffffffffffffffffffff1673ffffffffffffffffffffffffffffffffffffffff1614611afd576040517f08c379a0000000000000000000000000000000000000000000000000000000008152600401611af4906147bc565b60405180910390fd5b60006010600084815260200190815260200160002054905060008111611b58576040517f08c379a0000000000000000000000000000000000000000000000000000000008152600401611b4f90614828565b60405180910390fd5b600060106000858152602001908152602001600020819055508160010160009054906101000a900473ffffffffffffffffffffffffffffffffffffffff1673ffffffffffffffffffffffffffffffffffffffff166108fc829081150290604051600060405180830381858888f19350505050158015611bdb573d6000803e3d6000fd5b50505050565b6000600d6000838152602001908152602001600020600601549050919050565b6000600560008473ffffffffffffffffffffffffffffffffffffffff1673ffffffffffffffffffffffffffffffffffffffff16815260200190815260200160002060008373ffffffffffffffffffffffffffffffffffffffff1673ffffffffffffffffffffffffffffffffffffffff16815260200190815260200160002060009054906101000a900460ff16905092915050565b611c9d611ee8565b73ffffffffffffffffffffffffffffffffffffffff16611cbb611788565b73ffffffffffffffffffffffffffffffffffffffff1614611d11576040517f08c379a0000000000000000000000000000000000000000000000000000000008152600401611d0890613b95565b60405180910390fd5b600073ffffffffffffffffffffffffffffffffffffffff168173ffffffffffffffffffffffffffffffffffffffff1603611d80576040517f08c379a0000000000000000000000000000000000000000000000000000000008152600401611d77906148ba565b60405180910390fd5b611d898161245b565b50565b60007f80ac58cd000000000000000000000000000000000000000000000000000000007bffffffffffffffffffffffffffffffffffffffffffffffffffffffff1916827bffffffffffffffffffffffffffffffffffffffffffffffffffffffff19161480611e5757507f5b5e139f000000000000000000000000000000000000000000000000000000007bffffffffffffffffffffffffffffffffffffffffffffffffffffffff1916827bffffffffffffffffffffffffffffffffffffffffffffffffffffffff1916145b80611e675750611e6682612849565b5b9050919050565b60008073ffffffffffffffffffffffffffffffffffffffff166002600084815260200190815260200160002060009054906101000a900473ffffffffffffffffffffffffffffffffffffffff1673ffffffffffffffffffffffffffffffffffffffff1614159050919050565b600081600001549050919050565b600033905090565b816004600083815260200190815260200160002060006101000a81548173ffffffffffffffffffffffffffffffffffffffff021916908373ffffffffffffffffffffffffffffffffffffffff160217905550808273ffffffffffffffffffffffffffffffffffffffff16611f6383611598565b73ffffffffffffffffffffffffffffffffffffffff167f8c5be1e5ebec7d5bd14f71427d1e84f3dd0314c0f7b2291e5b200ac8c7c3b92560405160405180910390a45050565b611fb16113d2565b15611ff1576040517f08c379a0000000000000000000000000000000000000000000000000000000008152600401611fe890614240565b60405180910390fd5b6001600a60146101000a81548160ff0219169083151502179055507f62e78cea01bee320cd4e420270b5ea74000d11b0c9f74754ebdbfc544b05a258612035611ee8565b60405161204291906132b7565b60405180910390a1565b6120546113d2565b612093576040517f08c379a000000000000000000000000000000000000000000000000000000000815260040161208a90614926565b60405180910390fd5b6000600a60146101000a81548160ff0219169083151502179055507f5db9ee0a495bf2e6ff9c91a7834c1ba4fdd244a5e8aa4e537bd38aeae4b073aa6120d7611ee8565b6040516120e491906132b7565b60405180910390a1565b60006120f982611e6e565b612138576040517f08c379a000000000000000000000000000000000000000000000000000000000815260040161212f906149b8565b60405180910390fd5b600061214383611598565b90508073ffffffffffffffffffffffffffffffffffffffff168473ffffffffffffffffffffffffffffffffffffffff1614806121b257508373ffffffffffffffffffffffffffffffffffffffff1661219a8461097b565b73ffffffffffffffffffffffffffffffffffffffff16145b806121c357506121c28185611c01565b5b91505092915050565b8273ffffffffffffffffffffffffffffffffffffffff166121ec82611598565b73ffffffffffffffffffffffffffffffffffffffff1614612242576040517f08c379a000000000000000000000000000000000000000000000000000000000815260040161223990614a4a565b60405180910390fd5b600073ffffffffffffffffffffffffffffffffffffffff168273ffffffffffffffffffffffffffffffffffffffff16036122b1576040517f08c379a00000000000000000000000000000000000000000000000000000000081526004016122a890614adc565b60405180910390fd5b6122bc8383836128b3565b6122c7600082611ef0565b6001600360008573ffffffffffffffffffffffffffffffffffffffff1673ffffffffffffffffffffffffffffffffffffffff16815260200190815260200160002060008282546123179190614afc565b925050819055506001600360008473ffffffffffffffffffffffffffffffffffffffff1673ffffffffffffffffffffffffffffffffffffffff168152602001908152602001600020600082825461236e91906142fb565b92505081905550816002600083815260200190815260200160002060006101000a81548173ffffffffffffffffffffffffffffffffffffffff021916908373ffffffffffffffffffffffffffffffffffffffff160217905550808273ffffffffffffffffffffffffffffffffffffffff168473ffffffffffffffffffffffffffffffffffffffff167fddf252ad1be2c89b69c2b068fc378daa952ba7f163c4a11628f55a4df523b3ef60405160405180910390a4505050565b6001816000016000828254019250508190555050565b6124578282604051806020016040528060008152506129c5565b5050565b6000600a60009054906101000a900473ffffffffffffffffffffffffffffffffffffffff16905081600a60006101000a81548173ffffffffffffffffffffffffffffffffffffffff021916908373ffffffffffffffffffffffffffffffffffffffff1602179055508173ffffffffffffffffffffffffffffffffffffffff168173ffffffffffffffffffffffffffffffffffffffff167f8be0079c531659141344cd1fd0a4f28419497f9722a3daafe3b4186f6b6457e060405160405180910390a35050565b8173ffffffffffffffffffffffffffffffffffffffff168373ffffffffffffffffffffffffffffffffffffffff160361258f576040517f08c379a000000000000000000000000000000000000000000000000000000000815260040161258690614b7c565b60405180910390fd5b80600560008573ffffffffffffffffffffffffffffffffffffffff1673ffffffffffffffffffffffffffffffffffffffff16815260200190815260200160002060008473ffffffffffffffffffffffffffffffffffffffff1673ffffffffffffffffffffffffffffffffffffffff16815260200190815260200160002060006101000a81548160ff0219169083151502179055508173ffffffffffffffffffffffffffffffffffffffff168373ffffffffffffffffffffffffffffffffffffffff167f17307eab39ab6107e8899845ad3d59bd9653f200f220920489ca2b5937696c31836040516126809190613146565b60405180910390a3505050565b6126988484846121cc565b6126a484848484612a20565b6126e3576040517f08c379a00000000000000000000000000000000000000000000000000000000081526004016126da90614c0e565b60405180910390fd5b50505050565b606060008203612730576040518060400160405280600181526020017f30000000000000000000000000000000000000000000000000000000000000008152509050612844565b600082905060005b6000821461276257808061274b906144b5565b915050600a8261275b9190614c5d565b9150612738565b60008167ffffffffffffffff81111561277e5761277d61352b565b5b6040519080825280601f01601f1916602001820160405280156127b05781602001600182028036833780820191505090505b5090505b6000851461283d576001826127c99190614afc565b9150600a856127d89190614c8e565b60306127e491906142fb565b60f81b8183815181106127fa576127f9613d6b565b5b60200101907effffffffffffffffffffffffffffffffffffffffffffffffffffffffffffff1916908160001a905350600a856128369190614c5d565b94506127b4565b8093505050505b919050565b60007f01ffc9a7000000000000000000000000000000000000000000000000000000007bffffffffffffffffffffffffffffffffffffffffffffffffffffffff1916827bffffffffffffffffffffffffffffffffffffffffffffffffffffffff1916149050919050565b6128be838383612ba7565b600073ffffffffffffffffffffffffffffffffffffffff168373ffffffffffffffffffffffffffffffffffffffff1603612900576128fb81612bac565b61293f565b8173ffffffffffffffffffffffffffffffffffffffff168373ffffffffffffffffffffffffffffffffffffffff161461293e5761293d8382612bf5565b5b5b600073ffffffffffffffffffffffffffffffffffffffff168273ffffffffffffffffffffffffffffffffffffffff16036129815761297c81612d62565b6129c0565b8273ffffffffffffffffffffffffffffffffffffffff168273ffffffffffffffffffffffffffffffffffffffff16146129bf576129be8282612e33565b5b5b505050565b6129cf8383612eb2565b6129dc6000848484612a20565b612a1b576040517f08c379a0000000000000000000000000000000000000000000000000000000008152600401612a1290614c0e565b60405180910390fd5b505050565b6000612a418473ffffffffffffffffffffffffffffffffffffffff1661307f565b15612b9a578373ffffffffffffffffffffffffffffffffffffffff1663150b7a02612a6a611ee8565b8786866040518563ffffffff1660e01b8152600401612a8c9493929190614d14565b6020604051808303816000875af1925050508015612ac857506040513d601f19601f82011682018060405250810190612ac59190614d75565b60015b612b4a573d8060008114612af8576040519150601f19603f3d011682016040523d82523d6000602084013e612afd565b606091505b506000815103612b42576040517f08c379a0000000000000000000000000000000000000000000000000000000008152600401612b3990614c0e565b60405180910390fd5b805181602001fd5b63150b7a0260e01b7bffffffffffffffffffffffffffffffffffffffffffffffffffffffff1916817bffffffffffffffffffffffffffffffffffffffffffffffffffffffff191614915050612b9f565b600190505b949350505050565b505050565b6008805490506009600083815260200190815260200160002081905550600881908060018154018082558091505060019003906000526020600020016000909190919091505550565b60006001612c0284611649565b612c0c9190614afc565b9050600060076000848152602001908152602001600020549050818114612cf1576000600660008673ffffffffffffffffffffffffffffffffffffffff1673ffffffffffffffffffffffffffffffffffffffff168152602001908152602001600020600084815260200190815260200160002054905080600660008773ffffffffffffffffffffffffffffffffffffffff1673ffffffffffffffffffffffffffffffffffffffff168152602001908152602001600020600084815260200190815260200160002081905550816007600083815260200190815260200160002081905550505b6007600084815260200190815260200160002060009055600660008573ffffffffffffffffffffffffffffffffffffffff1673ffffffffffffffffffffffffffffffffffffffff16815260200190815260200160002060008381526020019081526020016000206000905550505050565b60006001600880549050612d769190614afc565b9050600060096000848152602001908152602001600020549050600060088381548110612da657612da5613d6b565b5b906000526020600020015490508060088381548110612dc857612dc7613d6b565b5b906000526020600020018190555081600960008381526020019081526020016000208190555060096000858152602001908152602001600020600090556008805480612e1757612e16614da2565b5b6001900381819060005260206000200160009055905550505050565b6000612e3e83611649565b905081600660008573ffffffffffffffffffffffffffffffffffffffff1673ffffffffffffffffffffffffffffffffffffffff168152602001908152602001600020600083815260200190815260200160002081905550806007600084815260200190815260200160002081905550505050565b600073ffffffffffffffffffffffffffffffffffffffff168273ffffffffffffffffffffffffffffffffffffffff1603612f21576040517f08c379a0000000000000000000000000000000000000000000000000000000008152600401612f1890614e1d565b60405180910390fd5b612f2a81611e6e565b15612f6a576040517f08c379a0000000000000000000000000000000000000000000000000000000008152600401612f6190614e89565b60405180910390fd5b612f76600083836128b3565b6001600360008473ffffffffffffffffffffffffffffffffffffffff1673ffffffffffffffffffffffffffffffffffffffff1681526020019081526020016000206000828254612fc691906142fb565b92505081905550816002600083815260200190815260200160002060006101000a81548173ffffffffffffffffffffffffffffffffffffffff021916908373ffffffffffffffffffffffffffffffffffffffff160217905550808273ffffffffffffffffffffffffffffffffffffffff16600073ffffffffffffffffffffffffffffffffffffffff167fddf252ad1be2c89b69c2b068fc378daa952ba7f163c4a11628f55a4df523b3ef60405160405180910390a45050565b600080823b905060008111915050919050565b6000604051905090565b600080fd5b600080fd5b60007fffffffff0000000000000000000000000000000000000000000000000000000082169050919050565b6130db816130a6565b81146130e657600080fd5b50565b6000813590506130f8816130d2565b92915050565b6000602082840312156131145761311361309c565b5b6000613122848285016130e9565b91505092915050565b60008115159050919050565b6131408161312b565b82525050565b600060208201905061315b6000830184613137565b92915050565b600081519050919050565b600082825260208201905092915050565b60005b8381101561319b578082015181840152602081019050613180565b60008484015250505050565b6000601f19601f8301169050919050565b60006131c382613161565b6131cd818561316c565b93506131dd81856020860161317d565b6131e6816131a7565b840191505092915050565b6000602082019050818103600083015261320b81846131b8565b905092915050565b6000819050919050565b61322681613213565b811461323157600080fd5b50565b6000813590506132438161321d565b92915050565b60006020828403121561325f5761325e61309c565b5b600061326d84828501613234565b91505092915050565b600073ffffffffffffffffffffffffffffffffffffffff82169050919050565b60006132a182613276565b9050919050565b6132b181613296565b82525050565b60006020820190506132cc60008301846132a8565b92915050565b6132db81613213565b82525050565b60006020820190506132f660008301846132d2565b92915050565b61330581613296565b811461331057600080fd5b50565b600081359050613322816132fc565b92915050565b6000806040838503121561333f5761333e61309c565b5b600061334d85828601613313565b925050602061335e85828601613234565b9150509250929050565b60006020828403121561337e5761337d61309c565b5b600061338c84828501613313565b91505092915050565b600081519050919050565b600082825260208201905092915050565b6000819050602082019050919050565b6133ca81613213565b82525050565b60006133dc83836133c1565b60208301905092915050565b6000602082019050919050565b600061340082613395565b61340a81856133a0565b9350613415836133b1565b8060005b8381101561344657815161342d88826133d0565b9750613438836133e8565b925050600181019050613419565b5085935050505092915050565b6000602082019050818103600083015261346d81846133f5565b905092915050565b61347e8161312b565b811461348957600080fd5b50565b60008135905061349b81613475565b92915050565b6000602082840312156134b7576134b661309c565b5b60006134c58482850161348c565b91505092915050565b6000806000606084860312156134e7576134e661309c565b5b60006134f586828701613313565b935050602061350686828701613313565b925050604061351786828701613234565b9150509250925092565b600080fd5b600080fd5b7f4e487b7100000000000000000000000000000000000000000000000000000000600052604160045260246000fd5b613563826131a7565b810181811067ffffffffffffffff821117156135825761358161352b565b5b80604052505050565b6000613595613092565b90506135a1828261355a565b919050565b600067ffffffffffffffff8211156135c1576135c061352b565b5b6135ca826131a7565b9050602081019050919050565b82818337600083830152505050565b60006135f96135f4846135a6565b61358b565b90508281526020810184848401111561361557613614613526565b5b6136208482856135d7565b509392505050565b600082601f83011261363d5761363c613521565b5b813561364d8482602086016135e6565b91505092915050565b600080600080608085870312156136705761366f61309c565b5b600061367e87828801613234565b945050602061368f87828801613234565b93505060406136a087828801613234565b925050606085013567ffffffffffffffff8111156136c1576136c06130a1565b5b6136cd87828801613628565b91505092959194509250565b600080604083850312156136f0576136ef61309c565b5b60006136fe85828601613234565b925050602061370f85828601613234565b9150509250929050565b600060e08201905061372e600083018a6132d2565b61373b60208301896132a8565b61374860408301886132d2565b61375560608301876132d2565b61376260808301866132d2565b81810360a083015261377481856131b8565b905061378360c08301846132d2565b98975050505050505050565b600080604083850312156137a6576137a561309c565b5b60006137b485828601613313565b92505060206137c58582860161348c565b9150509250929050565b600067ffffffffffffffff8211156137ea576137e961352b565b5b6137f3826131a7565b9050602081019050919050565b600061381361380e846137cf565b61358b565b90508281526020810184848401111561382f5761382e613526565b5b61383a8482856135d7565b509392505050565b600082601f83011261385757613856613521565b5b8135613867848260208601613800565b91505092915050565b6000806000806080858703121561388a5761388961309c565b5b600061389887828801613313565b94505060206138a987828801613313565b93505060406138ba87828801613234565b925050606085013567ffffffffffffffff8111156138db576138da6130a1565b5b6138e787828801613842565b91505092959194509250565b6000806040838503121561390a5761390961309c565b5b600061391885828601613313565b925050602061392985828601613313565b9150509250929050565b7f4e487b7100000000000000000000000000000000000000000000000000000000600052602260045260246000fd5b6000600282049050600182168061397a57607f821691505b60208210810361398d5761398c613933565b5b50919050565b7f4552433732313a20617070726f76656420717565727920666f72206e6f6e657860008201527f697374656e7420746f6b656e0000000000000000000000000000000000000000602082015250565b60006139ef602c8361316c565b91506139fa82613993565b604082019050919050565b60006020820190508181036000830152613a1e816139e2565b9050919050565b7f4552433732313a20617070726f76616c20746f2063757272656e74206f776e6560008201527f7200000000000000000000000000000000000000000000000000000000000000602082015250565b6000613a8160218361316c565b9150613a8c82613a25565b604082019050919050565b60006020820190508181036000830152613ab081613a74565b9050919050565b7f4552433732313a20617070726f76652063616c6c6572206973206e6f74206f7760008201527f6e6572206e6f7220617070726f76656420666f7220616c6c0000000000000000602082015250565b6000613b1360388361316c565b9150613b1e82613ab7565b604082019050919050565b60006020820190508181036000830152613b4281613b06565b9050919050565b7f4f776e61626c653a2063616c6c6572206973206e6f7420746865206f776e6572600082015250565b6000613b7f60208361316c565b9150613b8a82613b49565b602082019050919050565b60006020820190508181036000830152613bae81613b72565b9050919050565b7f4552433732313a207472616e736665722063616c6c6572206973206e6f74206f60008201527f776e6572206e6f7220617070726f766564000000000000000000000000000000602082015250565b6000613c1160318361316c565b9150613c1c82613bb5565b604082019050919050565b60006020820190508181036000830152613c4081613c04565b9050919050565b7f455243373231456e756d657261626c653a206f776e657220696e646578206f7560008201527f74206f6620626f756e6473000000000000000000000000000000000000000000602082015250565b6000613ca3602b8361316c565b9150613cae82613c47565b604082019050919050565b60006020820190508181036000830152613cd281613c96565b9050919050565b7f455243373231456e756d657261626c653a20676c6f62616c20696e646578206f60008201527f7574206f6620626f756e64730000000000000000000000000000000000000000602082015250565b6000613d35602c8361316c565b9150613d4082613cd9565b604082019050919050565b60006020820190508181036000830152613d6481613d28565b9050919050565b7f4e487b7100000000000000000000000000000000000000000000000000000000600052603260045260246000fd5b7f4d617820737570706c79206d7573742062652067726561746572207468616e2060008201527f3000000000000000000000000000000000000000000000000000000000000000602082015250565b6000613df660218361316c565b9150613e0182613d9a565b604082019050919050565b60006020820190508181036000830152613e2581613de9565b9050919050565b7f5072696365206d7573742062652067726561746572207468616e203000000000600082015250565b6000613e62601c8361316c565b9150613e6d82613e2c565b602082019050919050565b60006020820190508181036000830152613e9181613e55565b9050919050565b7f4d6178207065722077616c6c6574206d7573742062652067726561746572207460008201527f68616e2030000000000000000000000000000000000000000000000000000000602082015250565b6000613ef460258361316c565b9150613eff82613e98565b604082019050919050565b60006020820190508181036000830152613f2381613ee7565b9050919050565b60008190508160005260206000209050919050565b60006020601f8301049050919050565b600082821b905092915050565b600060088302613f8c7fffffffffffffffffffffffffffffffffffffffffffffffffffffffffffffffff82613f4f565b613f968683613f4f565b95508019841693508086168417925050509392505050565b6000819050919050565b6000613fd3613fce613fc984613213565b613fae565b613213565b9050919050565b6000819050919050565b613fed83613fb8565b614001613ff982613fda565b848454613f5c565b825550505050565b600090565b614016614009565b614021818484613fe4565b505050565b5b818110156140455761403a60008261400e565b600181019050614027565b5050565b601f82111561408a5761405b81613f2a565b61406484613f3f565b81016020851015614073578190505b61408761407f85613f3f565b830182614026565b50505b505050565b600082821c905092915050565b60006140ad6000198460080261408f565b1980831691505092915050565b60006140c6838361409c565b9150826002028217905092915050565b6140df82613161565b67ffffffffffffffff8111156140f8576140f761352b565b5b6141028254613962565b61410d828285614049565b600060209050601f831160018114614140576000841561412e578287015190505b61413885826140ba565b8655506141a0565b601f19841661414e86613f2a565b60005b8281101561417657848901518255600182019150602085019450602081019050614151565b86831015614193578489015161418f601f89168261409c565b8355505b6001600288020188555050505b505050505050565b60006080820190506141bd60008301876132d2565b6141ca60208301866132d2565b6141d760408301856132d2565b81810360608301526141e981846131b8565b905095945050505050565b7f5061757361626c653a2070617573656400000000000000000000000000000000600082015250565b600061422a60108361316c565b9150614235826141f4565b602082019050919050565b600060208201905081810360008301526142598161421d565b9050919050565b7f44726f7020646f6573206e6f7420657869737400000000000000000000000000600082015250565b600061429660138361316c565b91506142a182614260565b602082019050919050565b600060208201905081810360008301526142c581614289565b9050919050565b7f4e487b7100000000000000000000000000000000000000000000000000000000600052601160045260246000fd5b600061430682613213565b915061431183613213565b9250828201905080821115614329576143286142cc565b5b92915050565b7f45786365656473206d617820737570706c790000000000000000000000000000600082015250565b600061436560128361316c565b91506143708261432f565b602082019050919050565b6000602082019050818103600083015261439481614358565b9050919050565b7f45786365656473206d6178207065722077616c6c657400000000000000000000600082015250565b60006143d160168361316c565b91506143dc8261439b565b602082019050919050565b60006020820190508181036000830152614400816143c4565b9050919050565b600061441282613213565b915061441d83613213565b925082820261442b81613213565b91508282048414831517614442576144416142cc565b5b5092915050565b7f496e73756666696369656e74207061796d656e74000000000000000000000000600082015250565b600061447f60148361316c565b915061448a82614449565b602082019050919050565b600060208201905081810360008301526144ae81614472565b9050919050565b60006144c082613213565b91507fffffffffffffffffffffffffffffffffffffffffffffffffffffffffffffffff82036144f2576144f16142cc565b5b600182019050919050565b7f4552433732313a206f776e657220717565727920666f72206e6f6e657869737460008201527f656e7420746f6b656e0000000000000000000000000000000000000000000000602082015250565b600061455960298361316c565b9150614564826144fd565b604082019050919050565b600060208201905081810360008301526145888161454c565b9050919050565b7f4552433732313a2062616c616e636520717565727920666f7220746865207a6560008201527f726f206164647265737300000000000000000000000000000000000000000000602082015250565b60006145eb602a8361316c565b91506145f68261458f565b604082019050919050565b6000602082019050818103600083015261461a816145de565b9050919050565b7f546f6b656e20646f6573206e6f74206578697374000000000000000000000000600082015250565b600061465760148361316c565b915061466282614621565b602082019050919050565b600060208201905081810360008301526146868161464a565b9050919050565b600081905092915050565b600081546146a581613962565b6146af818661468d565b945060018216600081146146ca57600181146146df57614712565b60ff1983168652811515820286019350614712565b6146e885613f2a565b60005b8381101561470a578154818901526001820191506020810190506146eb565b838801955050505b50505092915050565b600061472682613161565b614730818561468d565b935061474081856020860161317d565b80840191505092915050565b60006147588285614698565b9150614764828461471b565b91508190509392505050565b7f4e6f74207468652064726f702063726561746f72000000000000000000000000600082015250565b60006147a660148361316c565b91506147b182614770565b602082019050919050565b600060208201905081810360008301526147d581614799565b9050919050565b7f4e6f2066756e647320746f207769746864726177000000000000000000000000600082015250565b600061481260148361316c565b915061481d826147dc565b602082019050919050565b6000602082019050818103600083015261484181614805565b9050919050565b7f4f776e61626c653a206e6577206f776e657220697320746865207a65726f206160008201527f6464726573730000000000000000000000000000000000000000000000000000602082015250565b60006148a460268361316c565b91506148af82614848565b604082019050919050565b600060208201905081810360008301526148d381614897565b9050919050565b7f5061757361626c653a206e6f7420706175736564000000000000000000000000600082015250565b600061491060148361316c565b915061491b826148da565b602082019050919050565b6000602082019050818103600083015261493f81614903565b9050919050565b7f4552433732313a206f70657261746f7220717565727920666f72206e6f6e657860008201527f697374656e7420746f6b656e0000000000000000000000000000000000000000602082015250565b60006149a2602c8361316c565b91506149ad82614946565b604082019050919050565b600060208201905081810360008301526149d181614995565b9050919050565b7f4552433732313a207472616e73666572206f6620746f6b656e2074686174206960008201527f73206e6f74206f776e0000000000000000000000000000000000000000000000602082015250565b6000614a3460298361316c565b9150614a3f826149d8565b604082019050919050565b60006020820190508181036000830152614a6381614a27565b9050919050565b7f4552433732313a207472616e7366657220746f20746865207a65726f2061646460008201527f7265737300000000000000000000000000000000000000000000000000000000602082015250565b6000614ac660248361316c565b9150614ad182614a6a565b604082019050919050565b60006020820190508181036000830152614af581614ab9565b9050919050565b6000614b0782613213565b9150614b1283613213565b9250828203905081811115614b2a57614b296142cc565b5b92915050565b7f4552433732313a20617070726f766520746f2063616c6c657200000000000000600082015250565b6000614b6660198361316c565b9150614b7182614b30565b602082019050919050565b60006020820190508181036000830152614b9581614b59565b9050919050565b7f4552433732313a207472616e7366657220746f206e6f6e20455243373231526560008201527f63656976657220696d706c656d656e7465720000000000000000000000000000602082015250565b6000614bf860328361316c565b9150614c0382614b9c565b604082019050919050565b60006020820190508181036000830152614c2781614beb565b9050919050565b7f4e487b7100000000000000000000000000000000000000000000000000000000600052601260045260246000fd5b6000614c6882613213565b9150614c7383613213565b925082614c8357614c82614c2e565b5b828204905092915050565b6000614c9982613213565b9150614ca483613213565b925082614cb457614cb3614c2e565b5b828206905092915050565b600081519050919050565b600082825260208201905092915050565b6000614ce682614cbf565b614cf08185614cca565b9350614d0081856020860161317d565b614d09816131a7565b840191505092915050565b6000608082019050614d2960008301876132a8565b614d3660208301866132a8565b614d4360408301856132d2565b8181036060830152614d558184614cdb565b905095945050505050565b600081519050614d6f816130d2565b92915050565b600060208284031215614d8b57614d8a61309c565b5b6000614d9984828501614d60565b91505092915050565b7f4e487b7100000000000000000000000000000000000000000000000000000000600052603160045260246000fd5b7f4552433732313a206d696e7420746f20746865207a65726f2061646472657373600082015250565b6000614e0760208361316c565b9150614e1282614dd1565b602082019050919050565b60006020820190508181036000830152614e3681614dfa565b9050919050565b7f4552433732313a20746f6b656e20616c7265616479206d696e74656400000000600082015250565b6000614e73601c8361316c565b9150614e7e82614e3d565b602082019050919050565b60006020820190508181036000830152614ea281614e66565b905091905056fea2646970667358221220119507d0f8a40067c1fe465584e0b8250d74c6ce17d5768a0b550872e34cdc0e64736f6c634300081c0033",
  "linkReferences": {},
  "deployedLinkReferences": {}
}