{
  "_format": "hh-sol-artifact-1",
  "contractName": "NFTMarketplace",
  "sourceName": "contracts/NFTMarketplace.sol",
  "abi": [
    {
      "inputs": [
        {
          "internalType": "address",
          "name": "_feeRecipient",
          "type": "address"
        }
      ],
      "stateMutability": "nonpayable",
      "type": "constructor"
    },
    {
      "anonymous": false,
      "inputs": [
        {
          "indexed": true,
          "internalType": "address",
          "name": "nftContract",
          "type": "address"
        },
        {
          "indexed": true,
          "internalType": "uint256",
          "name": "tokenId",
          "type": "uint256"
        },
        {
          "indexed": true,
          "internalType": "address",
          "name": "seller",
          "type": "address"
        },
        {
          "indexed": false,
          "internalType": "uint256",
          "name": "startPrice",
          "type": "uint256"
        },
        {
          "indexed": false,
          "internalType": "uint256",
          "name": "endTime",
          "type": "uint256"
        }
      ],
      "name": "AuctionCreated",
      "type": "event"
    },
    {
      "anonymous": false,
      "inputs": [
        {
          "indexed": true,
          "internalType": "address",
          "name": "nftContract",
          "type": "address"
        },
        {
          "indexed": true,
          "internalType": "uint256",
          "name": "tokenId",
          "type": "uint256"
        },
        {
          "indexed": true,
          "internalType": "address",
          "name": "seller",
          "type": "address"
        },
        {
          "indexed": false,
          "internalType": "address",
          "name": "winner",
          "type": "address"
        },
        {
          "indexed": false,
          "internalType": "uint256",
          "name": "winningBid",
          "type": "uint256"
        }
      ],
      "name": "AuctionEnded",
      "type": "event"
    },
    {
      "anonymous": false,
      "inputs": [
        {
          "indexed": true,
          "internalType": "address",
          "name": "nftContract",
          "type": "address"
        },
        {
          "indexed": true,
          "internalType": "uint256",
          "name": "tokenId",
          "type": "uint256"
        },
        {
          "indexed": true,
          "internalType": "address",
          "name": "bidder",
          "type": "address"
        },
        {
          "indexed": false,
          "internalType": "uint256",
          "name": "bidAmount",
          "type": "uint256"
        }
      ],
      "name": "BidPlaced",
      "type": "event"
    },
    {
      "anonymous": false,
      "inputs": [
        {
          "indexed": true,
          "internalType": "address",
          "name": "nftContract",
          "type": "address"
        },
        {
          "indexed": true,
          "internalType": "uint256",
          "name": "tokenId",
          "type": "uint256"
        },
        {
          "indexed": true,
          "internalType": "address",
          "name": "seller",
          "type": "address"
        },
        {
          "indexed": false,
          "internalType": "uint256",
          "name": "price",
          "type": "uint256"
        }
      ],
      "name": "NFTListedFixedPrice",
      "type": "event"
    },
    {
      "anonymous": false,
      "inputs": [
        {
          "indexed": true,
          "internalType": "address",
          "name": "nftContract",
          "type": "address"
        },
        {
          "indexed": true,
          "internalType": "uint256",
          "name": "tokenId",
          "type": "uint256"
        },
        {
          "indexed": true,
          "internalType": "address",
          "name": "seller",
          "type": "address"
        },
        {
          "indexed": false,
          "internalType": "address",
          "name": "buyer",
          "type": "address"
        },
        {
          "indexed": false,
          "internalType": "uint256",
          "name": "price",
          "type": "uint256"
        }
      ],
      "name": "NFTSoldFixedPrice",
      "type": "event"
    },
    {
      "anonymous": false,
      "inputs": [
        {
          "indexed": true,
          "internalType": "address",
          "name": "previousOwner",
          "type": "address"
        },
        {
          "indexed": true,
          "internalType": "address",
          "name": "newOwner",
          "type": "address"
        }
      ],
      "name": "OwnershipTransferred",
      "type": "event"
    },
    {
      "inputs": [
        {
          "internalType": "address",
          "name": "",
          "type": "address"
        },
        {
          "internalType": "uint256",
          "name": "",
          "type": "uint256"
        }
      ],
      "name": "auctionListings",
      "outputs": [
        {
          "internalType": "uint256",
          "name": "startPrice",
          "type": "uint256"
        },
        {
          "internalType": "uint256",
          "name": "highestBid",
          "type": "uint256"
        },
        {
          "internalType": "address",
          "name": "highestBidder",
          "type": "address"
        },
        {
          "internalType": "uint256",
          "name": "endTime",
          "type": "uint256"
        },
        {
          "internalType": "address",
          "name": "seller",
          "type": "address"
        }
      ],
      "stateMutability": "view",
      "type": "function"
    },
    {
      "inputs": [
        {
          "internalType": "address",
          "name": "nftContract",
          "type": "address"
        },
        {
          "internalType": "uint256",
          "name": "tokenId",
          "type": "uint256"
        }
      ],
      "name": "buyNFTFixedPrice",
      "outputs": [],
      "stateMutability": "payable",
      "type": "function"
    },
    {
      "inputs": [
        {
          "internalType": "address",
          "name": "nftContract",
          "type": "address"
        },
        {
          "internalType": "uint256",
          "name": "tokenId",
          "type": "uint256"
        },
        {
          "internalType": "uint256",
          "name": "startPrice",
          "type": "uint256"
        },
        {
          "internalType": "uint256",
          "name": "duration",
          "type": "uint256"
        }
      ],
      "name": "createAuction",
      "outputs": [],
      "stateMutability": "nonpayable",
      "type": "function"
    },
    {
      "inputs": [
        {
          "internalType": "address",
          "name": "nftContract",
          "type": "address"
        },
        {
          "internalType": "uint256",
          "name": "tokenId",
          "type": "uint256"
        }
      ],
      "name": "endAuction",
      "outputs": [],
      "stateMutability": "nonpayable",
      "type": "function"
    },
    {
      "inputs": [],
      "name": "feeRecipient",
      "outputs": [
        {
          "internalType": "address",
          "name": "",
          "type": "address"
        }
      ],
      "stateMutability": "view",
      "type": "function"
    },
    {
      "inputs": [
        {
          "internalType": "address",
          "name": "",
          "type": "address"
        },
        {
          "internalType": "uint256",
          "name": "",
          "type": "uint256"
        }
      ],
      "name": "fixedPriceListings",
      "outputs": [
        {
          "internalType": "uint256",
          "name": "price",
          "type": "uint256"
        },
        {
          "internalType": "address",
          "name": "seller",
          "type": "address"
        }
      ],
      "stateMutability": "view",
      "type": "function"
    },
    {
      "inputs": [
        {
          "internalType": "address",
          "name": "nftContract",
          "type": "address"
        },
        {
          "internalType": "uint256",
          "name": "tokenId",
          "type": "uint256"
        },
        {
          "internalType": "uint256",
          "name": "price",
          "type": "uint256"
        }
      ],
      "name": "listNFTFixedPrice",
      "outputs": [],
      "stateMutability": "nonpayable",
      "type": "function"
    },
    {
      "inputs": [],
      "name": "marketplaceFee",
      "outputs": [
        {
          "internalType": "uint256",
          "name": "",
          "type": "uint256"
        }
      ],
      "stateMutability": "view",
      "type": "function"
    },
    {
      "inputs": [],
      "name": "owner",
      "outputs": [
        {
          "internalType": "address",
          "name": "",
          "type": "address"
        }
      ],
      "stateMutability": "view",
      "type": "function"
    },
    {
      "inputs": [
        {
          "internalType": "address",
          "name": "nftContract",
          "type": "address"
        },
        {
          "internalType": "uint256",
          "name": "tokenId",
          "type": "uint256"
        }
      ],
      "name": "placeBid",
      "outputs": [],
      "stateMutability": "payable",
      "type": "function"
    },
    {
      "inputs": [],
      "name": "renounceOwnership",
      "outputs": [],
      "stateMutability": "nonpayable",
      "type": "function"
    },
    {
      "inputs": [
        {
          "internalType": "address",
          "name": "newOwner",
          "type": "address"
        }
      ],
      "name": "transferOwnership",
      "outputs": [],
      "stateMutability": "nonpayable",
      "type": "function"
    },
    {
      "inputs": [
        {
          "internalType": "address",
          "name": "newRecipient",
          "type": "address"
        }
      ],
      "name": "updateFeeRecipient",
      "outputs": [],
      "stateMutability": "nonpayable",
      "type": "function"
    },
    {
      "inputs": [
        {
          "internalType": "uint256",
          "name": "newFee",
          "type": "uint256"
        }
      ],
      "name": "updateMarketplaceFee",
      "outputs": [],
      "stateMutability": "nonpayable",
      "type": "function"
    }
  ],
  "bytecode": "0x6080604052601960045534801561001557600080fd5b50604051612ee8380380612ee883398181016040528101906100379190610325565b600160008190555061005b6100506100b160201b60201c565b6100b960201b60201c565b80600560006101000a81548173ffffffffffffffffffffffffffffffffffffffff021916908373ffffffffffffffffffffffffffffffffffffffff1602179055506100ab3361017f60201b60201c565b50610461565b600033905090565b6000600160009054906101000a900473ffffffffffffffffffffffffffffffffffffffff16905081600160006101000a81548173ffffffffffffffffffffffffffffffffffffffff021916908373ffffffffffffffffffffffffffffffffffffffff1602179055508173ffffffffffffffffffffffffffffffffffffffff168173ffffffffffffffffffffffffffffffffffffffff167f8be0079c531659141344cd1fd0a4f28419497f9722a3daafe3b4186f6b6457e060405160405180910390a35050565b61018d61020e60201b60201c565b600073ffffffffffffffffffffffffffffffffffffffff168173ffffffffffffffffffffffffffffffffffffffff16036101fc576040517f08c379a00000000000000000000000000000000000000000000000000000000081526004016101f3906103d5565b60405180910390fd5b61020b816100b960201b60201c565b50565b61021c6100b160201b60201c565b73ffffffffffffffffffffffffffffffffffffffff1661024061029860201b60201c565b73ffffffffffffffffffffffffffffffffffffffff1614610296576040517f08c379a000000000000000000000000000000000000000000000000000000000815260040161028d90610441565b60405180910390fd5b565b6000600160009054906101000a900473ffffffffffffffffffffffffffffffffffffffff16905090565b600080fd5b600073ffffffffffffffffffffffffffffffffffffffff82169050919050565b60006102f2826102c7565b9050919050565b610302816102e7565b811461030d57600080fd5b50565b60008151905061031f816102f9565b92915050565b60006020828403121561033b5761033a6102c2565b5b600061034984828501610310565b91505092915050565b600082825260208201905092915050565b7f4f776e61626c653a206e6577206f776e657220697320746865207a65726f206160008201527f6464726573730000000000000000000000000000000000000000000000000000602082015250565b60006103bf602683610352565b91506103ca82610363565b604082019050919050565b600060208201905081810360008301526103ee816103b2565b9050919050565b7f4f776e61626c653a2063616c6c6572206973206e6f7420746865206f776e6572600082015250565b600061042b602083610352565b9150610436826103f5565b602082019050919050565b6000602082019050818103600083015261045a8161041e565b9050919050565b612a78806104706000396000f3fe6080604052600436106100dd5760003560e01c806388cedbc41161007f578063b2ab6fc711610059578063b2ab6fc71461027b578063d98b9bb5146102b9578063f160d369146102d5578063f2fde38b146102fe576100dd565b806388cedbc41461020b5780638da5cb5b14610234578063ac57c60c1461025f576100dd565b806346904840116100bb578063469048401461017557806361beb1d7146101a05780636a166964146101c9578063715018a6146101f4576100dd565b8063185d1468146100e257806329c716571461010b57806330eb80cd1461014c575b600080fd5b3480156100ee57600080fd5b5061010960048036038101906101049190611d45565b610327565b005b34801561011757600080fd5b50610132600480360381019061012d9190611d98565b6106f5565b604051610143959493929190611df6565b60405180910390f35b34801561015857600080fd5b50610173600480360381019061016e9190611e49565b610778565b005b34801561018157600080fd5b5061018a6107cf565b6040516101979190611e76565b60405180910390f35b3480156101ac57600080fd5b506101c760048036038101906101c29190611e91565b6107f5565b005b3480156101d557600080fd5b506101de610d3d565b6040516101eb9190611ef8565b60405180910390f35b34801561020057600080fd5b50610209610d43565b005b34801561021757600080fd5b50610232600480360381019061022d9190611d98565b610d57565b005b34801561024057600080fd5b50610249611307565b6040516102569190611e76565b60405180910390f35b61027960048036038101906102749190611d98565b611331565b005b34801561028757600080fd5b506102a2600480360381019061029d9190611d98565b611709565b6040516102b0929190611f13565b60405180910390f35b6102d360048036038101906102ce9190611d98565b61175a565b005b3480156102e157600080fd5b506102fc60048036038101906102f79190611f3c565b6119c9565b005b34801561030a57600080fd5b5061032560048036038101906103209190611f3c565b611a84565b005b6000811161036a576040517f08c379a000000000000000000000000000000000000000000000000000000000815260040161036190611fc6565b60405180910390fd5b3373ffffffffffffffffffffffffffffffffffffffff168373ffffffffffffffffffffffffffffffffffffffff16636352211e846040518263ffffffff1660e01b81526004016103ba9190611ef8565b602060405180830381865afa1580156103d7573d6000803e3d6000fd5b505050506040513d601f19601f820116820180604052508101906103fb9190611ffb565b73ffffffffffffffffffffffffffffffffffffffff1614610451576040517f08c379a00000000000000000000000000000000000000000000000000000000081526004016104489061209a565b60405180910390fd5b3073ffffffffffffffffffffffffffffffffffffffff168373ffffffffffffffffffffffffffffffffffffffff1663081812fc846040518263ffffffff1660e01b81526004016104a19190611ef8565b602060405180830381865afa1580156104be573d6000803e3d6000fd5b505050506040513d601f19601f820116820180604052508101906104e29190611ffb565b73ffffffffffffffffffffffffffffffffffffffff16148061057c57508273ffffffffffffffffffffffffffffffffffffffff1663e985e9c533306040518363ffffffff1660e01b815260040161053a9291906120ba565b602060405180830381865afa158015610557573d6000803e3d6000fd5b505050506040513d601f19601f8201168201806040525081019061057b919061211b565b5b6105bb576040517f08c379a00000000000000000000000000000000000000000000000000000000081526004016105b2906121ba565b60405180910390fd5b60405180604001604052808281526020013373ffffffffffffffffffffffffffffffffffffffff16815250600260008573ffffffffffffffffffffffffffffffffffffffff1673ffffffffffffffffffffffffffffffffffffffff16815260200190815260200160002060008481526020019081526020016000206000820151816000015560208201518160010160006101000a81548173ffffffffffffffffffffffffffffffffffffffff021916908373ffffffffffffffffffffffffffffffffffffffff1602179055509050503373ffffffffffffffffffffffffffffffffffffffff16828473ffffffffffffffffffffffffffffffffffffffff167fee79a52436c5343cc72fc219158600d0fd9f81e70d911c3551021a1eb2a0823b846040516106e89190611ef8565b60405180910390a4505050565b6003602052816000526040600020602052806000526040600020600091509150508060000154908060010154908060020160009054906101000a900473ffffffffffffffffffffffffffffffffffffffff16908060030154908060040160009054906101000a900473ffffffffffffffffffffffffffffffffffffffff16905085565b610780611b07565b6103e88111156107c5576040517f08c379a00000000000000000000000000000000000000000000000000000000081526004016107bc90612226565b60405180910390fd5b8060048190555050565b600560009054906101000a900473ffffffffffffffffffffffffffffffffffffffff1681565b60008211610838576040517f08c379a000000000000000000000000000000000000000000000000000000000815260040161082f906122b8565b60405180910390fd5b3373ffffffffffffffffffffffffffffffffffffffff168473ffffffffffffffffffffffffffffffffffffffff16636352211e856040518263ffffffff1660e01b81526004016108889190611ef8565b602060405180830381865afa1580156108a5573d6000803e3d6000fd5b505050506040513d601f19601f820116820180604052508101906108c99190611ffb565b73ffffffffffffffffffffffffffffffffffffffff161461091f576040517f08c379a00000000000000000000000000000000000000000000000000000000081526004016109169061209a565b60405180910390fd5b3073ffffffffffffffffffffffffffffffffffffffff168473ffffffffffffffffffffffffffffffffffffffff1663081812fc856040518263ffffffff1660e01b815260040161096f9190611ef8565b602060405180830381865afa15801561098c573d6000803e3d6000fd5b505050506040513d601f19601f820116820180604052508101906109b09190611ffb565b73ffffffffffffffffffffffffffffffffffffffff161480610a4a57508373ffffffffffffffffffffffffffffffffffffffff1663e985e9c533306040518363ffffffff1660e01b8152600401610a089291906120ba565b602060405180830381865afa158015610a25573d6000803e3d6000fd5b505050506040513d601f19601f82011682018060405250810190610a49919061211b565b5b610a89576040517f08c379a0000000000000000000000000000000000000000000000000000000008152600401610a80906121ba565b60405180910390fd5b600073ffffffffffffffffffffffffffffffffffffffff16600360008673ffffffffffffffffffffffffffffffffffffffff1673ffffffffffffffffffffffffffffffffffffffff168152602001908152602001600020600085815260200190815260200160002060040160009054906101000a900473ffffffffffffffffffffffffffffffffffffffff1673ffffffffffffffffffffffffffffffffffffffff1614610b6b576040517f08c379a0000000000000000000000000000000000000000000000000000000008152600401610b629061234a565b60405180910390fd5b60008142610b799190612399565b90506040518060a00160405280848152602001848152602001600073ffffffffffffffffffffffffffffffffffffffff1681526020018281526020013373ffffffffffffffffffffffffffffffffffffffff16815250600360008773ffffffffffffffffffffffffffffffffffffffff1673ffffffffffffffffffffffffffffffffffffffff1681526020019081526020016000206000868152602001908152602001600020600082015181600001556020820151816001015560408201518160020160006101000a81548173ffffffffffffffffffffffffffffffffffffffff021916908373ffffffffffffffffffffffffffffffffffffffff1602179055506060820151816003015560808201518160040160006101000a81548173ffffffffffffffffffffffffffffffffffffffff021916908373ffffffffffffffffffffffffffffffffffffffff1602179055509050503373ffffffffffffffffffffffffffffffffffffffff16848673ffffffffffffffffffffffffffffffffffffffff167feeb8a66f59ee07b48e9116047f8bd98f651e4c76f74f3daf44ce1d592130bccc8685604051610d2e9291906123cd565b60405180910390a45050505050565b60045481565b610d4b611b07565b610d556000611b85565b565b610d5f611c4b565b6000600360008473ffffffffffffffffffffffffffffffffffffffff1673ffffffffffffffffffffffffffffffffffffffff16815260200190815260200160002060008381526020019081526020016000206040518060a001604052908160008201548152602001600182015481526020016002820160009054906101000a900473ffffffffffffffffffffffffffffffffffffffff1673ffffffffffffffffffffffffffffffffffffffff1673ffffffffffffffffffffffffffffffffffffffff168152602001600382015481526020016004820160009054906101000a900473ffffffffffffffffffffffffffffffffffffffff1673ffffffffffffffffffffffffffffffffffffffff1673ffffffffffffffffffffffffffffffffffffffff16815250509050600073ffffffffffffffffffffffffffffffffffffffff16816080015173ffffffffffffffffffffffffffffffffffffffff1603610efb576040517f08c379a0000000000000000000000000000000000000000000000000000000008152600401610ef290612442565b60405180910390fd5b8060600151421015610f42576040517f08c379a0000000000000000000000000000000000000000000000000000000008152600401610f39906124ae565b60405180910390fd5b3373ffffffffffffffffffffffffffffffffffffffff16816080015173ffffffffffffffffffffffffffffffffffffffff1614610fb4576040517f08c379a0000000000000000000000000000000000000000000000000000000008152600401610fab90612540565b60405180910390fd5b600073ffffffffffffffffffffffffffffffffffffffff16816040015173ffffffffffffffffffffffffffffffffffffffff16146111555760006103e860045483602001516110039190612560565b61100d91906125d1565b905060008183602001516110219190612602565b9050826080015173ffffffffffffffffffffffffffffffffffffffff166108fc829081150290604051600060405180830381858888f1935050505015801561106d573d6000803e3d6000fd5b50600560009054906101000a900473ffffffffffffffffffffffffffffffffffffffff1673ffffffffffffffffffffffffffffffffffffffff166108fc839081150290604051600060405180830381858888f193505050501580156110d6573d6000803e3d6000fd5b508473ffffffffffffffffffffffffffffffffffffffff166342842e0e84608001518560400151876040518463ffffffff1660e01b815260040161111c93929190612636565b600060405180830381600087803b15801561113657600080fd5b505af115801561114a573d6000803e3d6000fd5b5050505050506111cd565b8273ffffffffffffffffffffffffffffffffffffffff166342842e0e82608001518360800151856040518463ffffffff1660e01b815260040161119a93929190612636565b600060405180830381600087803b1580156111b457600080fd5b505af11580156111c8573d6000803e3d6000fd5b505050505b600360008473ffffffffffffffffffffffffffffffffffffffff1673ffffffffffffffffffffffffffffffffffffffff168152602001908152602001600020600083815260200190815260200160002060008082016000905560018201600090556002820160006101000a81549073ffffffffffffffffffffffffffffffffffffffff021916905560038201600090556004820160006101000a81549073ffffffffffffffffffffffffffffffffffffffff02191690555050806080015173ffffffffffffffffffffffffffffffffffffffff16828473ffffffffffffffffffffffffffffffffffffffff167f3ad0b0e3f54f26c98d8ad06397c09ab52a0525e80fe312eb7ac8415983604cdd846040015185602001516040516112f292919061266d565b60405180910390a450611303611c9a565b5050565b6000600160009054906101000a900473ffffffffffffffffffffffffffffffffffffffff16905090565b611339611c4b565b6000600260008473ffffffffffffffffffffffffffffffffffffffff1673ffffffffffffffffffffffffffffffffffffffff1681526020019081526020016000206000838152602001908152602001600020604051806040016040529081600082015481526020016001820160009054906101000a900473ffffffffffffffffffffffffffffffffffffffff1673ffffffffffffffffffffffffffffffffffffffff1673ffffffffffffffffffffffffffffffffffffffff16815250509050600073ffffffffffffffffffffffffffffffffffffffff16816020015173ffffffffffffffffffffffffffffffffffffffff160361146b576040517f08c379a0000000000000000000000000000000000000000000000000000000008152600401611462906126e2565b60405180910390fd5b80600001513410156114b2576040517f08c379a00000000000000000000000000000000000000000000000000000000081526004016114a99061274e565b60405180910390fd5b60006103e8600454346114c59190612560565b6114cf91906125d1565b9050600081346114df9190612602565b9050826020015173ffffffffffffffffffffffffffffffffffffffff166108fc829081150290604051600060405180830381858888f1935050505015801561152b573d6000803e3d6000fd5b50600560009054906101000a900473ffffffffffffffffffffffffffffffffffffffff1673ffffffffffffffffffffffffffffffffffffffff166108fc839081150290604051600060405180830381858888f19350505050158015611594573d6000803e3d6000fd5b508473ffffffffffffffffffffffffffffffffffffffff166342842e0e846020015133876040518463ffffffff1660e01b81526004016115d693929190612636565b600060405180830381600087803b1580156115f057600080fd5b505af1158015611604573d6000803e3d6000fd5b50505050600260008673ffffffffffffffffffffffffffffffffffffffff1673ffffffffffffffffffffffffffffffffffffffff16815260200190815260200160002060008581526020019081526020016000206000808201600090556001820160006101000a81549073ffffffffffffffffffffffffffffffffffffffff02191690555050826020015173ffffffffffffffffffffffffffffffffffffffff16848673ffffffffffffffffffffffffffffffffffffffff167f180429b9da2af5bda99efdeda3d7059b16c8208ca1fbf11a00f8c396d426c0053387600001516040516116f292919061266d565b60405180910390a4505050611705611c9a565b5050565b6002602052816000526040600020602052806000526040600020600091509150508060000154908060010160009054906101000a900473ffffffffffffffffffffffffffffffffffffffff16905082565b611762611c4b565b6000600360008473ffffffffffffffffffffffffffffffffffffffff1673ffffffffffffffffffffffffffffffffffffffff16815260200190815260200160002060008381526020019081526020016000209050806003015442106117fc576040517f08c379a00000000000000000000000000000000000000000000000000000000081526004016117f3906127ba565b60405180910390fd5b80600101543411611842576040517f08c379a00000000000000000000000000000000000000000000000000000000081526004016118399061284c565b60405180910390fd5b600073ffffffffffffffffffffffffffffffffffffffff168160020160009054906101000a900473ffffffffffffffffffffffffffffffffffffffff1673ffffffffffffffffffffffffffffffffffffffff161461190a578060020160009054906101000a900473ffffffffffffffffffffffffffffffffffffffff1673ffffffffffffffffffffffffffffffffffffffff166108fc82600101549081150290604051600060405180830381858888f19350505050158015611908573d6000803e3d6000fd5b505b348160010181905550338160020160006101000a81548173ffffffffffffffffffffffffffffffffffffffff021916908373ffffffffffffffffffffffffffffffffffffffff1602179055503373ffffffffffffffffffffffffffffffffffffffff16828473ffffffffffffffffffffffffffffffffffffffff167f0158f5674dc243762459b88cfc91b10d2d1ef9d40821cca978c2b680aa444682346040516119b49190611ef8565b60405180910390a4506119c5611c9a565b5050565b6119d1611b07565b600073ffffffffffffffffffffffffffffffffffffffff168173ffffffffffffffffffffffffffffffffffffffff1603611a40576040517f08c379a0000000000000000000000000000000000000000000000000000000008152600401611a37906128b8565b60405180910390fd5b80600560006101000a81548173ffffffffffffffffffffffffffffffffffffffff021916908373ffffffffffffffffffffffffffffffffffffffff16021790555050565b611a8c611b07565b600073ffffffffffffffffffffffffffffffffffffffff168173ffffffffffffffffffffffffffffffffffffffff1603611afb576040517f08c379a0000000000000000000000000000000000000000000000000000000008152600401611af29061294a565b60405180910390fd5b611b0481611b85565b50565b611b0f611ca4565b73ffffffffffffffffffffffffffffffffffffffff16611b2d611307565b73ffffffffffffffffffffffffffffffffffffffff1614611b83576040517f08c379a0000000000000000000000000000000000000000000000000000000008152600401611b7a906129b6565b60405180910390fd5b565b6000600160009054906101000a900473ffffffffffffffffffffffffffffffffffffffff16905081600160006101000a81548173ffffffffffffffffffffffffffffffffffffffff021916908373ffffffffffffffffffffffffffffffffffffffff1602179055508173ffffffffffffffffffffffffffffffffffffffff168173ffffffffffffffffffffffffffffffffffffffff167f8be0079c531659141344cd1fd0a4f28419497f9722a3daafe3b4186f6b6457e060405160405180910390a35050565b600260005403611c90576040517f08c379a0000000000000000000000000000000000000000000000000000000008152600401611c8790612a22565b60405180910390fd5b6002600081905550565b6001600081905550565b600033905090565b600080fd5b600073ffffffffffffffffffffffffffffffffffffffff82169050919050565b6000611cdc82611cb1565b9050919050565b611cec81611cd1565b8114611cf757600080fd5b50565b600081359050611d0981611ce3565b92915050565b6000819050919050565b611d2281611d0f565b8114611d2d57600080fd5b50565b600081359050611d3f81611d19565b92915050565b600080600060608486031215611d5e57611d5d611cac565b5b6000611d6c86828701611cfa565b9350506020611d7d86828701611d30565b9250506040611d8e86828701611d30565b9150509250925092565b60008060408385031215611daf57611dae611cac565b5b6000611dbd85828601611cfa565b9250506020611dce85828601611d30565b9150509250929050565b611de181611d0f565b82525050565b611df081611cd1565b82525050565b600060a082019050611e0b6000830188611dd8565b611e186020830187611dd8565b611e256040830186611de7565b611e326060830185611dd8565b611e3f6080830184611de7565b9695505050505050565b600060208284031215611e5f57611e5e611cac565b5b6000611e6d84828501611d30565b91505092915050565b6000602082019050611e8b6000830184611de7565b92915050565b60008060008060808587031215611eab57611eaa611cac565b5b6000611eb987828801611cfa565b9450506020611eca87828801611d30565b9350506040611edb87828801611d30565b9250506060611eec87828801611d30565b91505092959194509250565b6000602082019050611f0d6000830184611dd8565b92915050565b6000604082019050611f286000830185611dd8565b611f356020830184611de7565b9392505050565b600060208284031215611f5257611f51611cac565b5b6000611f6084828501611cfa565b91505092915050565b600082825260208201905092915050565b7f5072696365206d7573742062652067726561746572207468616e203000000000600082015250565b6000611fb0601c83611f69565b9150611fbb82611f7a565b602082019050919050565b60006020820190508181036000830152611fdf81611fa3565b9050919050565b600081519050611ff581611ce3565b92915050565b60006020828403121561201157612010611cac565b5b600061201f84828501611fe6565b91505092915050565b7f596f7520617265206e6f7420746865206f776e6572206f662074686973204e4660008201527f5400000000000000000000000000000000000000000000000000000000000000602082015250565b6000612084602183611f69565b915061208f82612028565b604082019050919050565b600060208201905081810360008301526120b381612077565b9050919050565b60006040820190506120cf6000830185611de7565b6120dc6020830184611de7565b9392505050565b60008115159050919050565b6120f8816120e3565b811461210357600080fd5b50565b600081519050612115816120ef565b92915050565b60006020828403121561213157612130611cac565b5b600061213f84828501612106565b91505092915050565b7f4d61726b6574706c616365206973206e6f7420617070726f76656420746f207460008201527f72616e736665722074686973204e465400000000000000000000000000000000602082015250565b60006121a4603083611f69565b91506121af82612148565b604082019050919050565b600060208201905081810360008301526121d381612197565b9050919050565b7f4665652063616e6e6f7420657863656564203130250000000000000000000000600082015250565b6000612210601583611f69565b915061221b826121da565b602082019050919050565b6000602082019050818103600083015261223f81612203565b9050919050565b7f5374617274207072696365206d7573742062652067726561746572207468616e60008201527f2030000000000000000000000000000000000000000000000000000000000000602082015250565b60006122a2602283611f69565b91506122ad82612246565b604082019050919050565b600060208201905081810360008301526122d181612295565b9050919050565b7f4e465420697320616c7265616479206c697374656420696e20616e206175637460008201527f696f6e0000000000000000000000000000000000000000000000000000000000602082015250565b6000612334602383611f69565b915061233f826122d8565b604082019050919050565b6000602082019050818103600083015261236381612327565b9050919050565b7f4e487b7100000000000000000000000000000000000000000000000000000000600052601160045260246000fd5b60006123a482611d0f565b91506123af83611d0f565b92508282019050808211156123c7576123c661236a565b5b92915050565b60006040820190506123e26000830185611dd8565b6123ef6020830184611dd8565b9392505050565b7f41756374696f6e20646f6573206e6f7420657869737400000000000000000000600082015250565b600061242c601683611f69565b9150612437826123f6565b602082019050919050565b6000602082019050818103600083015261245b8161241f565b9050919050565b7f41756374696f6e20686173206e6f7420656e6465642079657400000000000000600082015250565b6000612498601983611f69565b91506124a382612462565b602082019050919050565b600060208201905081810360008301526124c78161248b565b9050919050565b7f4f6e6c79207468652073656c6c65722063616e20656e6420746865206175637460008201527f696f6e0000000000000000000000000000000000000000000000000000000000602082015250565b600061252a602383611f69565b9150612535826124ce565b604082019050919050565b600060208201905081810360008301526125598161251d565b9050919050565b600061256b82611d0f565b915061257683611d0f565b925082820261258481611d0f565b9150828204841483151761259b5761259a61236a565b5b5092915050565b7f4e487b7100000000000000000000000000000000000000000000000000000000600052601260045260246000fd5b60006125dc82611d0f565b91506125e783611d0f565b9250826125f7576125f66125a2565b5b828204905092915050565b600061260d82611d0f565b915061261883611d0f565b92508282039050818111156126305761262f61236a565b5b92915050565b600060608201905061264b6000830186611de7565b6126586020830185611de7565b6126656040830184611dd8565b949350505050565b60006040820190506126826000830185611de7565b61268f6020830184611dd8565b9392505050565b7f4e4654206973206e6f7420666f722073616c6500000000000000000000000000600082015250565b60006126cc601383611f69565b91506126d782612696565b602082019050919050565b600060208201905081810360008301526126fb816126bf565b9050919050565b7f496e73756666696369656e74207061796d656e74000000000000000000000000600082015250565b6000612738601483611f69565b915061274382612702565b602082019050919050565b600060208201905081810360008301526127678161272b565b9050919050565b7f41756374696f6e2068617320656e646564000000000000000000000000000000600082015250565b60006127a4601183611f69565b91506127af8261276e565b602082019050919050565b600060208201905081810360008301526127d381612797565b9050919050565b7f426964206d75737420626520686967686572207468616e2063757272656e742060008201527f6869676865737420626964000000000000000000000000000000000000000000602082015250565b6000612836602b83611f69565b9150612841826127da565b604082019050919050565b6000602082019050818103600083015261286581612829565b9050919050565b7f496e76616c696420726563697069656e74206164647265737300000000000000600082015250565b60006128a2601983611f69565b91506128ad8261286c565b602082019050919050565b600060208201905081810360008301526128d181612895565b9050919050565b7f4f776e61626c653a206e6577206f776e657220697320746865207a65726f206160008201527f6464726573730000000000000000000000000000000000000000000000000000602082015250565b6000612934602683611f69565b915061293f826128d8565b604082019050919050565b6000602082019050818103600083015261296381612927565b9050919050565b7f4f776e61626c653a2063616c6c6572206973206e6f7420746865206f776e6572600082015250565b60006129a0602083611f69565b91506129ab8261296a565b602082019050919050565b600060208201905081810360008301526129cf81612993565b9050919050565b7f5265656e7472616e637947756172643a207265656e7472616e742063616c6c00600082015250565b6000612a0c601f83611f69565b9150612a17826129d6565b602082019050919050565b60006020820190508181036000830152612a3b816129ff565b905091905056fea26469706673582212202d7b02a91482f153c6af69bdde07f13d145b46a3dc2e64b7a3112755fd4e71dd64736f6c634300081c0033",
  "linkReferences": {},
  "deployedLinkReferences": {}
}